{
	"contracts/TOKEN1.sol": {
		"TOKEN1": {
			"abi": [
				{
					"inputs": [
						{
							"internalType": "string",
							"name": "_name",
							"type": "string"
						},
						{
							"internalType": "string",
							"name": "_symbol",
							"type": "string"
						}
					],
					"stateMutability": "nonpayable",
					"type": "constructor"
				},
				{
					"anonymous": false,
					"inputs": [
						{
							"indexed": true,
							"internalType": "address",
							"name": "_from",
							"type": "address"
						},
						{
							"indexed": true,
							"internalType": "address",
							"name": "_to",
							"type": "address"
						},
						{
							"indexed": false,
							"internalType": "uint256",
							"name": "_value",
							"type": "uint256"
						}
					],
					"name": "Transfer",
					"type": "event"
				},
				{
					"inputs": [
						{
							"internalType": "address",
							"name": "_owner",
							"type": "address"
						}
					],
					"name": "balanceOf",
					"outputs": [
						{
							"internalType": "uint256",
							"name": "balance",
							"type": "uint256"
						}
					],
					"stateMutability": "view",
					"type": "function"
				},
				{
					"inputs": [],
					"name": "decimals",
					"outputs": [
						{
							"internalType": "uint256",
							"name": "",
							"type": "uint256"
						}
					],
					"stateMutability": "view",
					"type": "function"
				},
				{
					"inputs": [],
					"name": "name",
					"outputs": [
						{
							"internalType": "string",
							"name": "",
							"type": "string"
						}
					],
					"stateMutability": "view",
					"type": "function"
				},
				{
					"inputs": [],
					"name": "symbol",
					"outputs": [
						{
							"internalType": "string",
							"name": "",
							"type": "string"
						}
					],
					"stateMutability": "view",
					"type": "function"
				},
				{
					"inputs": [],
					"name": "totalSupply",
					"outputs": [
						{
							"internalType": "uint256",
							"name": "",
							"type": "uint256"
						}
					],
					"stateMutability": "pure",
					"type": "function"
				},
				{
					"inputs": [
						{
							"internalType": "address",
							"name": "_to",
							"type": "address"
						},
						{
							"internalType": "uint256",
							"name": "_value",
							"type": "uint256"
						}
					],
					"name": "transfer",
					"outputs": [
						{
							"internalType": "bool",
							"name": "success",
							"type": "bool"
						}
					],
					"stateMutability": "nonpayable",
					"type": "function"
				},
				{
					"inputs": [
						{
							"internalType": "address",
							"name": "_from",
							"type": "address"
						},
						{
							"internalType": "address",
							"name": "_to",
							"type": "address"
						},
						{
							"internalType": "uint256",
							"name": "_value",
							"type": "uint256"
						}
					],
					"name": "transferFrom",
					"outputs": [
						{
							"internalType": "bool",
							"name": "success",
							"type": "bool"
						}
					],
					"stateMutability": "nonpayable",
					"type": "function"
				}
			],
			"devdoc": {
				"kind": "dev",
				"methods": {},
				"version": 1
			},
			"evm": {
				"assembly": "    /* \"contracts/TOKEN1.sol\":64:1406  contract TOKEN1{\r... */\n  mstore(0x40, 0x80)\n    /* \"contracts/TOKEN1.sol\":290:537  constructor(string memory _name, string memory _symbol){\r... */\n  callvalue\n  dup1\n  iszero\n  tag_1\n  jumpi\n  0x00\n  dup1\n  revert\ntag_1:\n  pop\n  mload(0x40)\n  sub(codesize, bytecodeSize)\n  dup1\n  bytecodeSize\n  dup4\n  codecopy\n  dup2\n  dup2\n  add\n  0x40\n  mstore\n  dup2\n  add\n  swap1\n  tag_2\n  swap2\n  swap1\n  tag_3\n  jump\t// in\ntag_2:\n    /* \"contracts/TOKEN1.sol\":363:368  _name */\n  dup2\n    /* \"contracts/TOKEN1.sol\":356:360  name */\n  0x00\n    /* \"contracts/TOKEN1.sol\":356:368  name = _name */\n  swap1\n  dup1\n  mload\n  swap1\n  0x20\n  add\n  swap1\n  tag_6\n  swap3\n  swap2\n  swap1\n  tag_7\n  jump\t// in\ntag_6:\n  pop\n    /* \"contracts/TOKEN1.sol\":388:395  _symbol */\n  dup1\n    /* \"contracts/TOKEN1.sol\":379:385  symbol */\n  0x01\n    /* \"contracts/TOKEN1.sol\":379:395  symbol = _symbol */\n  swap1\n  dup1\n  mload\n  swap1\n  0x20\n  add\n  swap1\n  tag_8\n  swap3\n  swap2\n  swap1\n  tag_7\n  jump\t// in\ntag_8:\n  pop\n    /* \"contracts/TOKEN1.sol\":417:419  18 */\n  0x12\n    /* \"contracts/TOKEN1.sol\":406:414  decimals */\n  0x02\n    /* \"contracts/TOKEN1.sol\":406:419  decimals = 18 */\n  dup2\n  swap1\n  sstore\n  pop\n    /* \"contracts/TOKEN1.sol\":453:466  totalSupply() */\n  tag_9\n    /* \"contracts/TOKEN1.sol\":453:464  totalSupply */\n  shl(0x20, tag_10)\n    /* \"contracts/TOKEN1.sol\":453:466  totalSupply() */\n  0x20\n  shr\n  jump\t// in\ntag_9:\n    /* \"contracts/TOKEN1.sol\":430:438  balances */\n  0x03\n    /* \"contracts/TOKEN1.sol\":430:450  balances[msg.sender] */\n  0x00\n    /* \"contracts/TOKEN1.sol\":439:449  msg.sender */\n  caller\n    /* \"contracts/TOKEN1.sol\":430:450  balances[msg.sender] */\n  0xffffffffffffffffffffffffffffffffffffffff\n  and\n  0xffffffffffffffffffffffffffffffffffffffff\n  and\n  dup2\n  mstore\n  0x20\n  add\n  swap1\n  dup2\n  mstore\n  0x20\n  add\n  0x00\n  keccak256\n    /* \"contracts/TOKEN1.sol\":430:466  balances[msg.sender] = totalSupply() */\n  dup2\n  swap1\n  sstore\n  pop\n    /* \"contracts/TOKEN1.sol\":503:513  msg.sender */\n  caller\n    /* \"contracts/TOKEN1.sol\":482:529  Transfer(address(0), msg.sender, totalSupply()) */\n  0xffffffffffffffffffffffffffffffffffffffff\n  and\n    /* \"contracts/TOKEN1.sol\":499:500  0 */\n  0x00\n    /* \"contracts/TOKEN1.sol\":482:529  Transfer(address(0), msg.sender, totalSupply()) */\n  0xffffffffffffffffffffffffffffffffffffffff\n  and\n  0xddf252ad1be2c89b69c2b068fc378daa952ba7f163c4a11628f55a4df523b3ef\n    /* \"contracts/TOKEN1.sol\":515:528  totalSupply() */\n  tag_11\n    /* \"contracts/TOKEN1.sol\":515:526  totalSupply */\n  shl(0x20, tag_10)\n    /* \"contracts/TOKEN1.sol\":515:528  totalSupply() */\n  0x20\n  shr\n  jump\t// in\ntag_11:\n    /* \"contracts/TOKEN1.sol\":482:529  Transfer(address(0), msg.sender, totalSupply()) */\n  mload(0x40)\n  tag_12\n  swap2\n  swap1\n  tag_13\n  jump\t// in\ntag_12:\n  mload(0x40)\n  dup1\n  swap2\n  sub\n  swap1\n  log3\n    /* \"contracts/TOKEN1.sol\":290:537  constructor(string memory _name, string memory _symbol){\r... */\n  pop\n  pop\n    /* \"contracts/TOKEN1.sol\":64:1406  contract TOKEN1{\r... */\n  jump(tag_14)\n    /* \"contracts/TOKEN1.sol\":545:633  function totalSupply() public pure returns (uint256){\r... */\ntag_10:\n    /* \"contracts/TOKEN1.sol\":589:596  uint256 */\n  0x00\n    /* \"contracts/TOKEN1.sol\":615:625  1000000000 */\n  0x3b9aca00\n    /* \"contracts/TOKEN1.sol\":608:625  return 1000000000 */\n  swap1\n  pop\n    /* \"contracts/TOKEN1.sol\":545:633  function totalSupply() public pure returns (uint256){\r... */\n  swap1\n  jump\t// out\n    /* \"contracts/TOKEN1.sol\":64:1406  contract TOKEN1{\r... */\ntag_7:\n  dup3\n  dup1\n  sload\n  tag_16\n  swap1\n  tag_17\n  jump\t// in\ntag_16:\n  swap1\n  0x00\n  mstore\n  keccak256(0x00, 0x20)\n  swap1\n  0x1f\n  add\n  0x20\n  swap1\n  div\n  dup2\n  add\n  swap3\n  dup3\n  tag_19\n  jumpi\n  0x00\n  dup6\n  sstore\n  jump(tag_18)\ntag_19:\n  dup3\n  0x1f\n  lt\n  tag_20\n  jumpi\n  dup1\n  mload\n  not(0xff)\n  and\n  dup4\n  dup1\n  add\n  or\n  dup6\n  sstore\n  jump(tag_18)\ntag_20:\n  dup3\n  dup1\n  add\n  0x01\n  add\n  dup6\n  sstore\n  dup3\n  iszero\n  tag_18\n  jumpi\n  swap2\n  dup3\n  add\ntag_21:\n  dup3\n  dup2\n  gt\n  iszero\n  tag_22\n  jumpi\n  dup3\n  mload\n  dup3\n  sstore\n  swap2\n  0x20\n  add\n  swap2\n  swap1\n  0x01\n  add\n  swap1\n  jump(tag_21)\ntag_22:\ntag_18:\n  pop\n  swap1\n  pop\n  tag_23\n  swap2\n  swap1\n  tag_24\n  jump\t// in\ntag_23:\n  pop\n  swap1\n  jump\t// out\ntag_24:\ntag_25:\n  dup1\n  dup3\n  gt\n  iszero\n  tag_26\n  jumpi\n  0x00\n  dup2\n  0x00\n  swap1\n  sstore\n  pop\n  0x01\n  add\n  jump(tag_25)\ntag_26:\n  pop\n  swap1\n  jump\t// out\n    /* \"#utility.yul\":7:428   */\ntag_28:\n    /* \"#utility.yul\":96:101   */\n  0x00\n    /* \"#utility.yul\":121:187   */\n  tag_30\n    /* \"#utility.yul\":137:186   */\n  tag_31\n    /* \"#utility.yul\":179:185   */\n  dup5\n    /* \"#utility.yul\":137:186   */\n  tag_32\n  jump\t// in\ntag_31:\n    /* \"#utility.yul\":121:187   */\n  tag_33\n  jump\t// in\ntag_30:\n    /* \"#utility.yul\":112:187   */\n  swap1\n  pop\n    /* \"#utility.yul\":210:216   */\n  dup3\n    /* \"#utility.yul\":203:208   */\n  dup2\n    /* \"#utility.yul\":196:217   */\n  mstore\n    /* \"#utility.yul\":248:252   */\n  0x20\n    /* \"#utility.yul\":241:246   */\n  dup2\n    /* \"#utility.yul\":237:253   */\n  add\n    /* \"#utility.yul\":286:289   */\n  dup5\n    /* \"#utility.yul\":277:283   */\n  dup5\n    /* \"#utility.yul\":272:275   */\n  dup5\n    /* \"#utility.yul\":268:284   */\n  add\n    /* \"#utility.yul\":265:290   */\n  gt\n    /* \"#utility.yul\":262:374   */\n  iszero\n  tag_34\n  jumpi\n    /* \"#utility.yul\":293:372   */\n  tag_35\n  tag_36\n  jump\t// in\ntag_35:\n    /* \"#utility.yul\":262:374   */\ntag_34:\n    /* \"#utility.yul\":383:422   */\n  tag_37\n    /* \"#utility.yul\":415:421   */\n  dup5\n    /* \"#utility.yul\":410:413   */\n  dup3\n    /* \"#utility.yul\":405:408   */\n  dup6\n    /* \"#utility.yul\":383:422   */\n  tag_38\n  jump\t// in\ntag_37:\n    /* \"#utility.yul\":102:428   */\n  pop\n    /* \"#utility.yul\":7:428   */\n  swap4\n  swap3\n  pop\n  pop\n  pop\n  jump\t// out\n    /* \"#utility.yul\":448:803   */\ntag_39:\n    /* \"#utility.yul\":515:520   */\n  0x00\n    /* \"#utility.yul\":564:567   */\n  dup3\n    /* \"#utility.yul\":557:561   */\n  0x1f\n    /* \"#utility.yul\":549:555   */\n  dup4\n    /* \"#utility.yul\":545:562   */\n  add\n    /* \"#utility.yul\":541:568   */\n  slt\n    /* \"#utility.yul\":531:653   */\n  tag_41\n  jumpi\n    /* \"#utility.yul\":572:651   */\n  tag_42\n  tag_43\n  jump\t// in\ntag_42:\n    /* \"#utility.yul\":531:653   */\ntag_41:\n    /* \"#utility.yul\":682:688   */\n  dup2\n    /* \"#utility.yul\":676:689   */\n  mload\n    /* \"#utility.yul\":707:797   */\n  tag_44\n    /* \"#utility.yul\":793:796   */\n  dup5\n    /* \"#utility.yul\":785:791   */\n  dup3\n    /* \"#utility.yul\":778:782   */\n  0x20\n    /* \"#utility.yul\":770:776   */\n  dup7\n    /* \"#utility.yul\":766:783   */\n  add\n    /* \"#utility.yul\":707:797   */\n  tag_28\n  jump\t// in\ntag_44:\n    /* \"#utility.yul\":698:797   */\n  swap2\n  pop\n    /* \"#utility.yul\":521:803   */\n  pop\n    /* \"#utility.yul\":448:803   */\n  swap3\n  swap2\n  pop\n  pop\n  jump\t// out\n    /* \"#utility.yul\":809:1662   */\ntag_3:\n    /* \"#utility.yul\":908:914   */\n  0x00\n    /* \"#utility.yul\":916:922   */\n  dup1\n    /* \"#utility.yul\":965:967   */\n  0x40\n    /* \"#utility.yul\":953:962   */\n  dup4\n    /* \"#utility.yul\":944:951   */\n  dup6\n    /* \"#utility.yul\":940:963   */\n  sub\n    /* \"#utility.yul\":936:968   */\n  slt\n    /* \"#utility.yul\":933:1052   */\n  iszero\n  tag_46\n  jumpi\n    /* \"#utility.yul\":971:1050   */\n  tag_47\n  tag_48\n  jump\t// in\ntag_47:\n    /* \"#utility.yul\":933:1052   */\ntag_46:\n    /* \"#utility.yul\":1112:1113   */\n  0x00\n    /* \"#utility.yul\":1101:1110   */\n  dup4\n    /* \"#utility.yul\":1097:1114   */\n  add\n    /* \"#utility.yul\":1091:1115   */\n  mload\n    /* \"#utility.yul\":1142:1160   */\n  0xffffffffffffffff\n    /* \"#utility.yul\":1134:1140   */\n  dup2\n    /* \"#utility.yul\":1131:1161   */\n  gt\n    /* \"#utility.yul\":1128:1245   */\n  iszero\n  tag_49\n  jumpi\n    /* \"#utility.yul\":1164:1243   */\n  tag_50\n  tag_51\n  jump\t// in\ntag_50:\n    /* \"#utility.yul\":1128:1245   */\ntag_49:\n    /* \"#utility.yul\":1269:1343   */\n  tag_52\n    /* \"#utility.yul\":1335:1342   */\n  dup6\n    /* \"#utility.yul\":1326:1332   */\n  dup3\n    /* \"#utility.yul\":1315:1324   */\n  dup7\n    /* \"#utility.yul\":1311:1333   */\n  add\n    /* \"#utility.yul\":1269:1343   */\n  tag_39\n  jump\t// in\ntag_52:\n    /* \"#utility.yul\":1259:1343   */\n  swap3\n  pop\n    /* \"#utility.yul\":1062:1353   */\n  pop\n    /* \"#utility.yul\":1413:1415   */\n  0x20\n    /* \"#utility.yul\":1402:1411   */\n  dup4\n    /* \"#utility.yul\":1398:1416   */\n  add\n    /* \"#utility.yul\":1392:1417   */\n  mload\n    /* \"#utility.yul\":1444:1462   */\n  0xffffffffffffffff\n    /* \"#utility.yul\":1436:1442   */\n  dup2\n    /* \"#utility.yul\":1433:1463   */\n  gt\n    /* \"#utility.yul\":1430:1547   */\n  iszero\n  tag_53\n  jumpi\n    /* \"#utility.yul\":1466:1545   */\n  tag_54\n  tag_51\n  jump\t// in\ntag_54:\n    /* \"#utility.yul\":1430:1547   */\ntag_53:\n    /* \"#utility.yul\":1571:1645   */\n  tag_55\n    /* \"#utility.yul\":1637:1644   */\n  dup6\n    /* \"#utility.yul\":1628:1634   */\n  dup3\n    /* \"#utility.yul\":1617:1626   */\n  dup7\n    /* \"#utility.yul\":1613:1635   */\n  add\n    /* \"#utility.yul\":1571:1645   */\n  tag_39\n  jump\t// in\ntag_55:\n    /* \"#utility.yul\":1561:1645   */\n  swap2\n  pop\n    /* \"#utility.yul\":1363:1655   */\n  pop\n    /* \"#utility.yul\":809:1662   */\n  swap3\n  pop\n  swap3\n  swap1\n  pop\n  jump\t// out\n    /* \"#utility.yul\":1668:1786   */\ntag_56:\n    /* \"#utility.yul\":1755:1779   */\n  tag_58\n    /* \"#utility.yul\":1773:1778   */\n  dup2\n    /* \"#utility.yul\":1755:1779   */\n  tag_59\n  jump\t// in\ntag_58:\n    /* \"#utility.yul\":1750:1753   */\n  dup3\n    /* \"#utility.yul\":1743:1780   */\n  mstore\n    /* \"#utility.yul\":1668:1786   */\n  pop\n  pop\n  jump\t// out\n    /* \"#utility.yul\":1792:2014   */\ntag_13:\n    /* \"#utility.yul\":1885:1889   */\n  0x00\n    /* \"#utility.yul\":1923:1925   */\n  0x20\n    /* \"#utility.yul\":1912:1921   */\n  dup3\n    /* \"#utility.yul\":1908:1926   */\n  add\n    /* \"#utility.yul\":1900:1926   */\n  swap1\n  pop\n    /* \"#utility.yul\":1936:2007   */\n  tag_61\n    /* \"#utility.yul\":2004:2005   */\n  0x00\n    /* \"#utility.yul\":1993:2002   */\n  dup4\n    /* \"#utility.yul\":1989:2006   */\n  add\n    /* \"#utility.yul\":1980:1986   */\n  dup5\n    /* \"#utility.yul\":1936:2007   */\n  tag_56\n  jump\t// in\ntag_61:\n    /* \"#utility.yul\":1792:2014   */\n  swap3\n  swap2\n  pop\n  pop\n  jump\t// out\n    /* \"#utility.yul\":2020:2149   */\ntag_33:\n    /* \"#utility.yul\":2054:2060   */\n  0x00\n    /* \"#utility.yul\":2081:2101   */\n  tag_63\n  tag_64\n  jump\t// in\ntag_63:\n    /* \"#utility.yul\":2071:2101   */\n  swap1\n  pop\n    /* \"#utility.yul\":2110:2143   */\n  tag_65\n    /* \"#utility.yul\":2138:2142   */\n  dup3\n    /* \"#utility.yul\":2130:2136   */\n  dup3\n    /* \"#utility.yul\":2110:2143   */\n  tag_66\n  jump\t// in\ntag_65:\n    /* \"#utility.yul\":2020:2149   */\n  swap2\n  swap1\n  pop\n  jump\t// out\n    /* \"#utility.yul\":2155:2230   */\ntag_64:\n    /* \"#utility.yul\":2188:2194   */\n  0x00\n    /* \"#utility.yul\":2221:2223   */\n  0x40\n    /* \"#utility.yul\":2215:2224   */\n  mload\n    /* \"#utility.yul\":2205:2224   */\n  swap1\n  pop\n    /* \"#utility.yul\":2155:2230   */\n  swap1\n  jump\t// out\n    /* \"#utility.yul\":2236:2544   */\ntag_32:\n    /* \"#utility.yul\":2298:2302   */\n  0x00\n    /* \"#utility.yul\":2388:2406   */\n  0xffffffffffffffff\n    /* \"#utility.yul\":2380:2386   */\n  dup3\n    /* \"#utility.yul\":2377:2407   */\n  gt\n    /* \"#utility.yul\":2374:2430   */\n  iszero\n  tag_69\n  jumpi\n    /* \"#utility.yul\":2410:2428   */\n  tag_70\n  tag_71\n  jump\t// in\ntag_70:\n    /* \"#utility.yul\":2374:2430   */\ntag_69:\n    /* \"#utility.yul\":2448:2477   */\n  tag_72\n    /* \"#utility.yul\":2470:2476   */\n  dup3\n    /* \"#utility.yul\":2448:2477   */\n  tag_73\n  jump\t// in\ntag_72:\n    /* \"#utility.yul\":2440:2477   */\n  swap1\n  pop\n    /* \"#utility.yul\":2532:2536   */\n  0x20\n    /* \"#utility.yul\":2526:2530   */\n  dup2\n    /* \"#utility.yul\":2522:2537   */\n  add\n    /* \"#utility.yul\":2514:2537   */\n  swap1\n  pop\n    /* \"#utility.yul\":2236:2544   */\n  swap2\n  swap1\n  pop\n  jump\t// out\n    /* \"#utility.yul\":2550:2627   */\ntag_59:\n    /* \"#utility.yul\":2587:2594   */\n  0x00\n    /* \"#utility.yul\":2616:2621   */\n  dup2\n    /* \"#utility.yul\":2605:2621   */\n  swap1\n  pop\n    /* \"#utility.yul\":2550:2627   */\n  swap2\n  swap1\n  pop\n  jump\t// out\n    /* \"#utility.yul\":2633:2940   */\ntag_38:\n    /* \"#utility.yul\":2701:2702   */\n  0x00\n    /* \"#utility.yul\":2711:2824   */\ntag_76:\n    /* \"#utility.yul\":2725:2731   */\n  dup4\n    /* \"#utility.yul\":2722:2723   */\n  dup2\n    /* \"#utility.yul\":2719:2732   */\n  lt\n    /* \"#utility.yul\":2711:2824   */\n  iszero\n  tag_78\n  jumpi\n    /* \"#utility.yul\":2810:2811   */\n  dup1\n    /* \"#utility.yul\":2805:2808   */\n  dup3\n    /* \"#utility.yul\":2801:2812   */\n  add\n    /* \"#utility.yul\":2795:2813   */\n  mload\n    /* \"#utility.yul\":2791:2792   */\n  dup2\n    /* \"#utility.yul\":2786:2789   */\n  dup5\n    /* \"#utility.yul\":2782:2793   */\n  add\n    /* \"#utility.yul\":2775:2814   */\n  mstore\n    /* \"#utility.yul\":2747:2749   */\n  0x20\n    /* \"#utility.yul\":2744:2745   */\n  dup2\n    /* \"#utility.yul\":2740:2750   */\n  add\n    /* \"#utility.yul\":2735:2750   */\n  swap1\n  pop\n    /* \"#utility.yul\":2711:2824   */\n  jump(tag_76)\ntag_78:\n    /* \"#utility.yul\":2842:2848   */\n  dup4\n    /* \"#utility.yul\":2839:2840   */\n  dup2\n    /* \"#utility.yul\":2836:2849   */\n  gt\n    /* \"#utility.yul\":2833:2934   */\n  iszero\n  tag_79\n  jumpi\n    /* \"#utility.yul\":2922:2923   */\n  0x00\n    /* \"#utility.yul\":2913:2919   */\n  dup5\n    /* \"#utility.yul\":2908:2911   */\n  dup5\n    /* \"#utility.yul\":2904:2920   */\n  add\n    /* \"#utility.yul\":2897:2924   */\n  mstore\n    /* \"#utility.yul\":2833:2934   */\ntag_79:\n    /* \"#utility.yul\":2682:2940   */\n  pop\n    /* \"#utility.yul\":2633:2940   */\n  pop\n  pop\n  pop\n  jump\t// out\n    /* \"#utility.yul\":2946:3266   */\ntag_17:\n    /* \"#utility.yul\":2990:2996   */\n  0x00\n    /* \"#utility.yul\":3027:3028   */\n  0x02\n    /* \"#utility.yul\":3021:3025   */\n  dup3\n    /* \"#utility.yul\":3017:3029   */\n  div\n    /* \"#utility.yul\":3007:3029   */\n  swap1\n  pop\n    /* \"#utility.yul\":3074:3075   */\n  0x01\n    /* \"#utility.yul\":3068:3072   */\n  dup3\n    /* \"#utility.yul\":3064:3076   */\n  and\n    /* \"#utility.yul\":3095:3113   */\n  dup1\n    /* \"#utility.yul\":3085:3166   */\n  tag_81\n  jumpi\n    /* \"#utility.yul\":3151:3155   */\n  0x7f\n    /* \"#utility.yul\":3143:3149   */\n  dup3\n    /* \"#utility.yul\":3139:3156   */\n  and\n    /* \"#utility.yul\":3129:3156   */\n  swap2\n  pop\n    /* \"#utility.yul\":3085:3166   */\ntag_81:\n    /* \"#utility.yul\":3213:3215   */\n  0x20\n    /* \"#utility.yul\":3205:3211   */\n  dup3\n    /* \"#utility.yul\":3202:3216   */\n  lt\n    /* \"#utility.yul\":3182:3200   */\n  dup2\n    /* \"#utility.yul\":3179:3217   */\n  eq\n    /* \"#utility.yul\":3176:3260   */\n  iszero\n  tag_82\n  jumpi\n    /* \"#utility.yul\":3232:3250   */\n  tag_83\n  tag_84\n  jump\t// in\ntag_83:\n    /* \"#utility.yul\":3176:3260   */\ntag_82:\n    /* \"#utility.yul\":2997:3266   */\n  pop\n    /* \"#utility.yul\":2946:3266   */\n  swap2\n  swap1\n  pop\n  jump\t// out\n    /* \"#utility.yul\":3272:3553   */\ntag_66:\n    /* \"#utility.yul\":3355:3382   */\n  tag_86\n    /* \"#utility.yul\":3377:3381   */\n  dup3\n    /* \"#utility.yul\":3355:3382   */\n  tag_73\n  jump\t// in\ntag_86:\n    /* \"#utility.yul\":3347:3353   */\n  dup2\n    /* \"#utility.yul\":3343:3383   */\n  add\n    /* \"#utility.yul\":3485:3491   */\n  dup2\n    /* \"#utility.yul\":3473:3483   */\n  dup2\n    /* \"#utility.yul\":3470:3492   */\n  lt\n    /* \"#utility.yul\":3449:3467   */\n  0xffffffffffffffff\n    /* \"#utility.yul\":3437:3447   */\n  dup3\n    /* \"#utility.yul\":3434:3468   */\n  gt\n    /* \"#utility.yul\":3431:3493   */\n  or\n    /* \"#utility.yul\":3428:3516   */\n  iszero\n  tag_87\n  jumpi\n    /* \"#utility.yul\":3496:3514   */\n  tag_88\n  tag_71\n  jump\t// in\ntag_88:\n    /* \"#utility.yul\":3428:3516   */\ntag_87:\n    /* \"#utility.yul\":3536:3546   */\n  dup1\n    /* \"#utility.yul\":3532:3534   */\n  0x40\n    /* \"#utility.yul\":3525:3547   */\n  mstore\n    /* \"#utility.yul\":3315:3553   */\n  pop\n    /* \"#utility.yul\":3272:3553   */\n  pop\n  pop\n  jump\t// out\n    /* \"#utility.yul\":3559:3739   */\ntag_84:\n    /* \"#utility.yul\":3607:3684   */\n  0x4e487b7100000000000000000000000000000000000000000000000000000000\n    /* \"#utility.yul\":3604:3605   */\n  0x00\n    /* \"#utility.yul\":3597:3685   */\n  mstore\n    /* \"#utility.yul\":3704:3708   */\n  0x22\n    /* \"#utility.yul\":3701:3702   */\n  0x04\n    /* \"#utility.yul\":3694:3709   */\n  mstore\n    /* \"#utility.yul\":3728:3732   */\n  0x24\n    /* \"#utility.yul\":3725:3726   */\n  0x00\n    /* \"#utility.yul\":3718:3733   */\n  revert\n    /* \"#utility.yul\":3745:3925   */\ntag_71:\n    /* \"#utility.yul\":3793:3870   */\n  0x4e487b7100000000000000000000000000000000000000000000000000000000\n    /* \"#utility.yul\":3790:3791   */\n  0x00\n    /* \"#utility.yul\":3783:3871   */\n  mstore\n    /* \"#utility.yul\":3890:3894   */\n  0x41\n    /* \"#utility.yul\":3887:3888   */\n  0x04\n    /* \"#utility.yul\":3880:3895   */\n  mstore\n    /* \"#utility.yul\":3914:3918   */\n  0x24\n    /* \"#utility.yul\":3911:3912   */\n  0x00\n    /* \"#utility.yul\":3904:3919   */\n  revert\n    /* \"#utility.yul\":3931:4048   */\ntag_43:\n    /* \"#utility.yul\":4040:4041   */\n  0x00\n    /* \"#utility.yul\":4037:4038   */\n  dup1\n    /* \"#utility.yul\":4030:4042   */\n  revert\n    /* \"#utility.yul\":4054:4171   */\ntag_36:\n    /* \"#utility.yul\":4163:4164   */\n  0x00\n    /* \"#utility.yul\":4160:4161   */\n  dup1\n    /* \"#utility.yul\":4153:4165   */\n  revert\n    /* \"#utility.yul\":4177:4294   */\ntag_51:\n    /* \"#utility.yul\":4286:4287   */\n  0x00\n    /* \"#utility.yul\":4283:4284   */\n  dup1\n    /* \"#utility.yul\":4276:4288   */\n  revert\n    /* \"#utility.yul\":4300:4417   */\ntag_48:\n    /* \"#utility.yul\":4409:4410   */\n  0x00\n    /* \"#utility.yul\":4406:4407   */\n  dup1\n    /* \"#utility.yul\":4399:4411   */\n  revert\n    /* \"#utility.yul\":4423:4525   */\ntag_73:\n    /* \"#utility.yul\":4464:4470   */\n  0x00\n    /* \"#utility.yul\":4515:4517   */\n  0x1f\n    /* \"#utility.yul\":4511:4518   */\n  not\n    /* \"#utility.yul\":4506:4508   */\n  0x1f\n    /* \"#utility.yul\":4499:4504   */\n  dup4\n    /* \"#utility.yul\":4495:4509   */\n  add\n    /* \"#utility.yul\":4491:4519   */\n  and\n    /* \"#utility.yul\":4481:4519   */\n  swap1\n  pop\n    /* \"#utility.yul\":4423:4525   */\n  swap2\n  swap1\n  pop\n  jump\t// out\n    /* \"contracts/TOKEN1.sol\":64:1406  contract TOKEN1{\r... */\ntag_14:\n  dataSize(sub_0)\n  dup1\n  dataOffset(sub_0)\n  0x00\n  codecopy\n  0x00\n  return\nstop\n\nsub_0: assembly {\n        /* \"contracts/TOKEN1.sol\":64:1406  contract TOKEN1{\r... */\n      mstore(0x40, 0x80)\n      callvalue\n      dup1\n      iszero\n      tag_1\n      jumpi\n      0x00\n      dup1\n      revert\n    tag_1:\n      pop\n      jumpi(tag_2, lt(calldatasize, 0x04))\n      shr(0xe0, calldataload(0x00))\n      dup1\n      0x313ce567\n      gt\n      tag_10\n      jumpi\n      dup1\n      0x313ce567\n      eq\n      tag_6\n      jumpi\n      dup1\n      0x70a08231\n      eq\n      tag_7\n      jumpi\n      dup1\n      0x95d89b41\n      eq\n      tag_8\n      jumpi\n      dup1\n      0xa9059cbb\n      eq\n      tag_9\n      jumpi\n      jump(tag_2)\n    tag_10:\n      dup1\n      0x06fdde03\n      eq\n      tag_3\n      jumpi\n      dup1\n      0x18160ddd\n      eq\n      tag_4\n      jumpi\n      dup1\n      0x23b872dd\n      eq\n      tag_5\n      jumpi\n    tag_2:\n      0x00\n      dup1\n      revert\n        /* \"contracts/TOKEN1.sol\":86:104  string public name */\n    tag_3:\n      tag_11\n      tag_12\n      jump\t// in\n    tag_11:\n      mload(0x40)\n      tag_13\n      swap2\n      swap1\n      tag_14\n      jump\t// in\n    tag_13:\n      mload(0x40)\n      dup1\n      swap2\n      sub\n      swap1\n      return\n        /* \"contracts/TOKEN1.sol\":545:633  function totalSupply() public pure returns (uint256){\r... */\n    tag_4:\n      tag_15\n      tag_16\n      jump\t// in\n    tag_15:\n      mload(0x40)\n      tag_17\n      swap2\n      swap1\n      tag_18\n      jump\t// in\n    tag_17:\n      mload(0x40)\n      dup1\n      swap2\n      sub\n      swap1\n      return\n        /* \"contracts/TOKEN1.sol\":1085:1403  function transferFrom(address _from, address _to, uint256 _value) public returns (bool success){\r... */\n    tag_5:\n      tag_19\n      0x04\n      dup1\n      calldatasize\n      sub\n      dup2\n      add\n      swap1\n      tag_20\n      swap2\n      swap1\n      tag_21\n      jump\t// in\n    tag_20:\n      tag_22\n      jump\t// in\n    tag_19:\n      mload(0x40)\n      tag_23\n      swap2\n      swap1\n      tag_24\n      jump\t// in\n    tag_23:\n      mload(0x40)\n      dup1\n      swap2\n      sub\n      swap1\n      return\n        /* \"contracts/TOKEN1.sol\":138:158  uint public decimals */\n    tag_6:\n      tag_25\n      tag_26\n      jump\t// in\n    tag_25:\n      mload(0x40)\n      tag_27\n      swap2\n      swap1\n      tag_18\n      jump\t// in\n    tag_27:\n      mload(0x40)\n      dup1\n      swap2\n      sub\n      swap1\n      return\n        /* \"contracts/TOKEN1.sol\":641:755  function balanceOf(address _owner) public view returns (uint256 balance){\r... */\n    tag_7:\n      tag_28\n      0x04\n      dup1\n      calldatasize\n      sub\n      dup2\n      add\n      swap1\n      tag_29\n      swap2\n      swap1\n      tag_30\n      jump\t// in\n    tag_29:\n      tag_31\n      jump\t// in\n    tag_28:\n      mload(0x40)\n      tag_32\n      swap2\n      swap1\n      tag_18\n      jump\t// in\n    tag_32:\n      mload(0x40)\n      dup1\n      swap2\n      sub\n      swap1\n      return\n        /* \"contracts/TOKEN1.sol\":111:131  string public symbol */\n    tag_8:\n      tag_33\n      tag_34\n      jump\t// in\n    tag_33:\n      mload(0x40)\n      tag_35\n      swap2\n      swap1\n      tag_14\n      jump\t// in\n    tag_35:\n      mload(0x40)\n      dup1\n      swap2\n      sub\n      swap1\n      return\n        /* \"contracts/TOKEN1.sol\":763:1077  function transfer(address _to, uint256 _value) public returns (bool success){\r... */\n    tag_9:\n      tag_36\n      0x04\n      dup1\n      calldatasize\n      sub\n      dup2\n      add\n      swap1\n      tag_37\n      swap2\n      swap1\n      tag_38\n      jump\t// in\n    tag_37:\n      tag_39\n      jump\t// in\n    tag_36:\n      mload(0x40)\n      tag_40\n      swap2\n      swap1\n      tag_24\n      jump\t// in\n    tag_40:\n      mload(0x40)\n      dup1\n      swap2\n      sub\n      swap1\n      return\n        /* \"contracts/TOKEN1.sol\":86:104  string public name */\n    tag_12:\n      0x00\n      dup1\n      sload\n      tag_41\n      swap1\n      tag_42\n      jump\t// in\n    tag_41:\n      dup1\n      0x1f\n      add\n      0x20\n      dup1\n      swap2\n      div\n      mul\n      0x20\n      add\n      mload(0x40)\n      swap1\n      dup2\n      add\n      0x40\n      mstore\n      dup1\n      swap3\n      swap2\n      swap1\n      dup2\n      dup2\n      mstore\n      0x20\n      add\n      dup3\n      dup1\n      sload\n      tag_43\n      swap1\n      tag_42\n      jump\t// in\n    tag_43:\n      dup1\n      iszero\n      tag_44\n      jumpi\n      dup1\n      0x1f\n      lt\n      tag_45\n      jumpi\n      0x0100\n      dup1\n      dup4\n      sload\n      div\n      mul\n      dup4\n      mstore\n      swap2\n      0x20\n      add\n      swap2\n      jump(tag_44)\n    tag_45:\n      dup3\n      add\n      swap2\n      swap1\n      0x00\n      mstore\n      keccak256(0x00, 0x20)\n      swap1\n    tag_46:\n      dup2\n      sload\n      dup2\n      mstore\n      swap1\n      0x01\n      add\n      swap1\n      0x20\n      add\n      dup1\n      dup4\n      gt\n      tag_46\n      jumpi\n      dup3\n      swap1\n      sub\n      0x1f\n      and\n      dup3\n      add\n      swap2\n    tag_44:\n      pop\n      pop\n      pop\n      pop\n      pop\n      dup2\n      jump\t// out\n        /* \"contracts/TOKEN1.sol\":545:633  function totalSupply() public pure returns (uint256){\r... */\n    tag_16:\n        /* \"contracts/TOKEN1.sol\":589:596  uint256 */\n      0x00\n        /* \"contracts/TOKEN1.sol\":615:625  1000000000 */\n      0x3b9aca00\n        /* \"contracts/TOKEN1.sol\":608:625  return 1000000000 */\n      swap1\n      pop\n        /* \"contracts/TOKEN1.sol\":545:633  function totalSupply() public pure returns (uint256){\r... */\n      swap1\n      jump\t// out\n        /* \"contracts/TOKEN1.sol\":1085:1403  function transferFrom(address _from, address _to, uint256 _value) public returns (bool success){\r... */\n    tag_22:\n        /* \"contracts/TOKEN1.sol\":1167:1179  bool success */\n      0x00\n        /* \"contracts/TOKEN1.sol\":1218:1224  _value */\n      dup2\n        /* \"contracts/TOKEN1.sol\":1199:1207  balances */\n      0x03\n        /* \"contracts/TOKEN1.sol\":1199:1214  balances[_from] */\n      0x00\n        /* \"contracts/TOKEN1.sol\":1208:1213  _from */\n      dup7\n        /* \"contracts/TOKEN1.sol\":1199:1214  balances[_from] */\n      0xffffffffffffffffffffffffffffffffffffffff\n      and\n      0xffffffffffffffffffffffffffffffffffffffff\n      and\n      dup2\n      mstore\n      0x20\n      add\n      swap1\n      dup2\n      mstore\n      0x20\n      add\n      0x00\n      keccak256\n      sload\n        /* \"contracts/TOKEN1.sol\":1199:1224  balances[_from] >= _value */\n      lt\n      iszero\n        /* \"contracts/TOKEN1.sol\":1191:1258  require(balances[_from] >= _value, \"Not enough token to transfer.\") */\n      tag_49\n      jumpi\n      mload(0x40)\n      0x08c379a000000000000000000000000000000000000000000000000000000000\n      dup2\n      mstore\n      0x04\n      add\n      tag_50\n      swap1\n      tag_51\n      jump\t// in\n    tag_50:\n      mload(0x40)\n      dup1\n      swap2\n      sub\n      swap1\n      revert\n    tag_49:\n        /* \"contracts/TOKEN1.sol\":1288:1294  _value */\n      dup2\n        /* \"contracts/TOKEN1.sol\":1269:1277  balances */\n      0x03\n        /* \"contracts/TOKEN1.sol\":1269:1284  balances[_from] */\n      0x00\n        /* \"contracts/TOKEN1.sol\":1278:1283  _from */\n      dup7\n        /* \"contracts/TOKEN1.sol\":1269:1284  balances[_from] */\n      0xffffffffffffffffffffffffffffffffffffffff\n      and\n      0xffffffffffffffffffffffffffffffffffffffff\n      and\n      dup2\n      mstore\n      0x20\n      add\n      swap1\n      dup2\n      mstore\n      0x20\n      add\n      0x00\n      keccak256\n      0x00\n        /* \"contracts/TOKEN1.sol\":1269:1294  balances[_from] -= _value */\n      dup3\n      dup3\n      sload\n      tag_52\n      swap2\n      swap1\n      tag_53\n      jump\t// in\n    tag_52:\n      swap3\n      pop\n      pop\n      dup2\n      swap1\n      sstore\n      pop\n        /* \"contracts/TOKEN1.sol\":1322:1328  _value */\n      dup2\n        /* \"contracts/TOKEN1.sol\":1305:1313  balances */\n      0x03\n        /* \"contracts/TOKEN1.sol\":1305:1318  balances[_to] */\n      0x00\n        /* \"contracts/TOKEN1.sol\":1314:1317  _to */\n      dup6\n        /* \"contracts/TOKEN1.sol\":1305:1318  balances[_to] */\n      0xffffffffffffffffffffffffffffffffffffffff\n      and\n      0xffffffffffffffffffffffffffffffffffffffff\n      and\n      dup2\n      mstore\n      0x20\n      add\n      swap1\n      dup2\n      mstore\n      0x20\n      add\n      0x00\n      keccak256\n      0x00\n        /* \"contracts/TOKEN1.sol\":1305:1328  balances[_to] += _value */\n      dup3\n      dup3\n      sload\n      tag_54\n      swap2\n      swap1\n      tag_55\n      jump\t// in\n    tag_54:\n      swap3\n      pop\n      pop\n      dup2\n      swap1\n      sstore\n      pop\n        /* \"contracts/TOKEN1.sol\":1360:1363  _to */\n      dup3\n        /* \"contracts/TOKEN1.sol\":1344:1372  Transfer(_from, _to, _value) */\n      0xffffffffffffffffffffffffffffffffffffffff\n      and\n        /* \"contracts/TOKEN1.sol\":1353:1358  _from */\n      dup5\n        /* \"contracts/TOKEN1.sol\":1344:1372  Transfer(_from, _to, _value) */\n      0xffffffffffffffffffffffffffffffffffffffff\n      and\n      0xddf252ad1be2c89b69c2b068fc378daa952ba7f163c4a11628f55a4df523b3ef\n        /* \"contracts/TOKEN1.sol\":1365:1371  _value */\n      dup5\n        /* \"contracts/TOKEN1.sol\":1344:1372  Transfer(_from, _to, _value) */\n      mload(0x40)\n      tag_56\n      swap2\n      swap1\n      tag_18\n      jump\t// in\n    tag_56:\n      mload(0x40)\n      dup1\n      swap2\n      sub\n      swap1\n      log3\n        /* \"contracts/TOKEN1.sol\":1390:1394  true */\n      0x01\n        /* \"contracts/TOKEN1.sol\":1383:1394  return true */\n      swap1\n      pop\n        /* \"contracts/TOKEN1.sol\":1085:1403  function transferFrom(address _from, address _to, uint256 _value) public returns (bool success){\r... */\n      swap4\n      swap3\n      pop\n      pop\n      pop\n      jump\t// out\n        /* \"contracts/TOKEN1.sol\":138:158  uint public decimals */\n    tag_26:\n      sload(0x02)\n      dup2\n      jump\t// out\n        /* \"contracts/TOKEN1.sol\":641:755  function balanceOf(address _owner) public view returns (uint256 balance){\r... */\n    tag_31:\n        /* \"contracts/TOKEN1.sol\":697:712  uint256 balance */\n      0x00\n        /* \"contracts/TOKEN1.sol\":731:739  balances */\n      0x03\n        /* \"contracts/TOKEN1.sol\":731:747  balances[_owner] */\n      0x00\n        /* \"contracts/TOKEN1.sol\":740:746  _owner */\n      dup4\n        /* \"contracts/TOKEN1.sol\":731:747  balances[_owner] */\n      0xffffffffffffffffffffffffffffffffffffffff\n      and\n      0xffffffffffffffffffffffffffffffffffffffff\n      and\n      dup2\n      mstore\n      0x20\n      add\n      swap1\n      dup2\n      mstore\n      0x20\n      add\n      0x00\n      keccak256\n      sload\n        /* \"contracts/TOKEN1.sol\":724:747  return balances[_owner] */\n      swap1\n      pop\n        /* \"contracts/TOKEN1.sol\":641:755  function balanceOf(address _owner) public view returns (uint256 balance){\r... */\n      swap2\n      swap1\n      pop\n      jump\t// out\n        /* \"contracts/TOKEN1.sol\":111:131  string public symbol */\n    tag_34:\n      0x01\n      dup1\n      sload\n      tag_58\n      swap1\n      tag_42\n      jump\t// in\n    tag_58:\n      dup1\n      0x1f\n      add\n      0x20\n      dup1\n      swap2\n      div\n      mul\n      0x20\n      add\n      mload(0x40)\n      swap1\n      dup2\n      add\n      0x40\n      mstore\n      dup1\n      swap3\n      swap2\n      swap1\n      dup2\n      dup2\n      mstore\n      0x20\n      add\n      dup3\n      dup1\n      sload\n      tag_59\n      swap1\n      tag_42\n      jump\t// in\n    tag_59:\n      dup1\n      iszero\n      tag_60\n      jumpi\n      dup1\n      0x1f\n      lt\n      tag_61\n      jumpi\n      0x0100\n      dup1\n      dup4\n      sload\n      div\n      mul\n      dup4\n      mstore\n      swap2\n      0x20\n      add\n      swap2\n      jump(tag_60)\n    tag_61:\n      dup3\n      add\n      swap2\n      swap1\n      0x00\n      mstore\n      keccak256(0x00, 0x20)\n      swap1\n    tag_62:\n      dup2\n      sload\n      dup2\n      mstore\n      swap1\n      0x01\n      add\n      swap1\n      0x20\n      add\n      dup1\n      dup4\n      gt\n      tag_62\n      jumpi\n      dup3\n      swap1\n      sub\n      0x1f\n      and\n      dup3\n      add\n      swap2\n    tag_60:\n      pop\n      pop\n      pop\n      pop\n      pop\n      dup2\n      jump\t// out\n        /* \"contracts/TOKEN1.sol\":763:1077  function transfer(address _to, uint256 _value) public returns (bool success){\r... */\n    tag_39:\n        /* \"contracts/TOKEN1.sol\":826:838  bool success */\n      0x00\n        /* \"contracts/TOKEN1.sol\":882:888  _value */\n      dup2\n        /* \"contracts/TOKEN1.sol\":858:866  balances */\n      0x03\n        /* \"contracts/TOKEN1.sol\":858:878  balances[msg.sender] */\n      0x00\n        /* \"contracts/TOKEN1.sol\":867:877  msg.sender */\n      caller\n        /* \"contracts/TOKEN1.sol\":858:878  balances[msg.sender] */\n      0xffffffffffffffffffffffffffffffffffffffff\n      and\n      0xffffffffffffffffffffffffffffffffffffffff\n      and\n      dup2\n      mstore\n      0x20\n      add\n      swap1\n      dup2\n      mstore\n      0x20\n      add\n      0x00\n      keccak256\n      sload\n        /* \"contracts/TOKEN1.sol\":858:888  balances[msg.sender] >= _value */\n      lt\n      iszero\n        /* \"contracts/TOKEN1.sol\":850:922  require(balances[msg.sender] >= _value, \"Not enough token to transfer.\") */\n      tag_64\n      jumpi\n      mload(0x40)\n      0x08c379a000000000000000000000000000000000000000000000000000000000\n      dup2\n      mstore\n      0x04\n      add\n      tag_65\n      swap1\n      tag_51\n      jump\t// in\n    tag_65:\n      mload(0x40)\n      dup1\n      swap2\n      sub\n      swap1\n      revert\n    tag_64:\n        /* \"contracts/TOKEN1.sol\":957:963  _value */\n      dup2\n        /* \"contracts/TOKEN1.sol\":933:941  balances */\n      0x03\n        /* \"contracts/TOKEN1.sol\":933:953  balances[msg.sender] */\n      0x00\n        /* \"contracts/TOKEN1.sol\":942:952  msg.sender */\n      caller\n        /* \"contracts/TOKEN1.sol\":933:953  balances[msg.sender] */\n      0xffffffffffffffffffffffffffffffffffffffff\n      and\n      0xffffffffffffffffffffffffffffffffffffffff\n      and\n      dup2\n      mstore\n      0x20\n      add\n      swap1\n      dup2\n      mstore\n      0x20\n      add\n      0x00\n      keccak256\n      0x00\n        /* \"contracts/TOKEN1.sol\":933:963  balances[msg.sender] -= _value */\n      dup3\n      dup3\n      sload\n      tag_66\n      swap2\n      swap1\n      tag_53\n      jump\t// in\n    tag_66:\n      swap3\n      pop\n      pop\n      dup2\n      swap1\n      sstore\n      pop\n        /* \"contracts/TOKEN1.sol\":991:997  _value */\n      dup2\n        /* \"contracts/TOKEN1.sol\":974:982  balances */\n      0x03\n        /* \"contracts/TOKEN1.sol\":974:987  balances[_to] */\n      0x00\n        /* \"contracts/TOKEN1.sol\":983:986  _to */\n      dup6\n        /* \"contracts/TOKEN1.sol\":974:987  balances[_to] */\n      0xffffffffffffffffffffffffffffffffffffffff\n      and\n      0xffffffffffffffffffffffffffffffffffffffff\n      and\n      dup2\n      mstore\n      0x20\n      add\n      swap1\n      dup2\n      mstore\n      0x20\n      add\n      0x00\n      keccak256\n      0x00\n        /* \"contracts/TOKEN1.sol\":974:997  balances[_to] += _value */\n      dup3\n      dup3\n      sload\n      tag_67\n      swap2\n      swap1\n      tag_55\n      jump\t// in\n    tag_67:\n      swap3\n      pop\n      pop\n      dup2\n      swap1\n      sstore\n      pop\n        /* \"contracts/TOKEN1.sol\":1034:1037  _to */\n      dup3\n        /* \"contracts/TOKEN1.sol\":1013:1046  Transfer(msg.sender, _to, _value) */\n      0xffffffffffffffffffffffffffffffffffffffff\n      and\n        /* \"contracts/TOKEN1.sol\":1022:1032  msg.sender */\n      caller\n        /* \"contracts/TOKEN1.sol\":1013:1046  Transfer(msg.sender, _to, _value) */\n      0xffffffffffffffffffffffffffffffffffffffff\n      and\n      0xddf252ad1be2c89b69c2b068fc378daa952ba7f163c4a11628f55a4df523b3ef\n        /* \"contracts/TOKEN1.sol\":1039:1045  _value */\n      dup5\n        /* \"contracts/TOKEN1.sol\":1013:1046  Transfer(msg.sender, _to, _value) */\n      mload(0x40)\n      tag_68\n      swap2\n      swap1\n      tag_18\n      jump\t// in\n    tag_68:\n      mload(0x40)\n      dup1\n      swap2\n      sub\n      swap1\n      log3\n        /* \"contracts/TOKEN1.sol\":1064:1068  true */\n      0x01\n        /* \"contracts/TOKEN1.sol\":1057:1068  return true */\n      swap1\n      pop\n        /* \"contracts/TOKEN1.sol\":763:1077  function transfer(address _to, uint256 _value) public returns (bool success){\r... */\n      swap3\n      swap2\n      pop\n      pop\n      jump\t// out\n        /* \"#utility.yul\":7:146   */\n    tag_70:\n        /* \"#utility.yul\":53:58   */\n      0x00\n        /* \"#utility.yul\":91:97   */\n      dup2\n        /* \"#utility.yul\":78:98   */\n      calldataload\n        /* \"#utility.yul\":69:98   */\n      swap1\n      pop\n        /* \"#utility.yul\":107:140   */\n      tag_72\n        /* \"#utility.yul\":134:139   */\n      dup2\n        /* \"#utility.yul\":107:140   */\n      tag_73\n      jump\t// in\n    tag_72:\n        /* \"#utility.yul\":7:146   */\n      swap3\n      swap2\n      pop\n      pop\n      jump\t// out\n        /* \"#utility.yul\":152:291   */\n    tag_74:\n        /* \"#utility.yul\":198:203   */\n      0x00\n        /* \"#utility.yul\":236:242   */\n      dup2\n        /* \"#utility.yul\":223:243   */\n      calldataload\n        /* \"#utility.yul\":214:243   */\n      swap1\n      pop\n        /* \"#utility.yul\":252:285   */\n      tag_76\n        /* \"#utility.yul\":279:284   */\n      dup2\n        /* \"#utility.yul\":252:285   */\n      tag_77\n      jump\t// in\n    tag_76:\n        /* \"#utility.yul\":152:291   */\n      swap3\n      swap2\n      pop\n      pop\n      jump\t// out\n        /* \"#utility.yul\":297:626   */\n    tag_30:\n        /* \"#utility.yul\":356:362   */\n      0x00\n        /* \"#utility.yul\":405:407   */\n      0x20\n        /* \"#utility.yul\":393:402   */\n      dup3\n        /* \"#utility.yul\":384:391   */\n      dup5\n        /* \"#utility.yul\":380:403   */\n      sub\n        /* \"#utility.yul\":376:408   */\n      slt\n        /* \"#utility.yul\":373:492   */\n      iszero\n      tag_79\n      jumpi\n        /* \"#utility.yul\":411:490   */\n      tag_80\n      tag_81\n      jump\t// in\n    tag_80:\n        /* \"#utility.yul\":373:492   */\n    tag_79:\n        /* \"#utility.yul\":531:532   */\n      0x00\n        /* \"#utility.yul\":556:609   */\n      tag_82\n        /* \"#utility.yul\":601:608   */\n      dup5\n        /* \"#utility.yul\":592:598   */\n      dup3\n        /* \"#utility.yul\":581:590   */\n      dup6\n        /* \"#utility.yul\":577:599   */\n      add\n        /* \"#utility.yul\":556:609   */\n      tag_70\n      jump\t// in\n    tag_82:\n        /* \"#utility.yul\":546:609   */\n      swap2\n      pop\n        /* \"#utility.yul\":502:619   */\n      pop\n        /* \"#utility.yul\":297:626   */\n      swap3\n      swap2\n      pop\n      pop\n      jump\t// out\n        /* \"#utility.yul\":632:1251   */\n    tag_21:\n        /* \"#utility.yul\":709:715   */\n      0x00\n        /* \"#utility.yul\":717:723   */\n      dup1\n        /* \"#utility.yul\":725:731   */\n      0x00\n        /* \"#utility.yul\":774:776   */\n      0x60\n        /* \"#utility.yul\":762:771   */\n      dup5\n        /* \"#utility.yul\":753:760   */\n      dup7\n        /* \"#utility.yul\":749:772   */\n      sub\n        /* \"#utility.yul\":745:777   */\n      slt\n        /* \"#utility.yul\":742:861   */\n      iszero\n      tag_84\n      jumpi\n        /* \"#utility.yul\":780:859   */\n      tag_85\n      tag_81\n      jump\t// in\n    tag_85:\n        /* \"#utility.yul\":742:861   */\n    tag_84:\n        /* \"#utility.yul\":900:901   */\n      0x00\n        /* \"#utility.yul\":925:978   */\n      tag_86\n        /* \"#utility.yul\":970:977   */\n      dup7\n        /* \"#utility.yul\":961:967   */\n      dup3\n        /* \"#utility.yul\":950:959   */\n      dup8\n        /* \"#utility.yul\":946:968   */\n      add\n        /* \"#utility.yul\":925:978   */\n      tag_70\n      jump\t// in\n    tag_86:\n        /* \"#utility.yul\":915:978   */\n      swap4\n      pop\n        /* \"#utility.yul\":871:988   */\n      pop\n        /* \"#utility.yul\":1027:1029   */\n      0x20\n        /* \"#utility.yul\":1053:1106   */\n      tag_87\n        /* \"#utility.yul\":1098:1105   */\n      dup7\n        /* \"#utility.yul\":1089:1095   */\n      dup3\n        /* \"#utility.yul\":1078:1087   */\n      dup8\n        /* \"#utility.yul\":1074:1096   */\n      add\n        /* \"#utility.yul\":1053:1106   */\n      tag_70\n      jump\t// in\n    tag_87:\n        /* \"#utility.yul\":1043:1106   */\n      swap3\n      pop\n        /* \"#utility.yul\":998:1116   */\n      pop\n        /* \"#utility.yul\":1155:1157   */\n      0x40\n        /* \"#utility.yul\":1181:1234   */\n      tag_88\n        /* \"#utility.yul\":1226:1233   */\n      dup7\n        /* \"#utility.yul\":1217:1223   */\n      dup3\n        /* \"#utility.yul\":1206:1215   */\n      dup8\n        /* \"#utility.yul\":1202:1224   */\n      add\n        /* \"#utility.yul\":1181:1234   */\n      tag_74\n      jump\t// in\n    tag_88:\n        /* \"#utility.yul\":1171:1234   */\n      swap2\n      pop\n        /* \"#utility.yul\":1126:1244   */\n      pop\n        /* \"#utility.yul\":632:1251   */\n      swap3\n      pop\n      swap3\n      pop\n      swap3\n      jump\t// out\n        /* \"#utility.yul\":1257:1731   */\n    tag_38:\n        /* \"#utility.yul\":1325:1331   */\n      0x00\n        /* \"#utility.yul\":1333:1339   */\n      dup1\n        /* \"#utility.yul\":1382:1384   */\n      0x40\n        /* \"#utility.yul\":1370:1379   */\n      dup4\n        /* \"#utility.yul\":1361:1368   */\n      dup6\n        /* \"#utility.yul\":1357:1380   */\n      sub\n        /* \"#utility.yul\":1353:1385   */\n      slt\n        /* \"#utility.yul\":1350:1469   */\n      iszero\n      tag_90\n      jumpi\n        /* \"#utility.yul\":1388:1467   */\n      tag_91\n      tag_81\n      jump\t// in\n    tag_91:\n        /* \"#utility.yul\":1350:1469   */\n    tag_90:\n        /* \"#utility.yul\":1508:1509   */\n      0x00\n        /* \"#utility.yul\":1533:1586   */\n      tag_92\n        /* \"#utility.yul\":1578:1585   */\n      dup6\n        /* \"#utility.yul\":1569:1575   */\n      dup3\n        /* \"#utility.yul\":1558:1567   */\n      dup7\n        /* \"#utility.yul\":1554:1576   */\n      add\n        /* \"#utility.yul\":1533:1586   */\n      tag_70\n      jump\t// in\n    tag_92:\n        /* \"#utility.yul\":1523:1586   */\n      swap3\n      pop\n        /* \"#utility.yul\":1479:1596   */\n      pop\n        /* \"#utility.yul\":1635:1637   */\n      0x20\n        /* \"#utility.yul\":1661:1714   */\n      tag_93\n        /* \"#utility.yul\":1706:1713   */\n      dup6\n        /* \"#utility.yul\":1697:1703   */\n      dup3\n        /* \"#utility.yul\":1686:1695   */\n      dup7\n        /* \"#utility.yul\":1682:1704   */\n      add\n        /* \"#utility.yul\":1661:1714   */\n      tag_74\n      jump\t// in\n    tag_93:\n        /* \"#utility.yul\":1651:1714   */\n      swap2\n      pop\n        /* \"#utility.yul\":1606:1724   */\n      pop\n        /* \"#utility.yul\":1257:1731   */\n      swap3\n      pop\n      swap3\n      swap1\n      pop\n      jump\t// out\n        /* \"#utility.yul\":1737:1846   */\n    tag_94:\n        /* \"#utility.yul\":1818:1839   */\n      tag_96\n        /* \"#utility.yul\":1833:1838   */\n      dup2\n        /* \"#utility.yul\":1818:1839   */\n      tag_97\n      jump\t// in\n    tag_96:\n        /* \"#utility.yul\":1813:1816   */\n      dup3\n        /* \"#utility.yul\":1806:1840   */\n      mstore\n        /* \"#utility.yul\":1737:1846   */\n      pop\n      pop\n      jump\t// out\n        /* \"#utility.yul\":1852:2216   */\n    tag_98:\n        /* \"#utility.yul\":1940:1943   */\n      0x00\n        /* \"#utility.yul\":1968:2007   */\n      tag_100\n        /* \"#utility.yul\":2001:2006   */\n      dup3\n        /* \"#utility.yul\":1968:2007   */\n      tag_101\n      jump\t// in\n    tag_100:\n        /* \"#utility.yul\":2023:2094   */\n      tag_102\n        /* \"#utility.yul\":2087:2093   */\n      dup2\n        /* \"#utility.yul\":2082:2085   */\n      dup6\n        /* \"#utility.yul\":2023:2094   */\n      tag_103\n      jump\t// in\n    tag_102:\n        /* \"#utility.yul\":2016:2094   */\n      swap4\n      pop\n        /* \"#utility.yul\":2103:2155   */\n      tag_104\n        /* \"#utility.yul\":2148:2154   */\n      dup2\n        /* \"#utility.yul\":2143:2146   */\n      dup6\n        /* \"#utility.yul\":2136:2140   */\n      0x20\n        /* \"#utility.yul\":2129:2134   */\n      dup7\n        /* \"#utility.yul\":2125:2141   */\n      add\n        /* \"#utility.yul\":2103:2155   */\n      tag_105\n      jump\t// in\n    tag_104:\n        /* \"#utility.yul\":2180:2209   */\n      tag_106\n        /* \"#utility.yul\":2202:2208   */\n      dup2\n        /* \"#utility.yul\":2180:2209   */\n      tag_107\n      jump\t// in\n    tag_106:\n        /* \"#utility.yul\":2175:2178   */\n      dup5\n        /* \"#utility.yul\":2171:2210   */\n      add\n        /* \"#utility.yul\":2164:2210   */\n      swap2\n      pop\n        /* \"#utility.yul\":1944:2216   */\n      pop\n        /* \"#utility.yul\":1852:2216   */\n      swap3\n      swap2\n      pop\n      pop\n      jump\t// out\n        /* \"#utility.yul\":2222:2588   */\n    tag_108:\n        /* \"#utility.yul\":2364:2367   */\n      0x00\n        /* \"#utility.yul\":2385:2452   */\n      tag_110\n        /* \"#utility.yul\":2449:2451   */\n      0x1d\n        /* \"#utility.yul\":2444:2447   */\n      dup4\n        /* \"#utility.yul\":2385:2452   */\n      tag_103\n      jump\t// in\n    tag_110:\n        /* \"#utility.yul\":2378:2452   */\n      swap2\n      pop\n        /* \"#utility.yul\":2461:2554   */\n      tag_111\n        /* \"#utility.yul\":2550:2553   */\n      dup3\n        /* \"#utility.yul\":2461:2554   */\n      tag_112\n      jump\t// in\n    tag_111:\n        /* \"#utility.yul\":2579:2581   */\n      0x20\n        /* \"#utility.yul\":2574:2577   */\n      dup3\n        /* \"#utility.yul\":2570:2582   */\n      add\n        /* \"#utility.yul\":2563:2582   */\n      swap1\n      pop\n        /* \"#utility.yul\":2222:2588   */\n      swap2\n      swap1\n      pop\n      jump\t// out\n        /* \"#utility.yul\":2594:2712   */\n    tag_113:\n        /* \"#utility.yul\":2681:2705   */\n      tag_115\n        /* \"#utility.yul\":2699:2704   */\n      dup2\n        /* \"#utility.yul\":2681:2705   */\n      tag_116\n      jump\t// in\n    tag_115:\n        /* \"#utility.yul\":2676:2679   */\n      dup3\n        /* \"#utility.yul\":2669:2706   */\n      mstore\n        /* \"#utility.yul\":2594:2712   */\n      pop\n      pop\n      jump\t// out\n        /* \"#utility.yul\":2718:2928   */\n    tag_24:\n        /* \"#utility.yul\":2805:2809   */\n      0x00\n        /* \"#utility.yul\":2843:2845   */\n      0x20\n        /* \"#utility.yul\":2832:2841   */\n      dup3\n        /* \"#utility.yul\":2828:2846   */\n      add\n        /* \"#utility.yul\":2820:2846   */\n      swap1\n      pop\n        /* \"#utility.yul\":2856:2921   */\n      tag_118\n        /* \"#utility.yul\":2918:2919   */\n      0x00\n        /* \"#utility.yul\":2907:2916   */\n      dup4\n        /* \"#utility.yul\":2903:2920   */\n      add\n        /* \"#utility.yul\":2894:2900   */\n      dup5\n        /* \"#utility.yul\":2856:2921   */\n      tag_94\n      jump\t// in\n    tag_118:\n        /* \"#utility.yul\":2718:2928   */\n      swap3\n      swap2\n      pop\n      pop\n      jump\t// out\n        /* \"#utility.yul\":2934:3247   */\n    tag_14:\n        /* \"#utility.yul\":3047:3051   */\n      0x00\n        /* \"#utility.yul\":3085:3087   */\n      0x20\n        /* \"#utility.yul\":3074:3083   */\n      dup3\n        /* \"#utility.yul\":3070:3088   */\n      add\n        /* \"#utility.yul\":3062:3088   */\n      swap1\n      pop\n        /* \"#utility.yul\":3134:3143   */\n      dup2\n        /* \"#utility.yul\":3128:3132   */\n      dup2\n        /* \"#utility.yul\":3124:3144   */\n      sub\n        /* \"#utility.yul\":3120:3121   */\n      0x00\n        /* \"#utility.yul\":3109:3118   */\n      dup4\n        /* \"#utility.yul\":3105:3122   */\n      add\n        /* \"#utility.yul\":3098:3145   */\n      mstore\n        /* \"#utility.yul\":3162:3240   */\n      tag_120\n        /* \"#utility.yul\":3235:3239   */\n      dup2\n        /* \"#utility.yul\":3226:3232   */\n      dup5\n        /* \"#utility.yul\":3162:3240   */\n      tag_98\n      jump\t// in\n    tag_120:\n        /* \"#utility.yul\":3154:3240   */\n      swap1\n      pop\n        /* \"#utility.yul\":2934:3247   */\n      swap3\n      swap2\n      pop\n      pop\n      jump\t// out\n        /* \"#utility.yul\":3253:3672   */\n    tag_51:\n        /* \"#utility.yul\":3419:3423   */\n      0x00\n        /* \"#utility.yul\":3457:3459   */\n      0x20\n        /* \"#utility.yul\":3446:3455   */\n      dup3\n        /* \"#utility.yul\":3442:3460   */\n      add\n        /* \"#utility.yul\":3434:3460   */\n      swap1\n      pop\n        /* \"#utility.yul\":3506:3515   */\n      dup2\n        /* \"#utility.yul\":3500:3504   */\n      dup2\n        /* \"#utility.yul\":3496:3516   */\n      sub\n        /* \"#utility.yul\":3492:3493   */\n      0x00\n        /* \"#utility.yul\":3481:3490   */\n      dup4\n        /* \"#utility.yul\":3477:3494   */\n      add\n        /* \"#utility.yul\":3470:3517   */\n      mstore\n        /* \"#utility.yul\":3534:3665   */\n      tag_122\n        /* \"#utility.yul\":3660:3664   */\n      dup2\n        /* \"#utility.yul\":3534:3665   */\n      tag_108\n      jump\t// in\n    tag_122:\n        /* \"#utility.yul\":3526:3665   */\n      swap1\n      pop\n        /* \"#utility.yul\":3253:3672   */\n      swap2\n      swap1\n      pop\n      jump\t// out\n        /* \"#utility.yul\":3678:3900   */\n    tag_18:\n        /* \"#utility.yul\":3771:3775   */\n      0x00\n        /* \"#utility.yul\":3809:3811   */\n      0x20\n        /* \"#utility.yul\":3798:3807   */\n      dup3\n        /* \"#utility.yul\":3794:3812   */\n      add\n        /* \"#utility.yul\":3786:3812   */\n      swap1\n      pop\n        /* \"#utility.yul\":3822:3893   */\n      tag_124\n        /* \"#utility.yul\":3890:3891   */\n      0x00\n        /* \"#utility.yul\":3879:3888   */\n      dup4\n        /* \"#utility.yul\":3875:3892   */\n      add\n        /* \"#utility.yul\":3866:3872   */\n      dup5\n        /* \"#utility.yul\":3822:3893   */\n      tag_113\n      jump\t// in\n    tag_124:\n        /* \"#utility.yul\":3678:3900   */\n      swap3\n      swap2\n      pop\n      pop\n      jump\t// out\n        /* \"#utility.yul\":3987:4086   */\n    tag_101:\n        /* \"#utility.yul\":4039:4045   */\n      0x00\n        /* \"#utility.yul\":4073:4078   */\n      dup2\n        /* \"#utility.yul\":4067:4079   */\n      mload\n        /* \"#utility.yul\":4057:4079   */\n      swap1\n      pop\n        /* \"#utility.yul\":3987:4086   */\n      swap2\n      swap1\n      pop\n      jump\t// out\n        /* \"#utility.yul\":4092:4261   */\n    tag_103:\n        /* \"#utility.yul\":4176:4187   */\n      0x00\n        /* \"#utility.yul\":4210:4216   */\n      dup3\n        /* \"#utility.yul\":4205:4208   */\n      dup3\n        /* \"#utility.yul\":4198:4217   */\n      mstore\n        /* \"#utility.yul\":4250:4254   */\n      0x20\n        /* \"#utility.yul\":4245:4248   */\n      dup3\n        /* \"#utility.yul\":4241:4255   */\n      add\n        /* \"#utility.yul\":4226:4255   */\n      swap1\n      pop\n        /* \"#utility.yul\":4092:4261   */\n      swap3\n      swap2\n      pop\n      pop\n      jump\t// out\n        /* \"#utility.yul\":4267:4572   */\n    tag_55:\n        /* \"#utility.yul\":4307:4310   */\n      0x00\n        /* \"#utility.yul\":4326:4346   */\n      tag_130\n        /* \"#utility.yul\":4344:4345   */\n      dup3\n        /* \"#utility.yul\":4326:4346   */\n      tag_116\n      jump\t// in\n    tag_130:\n        /* \"#utility.yul\":4321:4346   */\n      swap2\n      pop\n        /* \"#utility.yul\":4360:4380   */\n      tag_131\n        /* \"#utility.yul\":4378:4379   */\n      dup4\n        /* \"#utility.yul\":4360:4380   */\n      tag_116\n      jump\t// in\n    tag_131:\n        /* \"#utility.yul\":4355:4380   */\n      swap3\n      pop\n        /* \"#utility.yul\":4514:4515   */\n      dup3\n        /* \"#utility.yul\":4446:4512   */\n      0xffffffffffffffffffffffffffffffffffffffffffffffffffffffffffffffff\n        /* \"#utility.yul\":4442:4516   */\n      sub\n        /* \"#utility.yul\":4439:4440   */\n      dup3\n        /* \"#utility.yul\":4436:4517   */\n      gt\n        /* \"#utility.yul\":4433:4540   */\n      iszero\n      tag_132\n      jumpi\n        /* \"#utility.yul\":4520:4538   */\n      tag_133\n      tag_134\n      jump\t// in\n    tag_133:\n        /* \"#utility.yul\":4433:4540   */\n    tag_132:\n        /* \"#utility.yul\":4564:4565   */\n      dup3\n        /* \"#utility.yul\":4561:4562   */\n      dup3\n        /* \"#utility.yul\":4557:4566   */\n      add\n        /* \"#utility.yul\":4550:4566   */\n      swap1\n      pop\n        /* \"#utility.yul\":4267:4572   */\n      swap3\n      swap2\n      pop\n      pop\n      jump\t// out\n        /* \"#utility.yul\":4578:4769   */\n    tag_53:\n        /* \"#utility.yul\":4618:4622   */\n      0x00\n        /* \"#utility.yul\":4638:4658   */\n      tag_136\n        /* \"#utility.yul\":4656:4657   */\n      dup3\n        /* \"#utility.yul\":4638:4658   */\n      tag_116\n      jump\t// in\n    tag_136:\n        /* \"#utility.yul\":4633:4658   */\n      swap2\n      pop\n        /* \"#utility.yul\":4672:4692   */\n      tag_137\n        /* \"#utility.yul\":4690:4691   */\n      dup4\n        /* \"#utility.yul\":4672:4692   */\n      tag_116\n      jump\t// in\n    tag_137:\n        /* \"#utility.yul\":4667:4692   */\n      swap3\n      pop\n        /* \"#utility.yul\":4711:4712   */\n      dup3\n        /* \"#utility.yul\":4708:4709   */\n      dup3\n        /* \"#utility.yul\":4705:4713   */\n      lt\n        /* \"#utility.yul\":4702:4736   */\n      iszero\n      tag_138\n      jumpi\n        /* \"#utility.yul\":4716:4734   */\n      tag_139\n      tag_134\n      jump\t// in\n    tag_139:\n        /* \"#utility.yul\":4702:4736   */\n    tag_138:\n        /* \"#utility.yul\":4761:4762   */\n      dup3\n        /* \"#utility.yul\":4758:4759   */\n      dup3\n        /* \"#utility.yul\":4754:4763   */\n      sub\n        /* \"#utility.yul\":4746:4763   */\n      swap1\n      pop\n        /* \"#utility.yul\":4578:4769   */\n      swap3\n      swap2\n      pop\n      pop\n      jump\t// out\n        /* \"#utility.yul\":4775:4871   */\n    tag_140:\n        /* \"#utility.yul\":4812:4819   */\n      0x00\n        /* \"#utility.yul\":4841:4865   */\n      tag_142\n        /* \"#utility.yul\":4859:4864   */\n      dup3\n        /* \"#utility.yul\":4841:4865   */\n      tag_143\n      jump\t// in\n    tag_142:\n        /* \"#utility.yul\":4830:4865   */\n      swap1\n      pop\n        /* \"#utility.yul\":4775:4871   */\n      swap2\n      swap1\n      pop\n      jump\t// out\n        /* \"#utility.yul\":4877:4967   */\n    tag_97:\n        /* \"#utility.yul\":4911:4918   */\n      0x00\n        /* \"#utility.yul\":4954:4959   */\n      dup2\n        /* \"#utility.yul\":4947:4960   */\n      iszero\n        /* \"#utility.yul\":4940:4961   */\n      iszero\n        /* \"#utility.yul\":4929:4961   */\n      swap1\n      pop\n        /* \"#utility.yul\":4877:4967   */\n      swap2\n      swap1\n      pop\n      jump\t// out\n        /* \"#utility.yul\":4973:5099   */\n    tag_143:\n        /* \"#utility.yul\":5010:5017   */\n      0x00\n        /* \"#utility.yul\":5050:5092   */\n      0xffffffffffffffffffffffffffffffffffffffff\n        /* \"#utility.yul\":5043:5048   */\n      dup3\n        /* \"#utility.yul\":5039:5093   */\n      and\n        /* \"#utility.yul\":5028:5093   */\n      swap1\n      pop\n        /* \"#utility.yul\":4973:5099   */\n      swap2\n      swap1\n      pop\n      jump\t// out\n        /* \"#utility.yul\":5105:5182   */\n    tag_116:\n        /* \"#utility.yul\":5142:5149   */\n      0x00\n        /* \"#utility.yul\":5171:5176   */\n      dup2\n        /* \"#utility.yul\":5160:5176   */\n      swap1\n      pop\n        /* \"#utility.yul\":5105:5182   */\n      swap2\n      swap1\n      pop\n      jump\t// out\n        /* \"#utility.yul\":5188:5495   */\n    tag_105:\n        /* \"#utility.yul\":5256:5257   */\n      0x00\n        /* \"#utility.yul\":5266:5379   */\n    tag_148:\n        /* \"#utility.yul\":5280:5286   */\n      dup4\n        /* \"#utility.yul\":5277:5278   */\n      dup2\n        /* \"#utility.yul\":5274:5287   */\n      lt\n        /* \"#utility.yul\":5266:5379   */\n      iszero\n      tag_150\n      jumpi\n        /* \"#utility.yul\":5365:5366   */\n      dup1\n        /* \"#utility.yul\":5360:5363   */\n      dup3\n        /* \"#utility.yul\":5356:5367   */\n      add\n        /* \"#utility.yul\":5350:5368   */\n      mload\n        /* \"#utility.yul\":5346:5347   */\n      dup2\n        /* \"#utility.yul\":5341:5344   */\n      dup5\n        /* \"#utility.yul\":5337:5348   */\n      add\n        /* \"#utility.yul\":5330:5369   */\n      mstore\n        /* \"#utility.yul\":5302:5304   */\n      0x20\n        /* \"#utility.yul\":5299:5300   */\n      dup2\n        /* \"#utility.yul\":5295:5305   */\n      add\n        /* \"#utility.yul\":5290:5305   */\n      swap1\n      pop\n        /* \"#utility.yul\":5266:5379   */\n      jump(tag_148)\n    tag_150:\n        /* \"#utility.yul\":5397:5403   */\n      dup4\n        /* \"#utility.yul\":5394:5395   */\n      dup2\n        /* \"#utility.yul\":5391:5404   */\n      gt\n        /* \"#utility.yul\":5388:5489   */\n      iszero\n      tag_151\n      jumpi\n        /* \"#utility.yul\":5477:5478   */\n      0x00\n        /* \"#utility.yul\":5468:5474   */\n      dup5\n        /* \"#utility.yul\":5463:5466   */\n      dup5\n        /* \"#utility.yul\":5459:5475   */\n      add\n        /* \"#utility.yul\":5452:5479   */\n      mstore\n        /* \"#utility.yul\":5388:5489   */\n    tag_151:\n        /* \"#utility.yul\":5237:5495   */\n      pop\n        /* \"#utility.yul\":5188:5495   */\n      pop\n      pop\n      pop\n      jump\t// out\n        /* \"#utility.yul\":5501:5821   */\n    tag_42:\n        /* \"#utility.yul\":5545:5551   */\n      0x00\n        /* \"#utility.yul\":5582:5583   */\n      0x02\n        /* \"#utility.yul\":5576:5580   */\n      dup3\n        /* \"#utility.yul\":5572:5584   */\n      div\n        /* \"#utility.yul\":5562:5584   */\n      swap1\n      pop\n        /* \"#utility.yul\":5629:5630   */\n      0x01\n        /* \"#utility.yul\":5623:5627   */\n      dup3\n        /* \"#utility.yul\":5619:5631   */\n      and\n        /* \"#utility.yul\":5650:5668   */\n      dup1\n        /* \"#utility.yul\":5640:5721   */\n      tag_153\n      jumpi\n        /* \"#utility.yul\":5706:5710   */\n      0x7f\n        /* \"#utility.yul\":5698:5704   */\n      dup3\n        /* \"#utility.yul\":5694:5711   */\n      and\n        /* \"#utility.yul\":5684:5711   */\n      swap2\n      pop\n        /* \"#utility.yul\":5640:5721   */\n    tag_153:\n        /* \"#utility.yul\":5768:5770   */\n      0x20\n        /* \"#utility.yul\":5760:5766   */\n      dup3\n        /* \"#utility.yul\":5757:5771   */\n      lt\n        /* \"#utility.yul\":5737:5755   */\n      dup2\n        /* \"#utility.yul\":5734:5772   */\n      eq\n        /* \"#utility.yul\":5731:5815   */\n      iszero\n      tag_154\n      jumpi\n        /* \"#utility.yul\":5787:5805   */\n      tag_155\n      tag_156\n      jump\t// in\n    tag_155:\n        /* \"#utility.yul\":5731:5815   */\n    tag_154:\n        /* \"#utility.yul\":5552:5821   */\n      pop\n        /* \"#utility.yul\":5501:5821   */\n      swap2\n      swap1\n      pop\n      jump\t// out\n        /* \"#utility.yul\":5827:6007   */\n    tag_134:\n        /* \"#utility.yul\":5875:5952   */\n      0x4e487b7100000000000000000000000000000000000000000000000000000000\n        /* \"#utility.yul\":5872:5873   */\n      0x00\n        /* \"#utility.yul\":5865:5953   */\n      mstore\n        /* \"#utility.yul\":5972:5976   */\n      0x11\n        /* \"#utility.yul\":5969:5970   */\n      0x04\n        /* \"#utility.yul\":5962:5977   */\n      mstore\n        /* \"#utility.yul\":5996:6000   */\n      0x24\n        /* \"#utility.yul\":5993:5994   */\n      0x00\n        /* \"#utility.yul\":5986:6001   */\n      revert\n        /* \"#utility.yul\":6013:6193   */\n    tag_156:\n        /* \"#utility.yul\":6061:6138   */\n      0x4e487b7100000000000000000000000000000000000000000000000000000000\n        /* \"#utility.yul\":6058:6059   */\n      0x00\n        /* \"#utility.yul\":6051:6139   */\n      mstore\n        /* \"#utility.yul\":6158:6162   */\n      0x22\n        /* \"#utility.yul\":6155:6156   */\n      0x04\n        /* \"#utility.yul\":6148:6163   */\n      mstore\n        /* \"#utility.yul\":6182:6186   */\n      0x24\n        /* \"#utility.yul\":6179:6180   */\n      0x00\n        /* \"#utility.yul\":6172:6187   */\n      revert\n        /* \"#utility.yul\":6322:6439   */\n    tag_81:\n        /* \"#utility.yul\":6431:6432   */\n      0x00\n        /* \"#utility.yul\":6428:6429   */\n      dup1\n        /* \"#utility.yul\":6421:6433   */\n      revert\n        /* \"#utility.yul\":6445:6547   */\n    tag_107:\n        /* \"#utility.yul\":6486:6492   */\n      0x00\n        /* \"#utility.yul\":6537:6539   */\n      0x1f\n        /* \"#utility.yul\":6533:6540   */\n      not\n        /* \"#utility.yul\":6528:6530   */\n      0x1f\n        /* \"#utility.yul\":6521:6526   */\n      dup4\n        /* \"#utility.yul\":6517:6531   */\n      add\n        /* \"#utility.yul\":6513:6541   */\n      and\n        /* \"#utility.yul\":6503:6541   */\n      swap1\n      pop\n        /* \"#utility.yul\":6445:6547   */\n      swap2\n      swap1\n      pop\n      jump\t// out\n        /* \"#utility.yul\":6553:6732   */\n    tag_112:\n        /* \"#utility.yul\":6693:6724   */\n      0x4e6f7420656e6f75676820746f6b656e20746f207472616e736665722e000000\n        /* \"#utility.yul\":6689:6690   */\n      0x00\n        /* \"#utility.yul\":6681:6687   */\n      dup3\n        /* \"#utility.yul\":6677:6691   */\n      add\n        /* \"#utility.yul\":6670:6725   */\n      mstore\n        /* \"#utility.yul\":6553:6732   */\n      pop\n      jump\t// out\n        /* \"#utility.yul\":6738:6860   */\n    tag_73:\n        /* \"#utility.yul\":6811:6835   */\n      tag_165\n        /* \"#utility.yul\":6829:6834   */\n      dup2\n        /* \"#utility.yul\":6811:6835   */\n      tag_140\n      jump\t// in\n    tag_165:\n        /* \"#utility.yul\":6804:6809   */\n      dup2\n        /* \"#utility.yul\":6801:6836   */\n      eq\n        /* \"#utility.yul\":6791:6854   */\n      tag_166\n      jumpi\n        /* \"#utility.yul\":6850:6851   */\n      0x00\n        /* \"#utility.yul\":6847:6848   */\n      dup1\n        /* \"#utility.yul\":6840:6852   */\n      revert\n        /* \"#utility.yul\":6791:6854   */\n    tag_166:\n        /* \"#utility.yul\":6738:6860   */\n      pop\n      jump\t// out\n        /* \"#utility.yul\":6866:6988   */\n    tag_77:\n        /* \"#utility.yul\":6939:6963   */\n      tag_168\n        /* \"#utility.yul\":6957:6962   */\n      dup2\n        /* \"#utility.yul\":6939:6963   */\n      tag_116\n      jump\t// in\n    tag_168:\n        /* \"#utility.yul\":6932:6937   */\n      dup2\n        /* \"#utility.yul\":6929:6964   */\n      eq\n        /* \"#utility.yul\":6919:6982   */\n      tag_169\n      jumpi\n        /* \"#utility.yul\":6978:6979   */\n      0x00\n        /* \"#utility.yul\":6975:6976   */\n      dup1\n        /* \"#utility.yul\":6968:6980   */\n      revert\n        /* \"#utility.yul\":6919:6982   */\n    tag_169:\n        /* \"#utility.yul\":6866:6988   */\n      pop\n      jump\t// out\n\n    auxdata: 0xa2646970667358221220efefb85cc0a9237f5b017dc52f5799b4641b4e85723dbd5cd69dd66e25ede41164736f6c63430008070033\n}\n",
				"bytecode": {
					"linkReferences": {},
					"object": "60806040523480156200001157600080fd5b5060405162000f3e38038062000f3e83398181016040528101906200003791906200027d565b81600090805190602001906200004f9291906200014f565b508060019080519060200190620000689291906200014f565b506012600281905550620000816200014360201b60201c565b600360003373ffffffffffffffffffffffffffffffffffffffff1673ffffffffffffffffffffffffffffffffffffffff168152602001908152602001600020819055503373ffffffffffffffffffffffffffffffffffffffff16600073ffffffffffffffffffffffffffffffffffffffff167fddf252ad1be2c89b69c2b068fc378daa952ba7f163c4a11628f55a4df523b3ef620001246200014360201b60201c565b60405162000133919062000313565b60405180910390a35050620004be565b6000633b9aca00905090565b8280546200015d90620003cf565b90600052602060002090601f016020900481019282620001815760008555620001cd565b82601f106200019c57805160ff1916838001178555620001cd565b82800160010185558215620001cd579182015b82811115620001cc578251825591602001919060010190620001af565b5b509050620001dc9190620001e0565b5090565b5b80821115620001fb576000816000905550600101620001e1565b5090565b600062000216620002108462000359565b62000330565b9050828152602081018484840111156200023557620002346200049e565b5b6200024284828562000399565b509392505050565b600082601f83011262000262576200026162000499565b5b815162000274848260208601620001ff565b91505092915050565b60008060408385031215620002975762000296620004a8565b5b600083015167ffffffffffffffff811115620002b857620002b7620004a3565b5b620002c6858286016200024a565b925050602083015167ffffffffffffffff811115620002ea57620002e9620004a3565b5b620002f8858286016200024a565b9150509250929050565b6200030d816200038f565b82525050565b60006020820190506200032a600083018462000302565b92915050565b60006200033c6200034f565b90506200034a828262000405565b919050565b6000604051905090565b600067ffffffffffffffff8211156200037757620003766200046a565b5b6200038282620004ad565b9050602081019050919050565b6000819050919050565b60005b83811015620003b95780820151818401526020810190506200039c565b83811115620003c9576000848401525b50505050565b60006002820490506001821680620003e857607f821691505b60208210811415620003ff57620003fe6200043b565b5b50919050565b6200041082620004ad565b810181811067ffffffffffffffff821117156200043257620004316200046a565b5b80604052505050565b7f4e487b7100000000000000000000000000000000000000000000000000000000600052602260045260246000fd5b7f4e487b7100000000000000000000000000000000000000000000000000000000600052604160045260246000fd5b600080fd5b600080fd5b600080fd5b600080fd5b6000601f19601f8301169050919050565b610a7080620004ce6000396000f3fe608060405234801561001057600080fd5b506004361061007d5760003560e01c8063313ce5671161005b578063313ce567146100ee57806370a082311461010c57806395d89b411461013c578063a9059cbb1461015a5761007d565b806306fdde031461008257806318160ddd146100a057806323b872dd146100be575b600080fd5b61008a61018a565b60405161009791906107bf565b60405180910390f35b6100a8610218565b6040516100b59190610801565b60405180910390f35b6100d860048036038101906100d39190610697565b610224565b6040516100e591906107a4565b60405180910390f35b6100f66103c4565b6040516101039190610801565b60405180910390f35b6101266004803603810190610121919061066a565b6103ca565b6040516101339190610801565b60405180910390f35b610144610413565b60405161015191906107bf565b60405180910390f35b610174600480360381019061016f91906106ea565b6104a1565b60405161018191906107a4565b60405180910390f35b600080546101979061093d565b80601f01602080910402602001604051908101604052809291908181526020018280546101c39061093d565b80156102105780601f106101e557610100808354040283529160200191610210565b820191906000526020600020905b8154815290600101906020018083116101f357829003601f168201915b505050505081565b6000633b9aca00905090565b600081600360008673ffffffffffffffffffffffffffffffffffffffff1673ffffffffffffffffffffffffffffffffffffffff1681526020019081526020016000205410156102a8576040517f08c379a000000000000000000000000000000000000000000000000000000000815260040161029f906107e1565b60405180910390fd5b81600360008673ffffffffffffffffffffffffffffffffffffffff1673ffffffffffffffffffffffffffffffffffffffff16815260200190815260200160002060008282546102f7919061088e565b9250508190555081600360008573ffffffffffffffffffffffffffffffffffffffff1673ffffffffffffffffffffffffffffffffffffffff168152602001908152602001600020600082825461034d9190610838565b925050819055508273ffffffffffffffffffffffffffffffffffffffff168473ffffffffffffffffffffffffffffffffffffffff167fddf252ad1be2c89b69c2b068fc378daa952ba7f163c4a11628f55a4df523b3ef846040516103b19190610801565b60405180910390a3600190509392505050565b60025481565b6000600360008373ffffffffffffffffffffffffffffffffffffffff1673ffffffffffffffffffffffffffffffffffffffff168152602001908152602001600020549050919050565b600180546104209061093d565b80601f016020809104026020016040519081016040528092919081815260200182805461044c9061093d565b80156104995780601f1061046e57610100808354040283529160200191610499565b820191906000526020600020905b81548152906001019060200180831161047c57829003601f168201915b505050505081565b600081600360003373ffffffffffffffffffffffffffffffffffffffff1673ffffffffffffffffffffffffffffffffffffffff168152602001908152602001600020541015610525576040517f08c379a000000000000000000000000000000000000000000000000000000000815260040161051c906107e1565b60405180910390fd5b81600360003373ffffffffffffffffffffffffffffffffffffffff1673ffffffffffffffffffffffffffffffffffffffff1681526020019081526020016000206000828254610574919061088e565b9250508190555081600360008573ffffffffffffffffffffffffffffffffffffffff1673ffffffffffffffffffffffffffffffffffffffff16815260200190815260200160002060008282546105ca9190610838565b925050819055508273ffffffffffffffffffffffffffffffffffffffff163373ffffffffffffffffffffffffffffffffffffffff167fddf252ad1be2c89b69c2b068fc378daa952ba7f163c4a11628f55a4df523b3ef8460405161062e9190610801565b60405180910390a36001905092915050565b60008135905061064f81610a0c565b92915050565b60008135905061066481610a23565b92915050565b6000602082840312156106805761067f6109cd565b5b600061068e84828501610640565b91505092915050565b6000806000606084860312156106b0576106af6109cd565b5b60006106be86828701610640565b93505060206106cf86828701610640565b92505060406106e086828701610655565b9150509250925092565b60008060408385031215610701576107006109cd565b5b600061070f85828601610640565b925050602061072085828601610655565b9150509250929050565b610733816108d4565b82525050565b60006107448261081c565b61074e8185610827565b935061075e81856020860161090a565b610767816109d2565b840191505092915050565b600061077f601d83610827565b915061078a826109e3565b602082019050919050565b61079e81610900565b82525050565b60006020820190506107b9600083018461072a565b92915050565b600060208201905081810360008301526107d98184610739565b905092915050565b600060208201905081810360008301526107fa81610772565b9050919050565b60006020820190506108166000830184610795565b92915050565b600081519050919050565b600082825260208201905092915050565b600061084382610900565b915061084e83610900565b9250827fffffffffffffffffffffffffffffffffffffffffffffffffffffffffffffffff038211156108835761088261096f565b5b828201905092915050565b600061089982610900565b91506108a483610900565b9250828210156108b7576108b661096f565b5b828203905092915050565b60006108cd826108e0565b9050919050565b60008115159050919050565b600073ffffffffffffffffffffffffffffffffffffffff82169050919050565b6000819050919050565b60005b8381101561092857808201518184015260208101905061090d565b83811115610937576000848401525b50505050565b6000600282049050600182168061095557607f821691505b602082108114156109695761096861099e565b5b50919050565b7f4e487b7100000000000000000000000000000000000000000000000000000000600052601160045260246000fd5b7f4e487b7100000000000000000000000000000000000000000000000000000000600052602260045260246000fd5b600080fd5b6000601f19601f8301169050919050565b7f4e6f7420656e6f75676820746f6b656e20746f207472616e736665722e000000600082015250565b610a15816108c2565b8114610a2057600080fd5b50565b610a2c81610900565b8114610a3757600080fd5b5056fea2646970667358221220efefb85cc0a9237f5b017dc52f5799b4641b4e85723dbd5cd69dd66e25ede41164736f6c63430008070033",
					"opcodes": "PUSH1 0x80 PUSH1 0x40 MSTORE CALLVALUE DUP1 ISZERO PUSH3 0x11 JUMPI PUSH1 0x0 DUP1 REVERT JUMPDEST POP PUSH1 0x40 MLOAD PUSH3 0xF3E CODESIZE SUB DUP1 PUSH3 0xF3E DUP4 CODECOPY DUP2 DUP2 ADD PUSH1 0x40 MSTORE DUP2 ADD SWAP1 PUSH3 0x37 SWAP2 SWAP1 PUSH3 0x27D JUMP JUMPDEST DUP2 PUSH1 0x0 SWAP1 DUP1 MLOAD SWAP1 PUSH1 0x20 ADD SWAP1 PUSH3 0x4F SWAP3 SWAP2 SWAP1 PUSH3 0x14F JUMP JUMPDEST POP DUP1 PUSH1 0x1 SWAP1 DUP1 MLOAD SWAP1 PUSH1 0x20 ADD SWAP1 PUSH3 0x68 SWAP3 SWAP2 SWAP1 PUSH3 0x14F JUMP JUMPDEST POP PUSH1 0x12 PUSH1 0x2 DUP2 SWAP1 SSTORE POP PUSH3 0x81 PUSH3 0x143 PUSH1 0x20 SHL PUSH1 0x20 SHR JUMP JUMPDEST PUSH1 0x3 PUSH1 0x0 CALLER PUSH20 0xFFFFFFFFFFFFFFFFFFFFFFFFFFFFFFFFFFFFFFFF AND PUSH20 0xFFFFFFFFFFFFFFFFFFFFFFFFFFFFFFFFFFFFFFFF AND DUP2 MSTORE PUSH1 0x20 ADD SWAP1 DUP2 MSTORE PUSH1 0x20 ADD PUSH1 0x0 KECCAK256 DUP2 SWAP1 SSTORE POP CALLER PUSH20 0xFFFFFFFFFFFFFFFFFFFFFFFFFFFFFFFFFFFFFFFF AND PUSH1 0x0 PUSH20 0xFFFFFFFFFFFFFFFFFFFFFFFFFFFFFFFFFFFFFFFF AND PUSH32 0xDDF252AD1BE2C89B69C2B068FC378DAA952BA7F163C4A11628F55A4DF523B3EF PUSH3 0x124 PUSH3 0x143 PUSH1 0x20 SHL PUSH1 0x20 SHR JUMP JUMPDEST PUSH1 0x40 MLOAD PUSH3 0x133 SWAP2 SWAP1 PUSH3 0x313 JUMP JUMPDEST PUSH1 0x40 MLOAD DUP1 SWAP2 SUB SWAP1 LOG3 POP POP PUSH3 0x4BE JUMP JUMPDEST PUSH1 0x0 PUSH4 0x3B9ACA00 SWAP1 POP SWAP1 JUMP JUMPDEST DUP3 DUP1 SLOAD PUSH3 0x15D SWAP1 PUSH3 0x3CF JUMP JUMPDEST SWAP1 PUSH1 0x0 MSTORE PUSH1 0x20 PUSH1 0x0 KECCAK256 SWAP1 PUSH1 0x1F ADD PUSH1 0x20 SWAP1 DIV DUP2 ADD SWAP3 DUP3 PUSH3 0x181 JUMPI PUSH1 0x0 DUP6 SSTORE PUSH3 0x1CD JUMP JUMPDEST DUP3 PUSH1 0x1F LT PUSH3 0x19C JUMPI DUP1 MLOAD PUSH1 0xFF NOT AND DUP4 DUP1 ADD OR DUP6 SSTORE PUSH3 0x1CD JUMP JUMPDEST DUP3 DUP1 ADD PUSH1 0x1 ADD DUP6 SSTORE DUP3 ISZERO PUSH3 0x1CD JUMPI SWAP2 DUP3 ADD JUMPDEST DUP3 DUP2 GT ISZERO PUSH3 0x1CC JUMPI DUP3 MLOAD DUP3 SSTORE SWAP2 PUSH1 0x20 ADD SWAP2 SWAP1 PUSH1 0x1 ADD SWAP1 PUSH3 0x1AF JUMP JUMPDEST JUMPDEST POP SWAP1 POP PUSH3 0x1DC SWAP2 SWAP1 PUSH3 0x1E0 JUMP JUMPDEST POP SWAP1 JUMP JUMPDEST JUMPDEST DUP1 DUP3 GT ISZERO PUSH3 0x1FB JUMPI PUSH1 0x0 DUP2 PUSH1 0x0 SWAP1 SSTORE POP PUSH1 0x1 ADD PUSH3 0x1E1 JUMP JUMPDEST POP SWAP1 JUMP JUMPDEST PUSH1 0x0 PUSH3 0x216 PUSH3 0x210 DUP5 PUSH3 0x359 JUMP JUMPDEST PUSH3 0x330 JUMP JUMPDEST SWAP1 POP DUP3 DUP2 MSTORE PUSH1 0x20 DUP2 ADD DUP5 DUP5 DUP5 ADD GT ISZERO PUSH3 0x235 JUMPI PUSH3 0x234 PUSH3 0x49E JUMP JUMPDEST JUMPDEST PUSH3 0x242 DUP5 DUP3 DUP6 PUSH3 0x399 JUMP JUMPDEST POP SWAP4 SWAP3 POP POP POP JUMP JUMPDEST PUSH1 0x0 DUP3 PUSH1 0x1F DUP4 ADD SLT PUSH3 0x262 JUMPI PUSH3 0x261 PUSH3 0x499 JUMP JUMPDEST JUMPDEST DUP2 MLOAD PUSH3 0x274 DUP5 DUP3 PUSH1 0x20 DUP7 ADD PUSH3 0x1FF JUMP JUMPDEST SWAP2 POP POP SWAP3 SWAP2 POP POP JUMP JUMPDEST PUSH1 0x0 DUP1 PUSH1 0x40 DUP4 DUP6 SUB SLT ISZERO PUSH3 0x297 JUMPI PUSH3 0x296 PUSH3 0x4A8 JUMP JUMPDEST JUMPDEST PUSH1 0x0 DUP4 ADD MLOAD PUSH8 0xFFFFFFFFFFFFFFFF DUP2 GT ISZERO PUSH3 0x2B8 JUMPI PUSH3 0x2B7 PUSH3 0x4A3 JUMP JUMPDEST JUMPDEST PUSH3 0x2C6 DUP6 DUP3 DUP7 ADD PUSH3 0x24A JUMP JUMPDEST SWAP3 POP POP PUSH1 0x20 DUP4 ADD MLOAD PUSH8 0xFFFFFFFFFFFFFFFF DUP2 GT ISZERO PUSH3 0x2EA JUMPI PUSH3 0x2E9 PUSH3 0x4A3 JUMP JUMPDEST JUMPDEST PUSH3 0x2F8 DUP6 DUP3 DUP7 ADD PUSH3 0x24A JUMP JUMPDEST SWAP2 POP POP SWAP3 POP SWAP3 SWAP1 POP JUMP JUMPDEST PUSH3 0x30D DUP2 PUSH3 0x38F JUMP JUMPDEST DUP3 MSTORE POP POP JUMP JUMPDEST PUSH1 0x0 PUSH1 0x20 DUP3 ADD SWAP1 POP PUSH3 0x32A PUSH1 0x0 DUP4 ADD DUP5 PUSH3 0x302 JUMP JUMPDEST SWAP3 SWAP2 POP POP JUMP JUMPDEST PUSH1 0x0 PUSH3 0x33C PUSH3 0x34F JUMP JUMPDEST SWAP1 POP PUSH3 0x34A DUP3 DUP3 PUSH3 0x405 JUMP JUMPDEST SWAP2 SWAP1 POP JUMP JUMPDEST PUSH1 0x0 PUSH1 0x40 MLOAD SWAP1 POP SWAP1 JUMP JUMPDEST PUSH1 0x0 PUSH8 0xFFFFFFFFFFFFFFFF DUP3 GT ISZERO PUSH3 0x377 JUMPI PUSH3 0x376 PUSH3 0x46A JUMP JUMPDEST JUMPDEST PUSH3 0x382 DUP3 PUSH3 0x4AD JUMP JUMPDEST SWAP1 POP PUSH1 0x20 DUP2 ADD SWAP1 POP SWAP2 SWAP1 POP JUMP JUMPDEST PUSH1 0x0 DUP2 SWAP1 POP SWAP2 SWAP1 POP JUMP JUMPDEST PUSH1 0x0 JUMPDEST DUP4 DUP2 LT ISZERO PUSH3 0x3B9 JUMPI DUP1 DUP3 ADD MLOAD DUP2 DUP5 ADD MSTORE PUSH1 0x20 DUP2 ADD SWAP1 POP PUSH3 0x39C JUMP JUMPDEST DUP4 DUP2 GT ISZERO PUSH3 0x3C9 JUMPI PUSH1 0x0 DUP5 DUP5 ADD MSTORE JUMPDEST POP POP POP POP JUMP JUMPDEST PUSH1 0x0 PUSH1 0x2 DUP3 DIV SWAP1 POP PUSH1 0x1 DUP3 AND DUP1 PUSH3 0x3E8 JUMPI PUSH1 0x7F DUP3 AND SWAP2 POP JUMPDEST PUSH1 0x20 DUP3 LT DUP2 EQ ISZERO PUSH3 0x3FF JUMPI PUSH3 0x3FE PUSH3 0x43B JUMP JUMPDEST JUMPDEST POP SWAP2 SWAP1 POP JUMP JUMPDEST PUSH3 0x410 DUP3 PUSH3 0x4AD JUMP JUMPDEST DUP2 ADD DUP2 DUP2 LT PUSH8 0xFFFFFFFFFFFFFFFF DUP3 GT OR ISZERO PUSH3 0x432 JUMPI PUSH3 0x431 PUSH3 0x46A JUMP JUMPDEST JUMPDEST DUP1 PUSH1 0x40 MSTORE POP POP POP JUMP JUMPDEST PUSH32 0x4E487B7100000000000000000000000000000000000000000000000000000000 PUSH1 0x0 MSTORE PUSH1 0x22 PUSH1 0x4 MSTORE PUSH1 0x24 PUSH1 0x0 REVERT JUMPDEST PUSH32 0x4E487B7100000000000000000000000000000000000000000000000000000000 PUSH1 0x0 MSTORE PUSH1 0x41 PUSH1 0x4 MSTORE PUSH1 0x24 PUSH1 0x0 REVERT JUMPDEST PUSH1 0x0 DUP1 REVERT JUMPDEST PUSH1 0x0 DUP1 REVERT JUMPDEST PUSH1 0x0 DUP1 REVERT JUMPDEST PUSH1 0x0 DUP1 REVERT JUMPDEST PUSH1 0x0 PUSH1 0x1F NOT PUSH1 0x1F DUP4 ADD AND SWAP1 POP SWAP2 SWAP1 POP JUMP JUMPDEST PUSH2 0xA70 DUP1 PUSH3 0x4CE PUSH1 0x0 CODECOPY PUSH1 0x0 RETURN INVALID PUSH1 0x80 PUSH1 0x40 MSTORE CALLVALUE DUP1 ISZERO PUSH2 0x10 JUMPI PUSH1 0x0 DUP1 REVERT JUMPDEST POP PUSH1 0x4 CALLDATASIZE LT PUSH2 0x7D JUMPI PUSH1 0x0 CALLDATALOAD PUSH1 0xE0 SHR DUP1 PUSH4 0x313CE567 GT PUSH2 0x5B JUMPI DUP1 PUSH4 0x313CE567 EQ PUSH2 0xEE JUMPI DUP1 PUSH4 0x70A08231 EQ PUSH2 0x10C JUMPI DUP1 PUSH4 0x95D89B41 EQ PUSH2 0x13C JUMPI DUP1 PUSH4 0xA9059CBB EQ PUSH2 0x15A JUMPI PUSH2 0x7D JUMP JUMPDEST DUP1 PUSH4 0x6FDDE03 EQ PUSH2 0x82 JUMPI DUP1 PUSH4 0x18160DDD EQ PUSH2 0xA0 JUMPI DUP1 PUSH4 0x23B872DD EQ PUSH2 0xBE JUMPI JUMPDEST PUSH1 0x0 DUP1 REVERT JUMPDEST PUSH2 0x8A PUSH2 0x18A JUMP JUMPDEST PUSH1 0x40 MLOAD PUSH2 0x97 SWAP2 SWAP1 PUSH2 0x7BF JUMP JUMPDEST PUSH1 0x40 MLOAD DUP1 SWAP2 SUB SWAP1 RETURN JUMPDEST PUSH2 0xA8 PUSH2 0x218 JUMP JUMPDEST PUSH1 0x40 MLOAD PUSH2 0xB5 SWAP2 SWAP1 PUSH2 0x801 JUMP JUMPDEST PUSH1 0x40 MLOAD DUP1 SWAP2 SUB SWAP1 RETURN JUMPDEST PUSH2 0xD8 PUSH1 0x4 DUP1 CALLDATASIZE SUB DUP2 ADD SWAP1 PUSH2 0xD3 SWAP2 SWAP1 PUSH2 0x697 JUMP JUMPDEST PUSH2 0x224 JUMP JUMPDEST PUSH1 0x40 MLOAD PUSH2 0xE5 SWAP2 SWAP1 PUSH2 0x7A4 JUMP JUMPDEST PUSH1 0x40 MLOAD DUP1 SWAP2 SUB SWAP1 RETURN JUMPDEST PUSH2 0xF6 PUSH2 0x3C4 JUMP JUMPDEST PUSH1 0x40 MLOAD PUSH2 0x103 SWAP2 SWAP1 PUSH2 0x801 JUMP JUMPDEST PUSH1 0x40 MLOAD DUP1 SWAP2 SUB SWAP1 RETURN JUMPDEST PUSH2 0x126 PUSH1 0x4 DUP1 CALLDATASIZE SUB DUP2 ADD SWAP1 PUSH2 0x121 SWAP2 SWAP1 PUSH2 0x66A JUMP JUMPDEST PUSH2 0x3CA JUMP JUMPDEST PUSH1 0x40 MLOAD PUSH2 0x133 SWAP2 SWAP1 PUSH2 0x801 JUMP JUMPDEST PUSH1 0x40 MLOAD DUP1 SWAP2 SUB SWAP1 RETURN JUMPDEST PUSH2 0x144 PUSH2 0x413 JUMP JUMPDEST PUSH1 0x40 MLOAD PUSH2 0x151 SWAP2 SWAP1 PUSH2 0x7BF JUMP JUMPDEST PUSH1 0x40 MLOAD DUP1 SWAP2 SUB SWAP1 RETURN JUMPDEST PUSH2 0x174 PUSH1 0x4 DUP1 CALLDATASIZE SUB DUP2 ADD SWAP1 PUSH2 0x16F SWAP2 SWAP1 PUSH2 0x6EA JUMP JUMPDEST PUSH2 0x4A1 JUMP JUMPDEST PUSH1 0x40 MLOAD PUSH2 0x181 SWAP2 SWAP1 PUSH2 0x7A4 JUMP JUMPDEST PUSH1 0x40 MLOAD DUP1 SWAP2 SUB SWAP1 RETURN JUMPDEST PUSH1 0x0 DUP1 SLOAD PUSH2 0x197 SWAP1 PUSH2 0x93D JUMP JUMPDEST DUP1 PUSH1 0x1F ADD PUSH1 0x20 DUP1 SWAP2 DIV MUL PUSH1 0x20 ADD PUSH1 0x40 MLOAD SWAP1 DUP2 ADD PUSH1 0x40 MSTORE DUP1 SWAP3 SWAP2 SWAP1 DUP2 DUP2 MSTORE PUSH1 0x20 ADD DUP3 DUP1 SLOAD PUSH2 0x1C3 SWAP1 PUSH2 0x93D JUMP JUMPDEST DUP1 ISZERO PUSH2 0x210 JUMPI DUP1 PUSH1 0x1F LT PUSH2 0x1E5 JUMPI PUSH2 0x100 DUP1 DUP4 SLOAD DIV MUL DUP4 MSTORE SWAP2 PUSH1 0x20 ADD SWAP2 PUSH2 0x210 JUMP JUMPDEST DUP3 ADD SWAP2 SWAP1 PUSH1 0x0 MSTORE PUSH1 0x20 PUSH1 0x0 KECCAK256 SWAP1 JUMPDEST DUP2 SLOAD DUP2 MSTORE SWAP1 PUSH1 0x1 ADD SWAP1 PUSH1 0x20 ADD DUP1 DUP4 GT PUSH2 0x1F3 JUMPI DUP3 SWAP1 SUB PUSH1 0x1F AND DUP3 ADD SWAP2 JUMPDEST POP POP POP POP POP DUP2 JUMP JUMPDEST PUSH1 0x0 PUSH4 0x3B9ACA00 SWAP1 POP SWAP1 JUMP JUMPDEST PUSH1 0x0 DUP2 PUSH1 0x3 PUSH1 0x0 DUP7 PUSH20 0xFFFFFFFFFFFFFFFFFFFFFFFFFFFFFFFFFFFFFFFF AND PUSH20 0xFFFFFFFFFFFFFFFFFFFFFFFFFFFFFFFFFFFFFFFF AND DUP2 MSTORE PUSH1 0x20 ADD SWAP1 DUP2 MSTORE PUSH1 0x20 ADD PUSH1 0x0 KECCAK256 SLOAD LT ISZERO PUSH2 0x2A8 JUMPI PUSH1 0x40 MLOAD PUSH32 0x8C379A000000000000000000000000000000000000000000000000000000000 DUP2 MSTORE PUSH1 0x4 ADD PUSH2 0x29F SWAP1 PUSH2 0x7E1 JUMP JUMPDEST PUSH1 0x40 MLOAD DUP1 SWAP2 SUB SWAP1 REVERT JUMPDEST DUP2 PUSH1 0x3 PUSH1 0x0 DUP7 PUSH20 0xFFFFFFFFFFFFFFFFFFFFFFFFFFFFFFFFFFFFFFFF AND PUSH20 0xFFFFFFFFFFFFFFFFFFFFFFFFFFFFFFFFFFFFFFFF AND DUP2 MSTORE PUSH1 0x20 ADD SWAP1 DUP2 MSTORE PUSH1 0x20 ADD PUSH1 0x0 KECCAK256 PUSH1 0x0 DUP3 DUP3 SLOAD PUSH2 0x2F7 SWAP2 SWAP1 PUSH2 0x88E JUMP JUMPDEST SWAP3 POP POP DUP2 SWAP1 SSTORE POP DUP2 PUSH1 0x3 PUSH1 0x0 DUP6 PUSH20 0xFFFFFFFFFFFFFFFFFFFFFFFFFFFFFFFFFFFFFFFF AND PUSH20 0xFFFFFFFFFFFFFFFFFFFFFFFFFFFFFFFFFFFFFFFF AND DUP2 MSTORE PUSH1 0x20 ADD SWAP1 DUP2 MSTORE PUSH1 0x20 ADD PUSH1 0x0 KECCAK256 PUSH1 0x0 DUP3 DUP3 SLOAD PUSH2 0x34D SWAP2 SWAP1 PUSH2 0x838 JUMP JUMPDEST SWAP3 POP POP DUP2 SWAP1 SSTORE POP DUP3 PUSH20 0xFFFFFFFFFFFFFFFFFFFFFFFFFFFFFFFFFFFFFFFF AND DUP5 PUSH20 0xFFFFFFFFFFFFFFFFFFFFFFFFFFFFFFFFFFFFFFFF AND PUSH32 0xDDF252AD1BE2C89B69C2B068FC378DAA952BA7F163C4A11628F55A4DF523B3EF DUP5 PUSH1 0x40 MLOAD PUSH2 0x3B1 SWAP2 SWAP1 PUSH2 0x801 JUMP JUMPDEST PUSH1 0x40 MLOAD DUP1 SWAP2 SUB SWAP1 LOG3 PUSH1 0x1 SWAP1 POP SWAP4 SWAP3 POP POP POP JUMP JUMPDEST PUSH1 0x2 SLOAD DUP2 JUMP JUMPDEST PUSH1 0x0 PUSH1 0x3 PUSH1 0x0 DUP4 PUSH20 0xFFFFFFFFFFFFFFFFFFFFFFFFFFFFFFFFFFFFFFFF AND PUSH20 0xFFFFFFFFFFFFFFFFFFFFFFFFFFFFFFFFFFFFFFFF AND DUP2 MSTORE PUSH1 0x20 ADD SWAP1 DUP2 MSTORE PUSH1 0x20 ADD PUSH1 0x0 KECCAK256 SLOAD SWAP1 POP SWAP2 SWAP1 POP JUMP JUMPDEST PUSH1 0x1 DUP1 SLOAD PUSH2 0x420 SWAP1 PUSH2 0x93D JUMP JUMPDEST DUP1 PUSH1 0x1F ADD PUSH1 0x20 DUP1 SWAP2 DIV MUL PUSH1 0x20 ADD PUSH1 0x40 MLOAD SWAP1 DUP2 ADD PUSH1 0x40 MSTORE DUP1 SWAP3 SWAP2 SWAP1 DUP2 DUP2 MSTORE PUSH1 0x20 ADD DUP3 DUP1 SLOAD PUSH2 0x44C SWAP1 PUSH2 0x93D JUMP JUMPDEST DUP1 ISZERO PUSH2 0x499 JUMPI DUP1 PUSH1 0x1F LT PUSH2 0x46E JUMPI PUSH2 0x100 DUP1 DUP4 SLOAD DIV MUL DUP4 MSTORE SWAP2 PUSH1 0x20 ADD SWAP2 PUSH2 0x499 JUMP JUMPDEST DUP3 ADD SWAP2 SWAP1 PUSH1 0x0 MSTORE PUSH1 0x20 PUSH1 0x0 KECCAK256 SWAP1 JUMPDEST DUP2 SLOAD DUP2 MSTORE SWAP1 PUSH1 0x1 ADD SWAP1 PUSH1 0x20 ADD DUP1 DUP4 GT PUSH2 0x47C JUMPI DUP3 SWAP1 SUB PUSH1 0x1F AND DUP3 ADD SWAP2 JUMPDEST POP POP POP POP POP DUP2 JUMP JUMPDEST PUSH1 0x0 DUP2 PUSH1 0x3 PUSH1 0x0 CALLER PUSH20 0xFFFFFFFFFFFFFFFFFFFFFFFFFFFFFFFFFFFFFFFF AND PUSH20 0xFFFFFFFFFFFFFFFFFFFFFFFFFFFFFFFFFFFFFFFF AND DUP2 MSTORE PUSH1 0x20 ADD SWAP1 DUP2 MSTORE PUSH1 0x20 ADD PUSH1 0x0 KECCAK256 SLOAD LT ISZERO PUSH2 0x525 JUMPI PUSH1 0x40 MLOAD PUSH32 0x8C379A000000000000000000000000000000000000000000000000000000000 DUP2 MSTORE PUSH1 0x4 ADD PUSH2 0x51C SWAP1 PUSH2 0x7E1 JUMP JUMPDEST PUSH1 0x40 MLOAD DUP1 SWAP2 SUB SWAP1 REVERT JUMPDEST DUP2 PUSH1 0x3 PUSH1 0x0 CALLER PUSH20 0xFFFFFFFFFFFFFFFFFFFFFFFFFFFFFFFFFFFFFFFF AND PUSH20 0xFFFFFFFFFFFFFFFFFFFFFFFFFFFFFFFFFFFFFFFF AND DUP2 MSTORE PUSH1 0x20 ADD SWAP1 DUP2 MSTORE PUSH1 0x20 ADD PUSH1 0x0 KECCAK256 PUSH1 0x0 DUP3 DUP3 SLOAD PUSH2 0x574 SWAP2 SWAP1 PUSH2 0x88E JUMP JUMPDEST SWAP3 POP POP DUP2 SWAP1 SSTORE POP DUP2 PUSH1 0x3 PUSH1 0x0 DUP6 PUSH20 0xFFFFFFFFFFFFFFFFFFFFFFFFFFFFFFFFFFFFFFFF AND PUSH20 0xFFFFFFFFFFFFFFFFFFFFFFFFFFFFFFFFFFFFFFFF AND DUP2 MSTORE PUSH1 0x20 ADD SWAP1 DUP2 MSTORE PUSH1 0x20 ADD PUSH1 0x0 KECCAK256 PUSH1 0x0 DUP3 DUP3 SLOAD PUSH2 0x5CA SWAP2 SWAP1 PUSH2 0x838 JUMP JUMPDEST SWAP3 POP POP DUP2 SWAP1 SSTORE POP DUP3 PUSH20 0xFFFFFFFFFFFFFFFFFFFFFFFFFFFFFFFFFFFFFFFF AND CALLER PUSH20 0xFFFFFFFFFFFFFFFFFFFFFFFFFFFFFFFFFFFFFFFF AND PUSH32 0xDDF252AD1BE2C89B69C2B068FC378DAA952BA7F163C4A11628F55A4DF523B3EF DUP5 PUSH1 0x40 MLOAD PUSH2 0x62E SWAP2 SWAP1 PUSH2 0x801 JUMP JUMPDEST PUSH1 0x40 MLOAD DUP1 SWAP2 SUB SWAP1 LOG3 PUSH1 0x1 SWAP1 POP SWAP3 SWAP2 POP POP JUMP JUMPDEST PUSH1 0x0 DUP2 CALLDATALOAD SWAP1 POP PUSH2 0x64F DUP2 PUSH2 0xA0C JUMP JUMPDEST SWAP3 SWAP2 POP POP JUMP JUMPDEST PUSH1 0x0 DUP2 CALLDATALOAD SWAP1 POP PUSH2 0x664 DUP2 PUSH2 0xA23 JUMP JUMPDEST SWAP3 SWAP2 POP POP JUMP JUMPDEST PUSH1 0x0 PUSH1 0x20 DUP3 DUP5 SUB SLT ISZERO PUSH2 0x680 JUMPI PUSH2 0x67F PUSH2 0x9CD JUMP JUMPDEST JUMPDEST PUSH1 0x0 PUSH2 0x68E DUP5 DUP3 DUP6 ADD PUSH2 0x640 JUMP JUMPDEST SWAP2 POP POP SWAP3 SWAP2 POP POP JUMP JUMPDEST PUSH1 0x0 DUP1 PUSH1 0x0 PUSH1 0x60 DUP5 DUP7 SUB SLT ISZERO PUSH2 0x6B0 JUMPI PUSH2 0x6AF PUSH2 0x9CD JUMP JUMPDEST JUMPDEST PUSH1 0x0 PUSH2 0x6BE DUP7 DUP3 DUP8 ADD PUSH2 0x640 JUMP JUMPDEST SWAP4 POP POP PUSH1 0x20 PUSH2 0x6CF DUP7 DUP3 DUP8 ADD PUSH2 0x640 JUMP JUMPDEST SWAP3 POP POP PUSH1 0x40 PUSH2 0x6E0 DUP7 DUP3 DUP8 ADD PUSH2 0x655 JUMP JUMPDEST SWAP2 POP POP SWAP3 POP SWAP3 POP SWAP3 JUMP JUMPDEST PUSH1 0x0 DUP1 PUSH1 0x40 DUP4 DUP6 SUB SLT ISZERO PUSH2 0x701 JUMPI PUSH2 0x700 PUSH2 0x9CD JUMP JUMPDEST JUMPDEST PUSH1 0x0 PUSH2 0x70F DUP6 DUP3 DUP7 ADD PUSH2 0x640 JUMP JUMPDEST SWAP3 POP POP PUSH1 0x20 PUSH2 0x720 DUP6 DUP3 DUP7 ADD PUSH2 0x655 JUMP JUMPDEST SWAP2 POP POP SWAP3 POP SWAP3 SWAP1 POP JUMP JUMPDEST PUSH2 0x733 DUP2 PUSH2 0x8D4 JUMP JUMPDEST DUP3 MSTORE POP POP JUMP JUMPDEST PUSH1 0x0 PUSH2 0x744 DUP3 PUSH2 0x81C JUMP JUMPDEST PUSH2 0x74E DUP2 DUP6 PUSH2 0x827 JUMP JUMPDEST SWAP4 POP PUSH2 0x75E DUP2 DUP6 PUSH1 0x20 DUP7 ADD PUSH2 0x90A JUMP JUMPDEST PUSH2 0x767 DUP2 PUSH2 0x9D2 JUMP JUMPDEST DUP5 ADD SWAP2 POP POP SWAP3 SWAP2 POP POP JUMP JUMPDEST PUSH1 0x0 PUSH2 0x77F PUSH1 0x1D DUP4 PUSH2 0x827 JUMP JUMPDEST SWAP2 POP PUSH2 0x78A DUP3 PUSH2 0x9E3 JUMP JUMPDEST PUSH1 0x20 DUP3 ADD SWAP1 POP SWAP2 SWAP1 POP JUMP JUMPDEST PUSH2 0x79E DUP2 PUSH2 0x900 JUMP JUMPDEST DUP3 MSTORE POP POP JUMP JUMPDEST PUSH1 0x0 PUSH1 0x20 DUP3 ADD SWAP1 POP PUSH2 0x7B9 PUSH1 0x0 DUP4 ADD DUP5 PUSH2 0x72A JUMP JUMPDEST SWAP3 SWAP2 POP POP JUMP JUMPDEST PUSH1 0x0 PUSH1 0x20 DUP3 ADD SWAP1 POP DUP2 DUP2 SUB PUSH1 0x0 DUP4 ADD MSTORE PUSH2 0x7D9 DUP2 DUP5 PUSH2 0x739 JUMP JUMPDEST SWAP1 POP SWAP3 SWAP2 POP POP JUMP JUMPDEST PUSH1 0x0 PUSH1 0x20 DUP3 ADD SWAP1 POP DUP2 DUP2 SUB PUSH1 0x0 DUP4 ADD MSTORE PUSH2 0x7FA DUP2 PUSH2 0x772 JUMP JUMPDEST SWAP1 POP SWAP2 SWAP1 POP JUMP JUMPDEST PUSH1 0x0 PUSH1 0x20 DUP3 ADD SWAP1 POP PUSH2 0x816 PUSH1 0x0 DUP4 ADD DUP5 PUSH2 0x795 JUMP JUMPDEST SWAP3 SWAP2 POP POP JUMP JUMPDEST PUSH1 0x0 DUP2 MLOAD SWAP1 POP SWAP2 SWAP1 POP JUMP JUMPDEST PUSH1 0x0 DUP3 DUP3 MSTORE PUSH1 0x20 DUP3 ADD SWAP1 POP SWAP3 SWAP2 POP POP JUMP JUMPDEST PUSH1 0x0 PUSH2 0x843 DUP3 PUSH2 0x900 JUMP JUMPDEST SWAP2 POP PUSH2 0x84E DUP4 PUSH2 0x900 JUMP JUMPDEST SWAP3 POP DUP3 PUSH32 0xFFFFFFFFFFFFFFFFFFFFFFFFFFFFFFFFFFFFFFFFFFFFFFFFFFFFFFFFFFFFFFFF SUB DUP3 GT ISZERO PUSH2 0x883 JUMPI PUSH2 0x882 PUSH2 0x96F JUMP JUMPDEST JUMPDEST DUP3 DUP3 ADD SWAP1 POP SWAP3 SWAP2 POP POP JUMP JUMPDEST PUSH1 0x0 PUSH2 0x899 DUP3 PUSH2 0x900 JUMP JUMPDEST SWAP2 POP PUSH2 0x8A4 DUP4 PUSH2 0x900 JUMP JUMPDEST SWAP3 POP DUP3 DUP3 LT ISZERO PUSH2 0x8B7 JUMPI PUSH2 0x8B6 PUSH2 0x96F JUMP JUMPDEST JUMPDEST DUP3 DUP3 SUB SWAP1 POP SWAP3 SWAP2 POP POP JUMP JUMPDEST PUSH1 0x0 PUSH2 0x8CD DUP3 PUSH2 0x8E0 JUMP JUMPDEST SWAP1 POP SWAP2 SWAP1 POP JUMP JUMPDEST PUSH1 0x0 DUP2 ISZERO ISZERO SWAP1 POP SWAP2 SWAP1 POP JUMP JUMPDEST PUSH1 0x0 PUSH20 0xFFFFFFFFFFFFFFFFFFFFFFFFFFFFFFFFFFFFFFFF DUP3 AND SWAP1 POP SWAP2 SWAP1 POP JUMP JUMPDEST PUSH1 0x0 DUP2 SWAP1 POP SWAP2 SWAP1 POP JUMP JUMPDEST PUSH1 0x0 JUMPDEST DUP4 DUP2 LT ISZERO PUSH2 0x928 JUMPI DUP1 DUP3 ADD MLOAD DUP2 DUP5 ADD MSTORE PUSH1 0x20 DUP2 ADD SWAP1 POP PUSH2 0x90D JUMP JUMPDEST DUP4 DUP2 GT ISZERO PUSH2 0x937 JUMPI PUSH1 0x0 DUP5 DUP5 ADD MSTORE JUMPDEST POP POP POP POP JUMP JUMPDEST PUSH1 0x0 PUSH1 0x2 DUP3 DIV SWAP1 POP PUSH1 0x1 DUP3 AND DUP1 PUSH2 0x955 JUMPI PUSH1 0x7F DUP3 AND SWAP2 POP JUMPDEST PUSH1 0x20 DUP3 LT DUP2 EQ ISZERO PUSH2 0x969 JUMPI PUSH2 0x968 PUSH2 0x99E JUMP JUMPDEST JUMPDEST POP SWAP2 SWAP1 POP JUMP JUMPDEST PUSH32 0x4E487B7100000000000000000000000000000000000000000000000000000000 PUSH1 0x0 MSTORE PUSH1 0x11 PUSH1 0x4 MSTORE PUSH1 0x24 PUSH1 0x0 REVERT JUMPDEST PUSH32 0x4E487B7100000000000000000000000000000000000000000000000000000000 PUSH1 0x0 MSTORE PUSH1 0x22 PUSH1 0x4 MSTORE PUSH1 0x24 PUSH1 0x0 REVERT JUMPDEST PUSH1 0x0 DUP1 REVERT JUMPDEST PUSH1 0x0 PUSH1 0x1F NOT PUSH1 0x1F DUP4 ADD AND SWAP1 POP SWAP2 SWAP1 POP JUMP JUMPDEST PUSH32 0x4E6F7420656E6F75676820746F6B656E20746F207472616E736665722E000000 PUSH1 0x0 DUP3 ADD MSTORE POP JUMP JUMPDEST PUSH2 0xA15 DUP2 PUSH2 0x8C2 JUMP JUMPDEST DUP2 EQ PUSH2 0xA20 JUMPI PUSH1 0x0 DUP1 REVERT JUMPDEST POP JUMP JUMPDEST PUSH2 0xA2C DUP2 PUSH2 0x900 JUMP JUMPDEST DUP2 EQ PUSH2 0xA37 JUMPI PUSH1 0x0 DUP1 REVERT JUMPDEST POP JUMP INVALID LOG2 PUSH5 0x6970667358 0x22 SLT KECCAK256 0xEF 0xEF 0xB8 0x5C 0xC0 0xA9 0x23 PUSH32 0x5B017DC52F5799B4641B4E85723DBD5CD69DD66E25EDE41164736F6C63430008 SMOD STOP CALLER "
				},
				"gasEstimates": {
					"creation": {
						"codeDepositCost": "534400",
						"executionCost": "infinite",
						"totalCost": "infinite"
					},
					"external": {
						"balanceOf(address)": "2863",
						"decimals()": "2429",
						"name()": "infinite",
						"symbol()": "infinite",
						"totalSupply()": "360",
						"transfer(address,uint256)": "infinite",
						"transferFrom(address,address,uint256)": "infinite"
					}
				},
				"methodIdentifiers": {
					"balanceOf(address)": "70a08231",
					"decimals()": "313ce567",
					"name()": "06fdde03",
					"symbol()": "95d89b41",
					"totalSupply()": "18160ddd",
					"transfer(address,uint256)": "a9059cbb",
					"transferFrom(address,address,uint256)": "23b872dd"
				}
			},
			"storageLayout": {
				"storage": [
					{
						"astId": 3,
						"contract": "contracts/TOKEN1.sol:TOKEN1",
						"label": "name",
						"offset": 0,
						"slot": "0",
						"type": "t_string_storage"
					},
					{
						"astId": 5,
						"contract": "contracts/TOKEN1.sol:TOKEN1",
						"label": "symbol",
						"offset": 0,
						"slot": "1",
						"type": "t_string_storage"
					},
					{
						"astId": 7,
						"contract": "contracts/TOKEN1.sol:TOKEN1",
						"label": "decimals",
						"offset": 0,
						"slot": "2",
						"type": "t_uint256"
					},
					{
						"astId": 11,
						"contract": "contracts/TOKEN1.sol:TOKEN1",
						"label": "balances",
						"offset": 0,
						"slot": "3",
						"type": "t_mapping(t_address,t_uint256)"
					}
				],
				"types": {
					"t_address": {
						"encoding": "inplace",
						"label": "address",
						"numberOfBytes": "20"
					},
					"t_mapping(t_address,t_uint256)": {
						"encoding": "mapping",
						"key": "t_address",
						"label": "mapping(address => uint256)",
						"numberOfBytes": "32",
						"value": "t_uint256"
					},
					"t_string_storage": {
						"encoding": "bytes",
						"label": "string",
						"numberOfBytes": "32"
					},
					"t_uint256": {
						"encoding": "inplace",
						"label": "uint256",
						"numberOfBytes": "32"
					}
				}
			},
			"userdoc": {
				"kind": "user",
				"methods": {},
				"version": 1
			}
		}
	}
}