{
	"contracts/TOKEN1.sol": {
		"TOKEN1": {
			"abi": [
				{
					"inputs": [
						{
							"internalType": "string",
							"name": "_name",
							"type": "string"
						},
						{
							"internalType": "string",
							"name": "_symbol",
							"type": "string"
						}
					],
					"stateMutability": "nonpayable",
					"type": "constructor"
				},
				{
					"anonymous": false,
					"inputs": [
						{
							"indexed": true,
							"internalType": "address",
							"name": "_from",
							"type": "address"
						},
						{
							"indexed": true,
							"internalType": "address",
							"name": "_to",
							"type": "address"
						},
						{
							"indexed": false,
							"internalType": "uint256",
							"name": "_value",
							"type": "uint256"
						}
					],
					"name": "Transfer",
					"type": "event"
				},
				{
					"inputs": [
						{
							"internalType": "address",
							"name": "_owner",
							"type": "address"
						}
					],
					"name": "balanceOf",
					"outputs": [
						{
							"internalType": "uint256",
							"name": "balance",
							"type": "uint256"
						}
					],
					"stateMutability": "view",
					"type": "function"
				},
				{
					"inputs": [],
					"name": "decimals",
					"outputs": [
						{
							"internalType": "uint256",
							"name": "",
							"type": "uint256"
						}
					],
					"stateMutability": "view",
					"type": "function"
				},
				{
					"inputs": [],
					"name": "name",
					"outputs": [
						{
							"internalType": "string",
							"name": "",
							"type": "string"
						}
					],
					"stateMutability": "view",
					"type": "function"
				},
				{
					"inputs": [],
					"name": "symbol",
					"outputs": [
						{
							"internalType": "string",
							"name": "",
							"type": "string"
						}
					],
					"stateMutability": "view",
					"type": "function"
				},
				{
					"inputs": [],
					"name": "totalSupply",
					"outputs": [
						{
							"internalType": "uint256",
							"name": "",
							"type": "uint256"
						}
					],
					"stateMutability": "view",
					"type": "function"
				},
				{
					"inputs": [
						{
							"internalType": "address",
							"name": "_to",
							"type": "address"
						},
						{
							"internalType": "uint256",
							"name": "_value",
							"type": "uint256"
						}
					],
					"name": "transfer",
					"outputs": [
						{
							"internalType": "bool",
							"name": "success",
							"type": "bool"
						}
					],
					"stateMutability": "nonpayable",
					"type": "function"
				},
				{
					"inputs": [
						{
							"internalType": "address",
							"name": "_from",
							"type": "address"
						},
						{
							"internalType": "address",
							"name": "_to",
							"type": "address"
						},
						{
							"internalType": "uint256",
							"name": "_value",
							"type": "uint256"
						}
					],
					"name": "transferFrom",
					"outputs": [
						{
							"internalType": "bool",
							"name": "success",
							"type": "bool"
						}
					],
					"stateMutability": "nonpayable",
					"type": "function"
				}
			],
			"devdoc": {
				"kind": "dev",
				"methods": {},
				"version": 1
			},
			"evm": {
				"assembly": "    /* \"contracts/TOKEN1.sol\":64:1349  contract TOKEN1{\r... */\n  mstore(0x40, 0x80)\n    /* \"contracts/TOKEN1.sol\":112:122  1000000000 */\n  0x3b9aca00\n    /* \"contracts/TOKEN1.sol\":86:122  uint public totalSupply = 1000000000 */\n  0x00\n  sstore\n    /* \"contracts/TOKEN1.sol\":333:576  constructor(string memory _name, string memory _symbol){\r... */\n  callvalue\n  dup1\n  iszero\n  tag_1\n  jumpi\n  0x00\n  dup1\n  revert\ntag_1:\n  pop\n  mload(0x40)\n  sub(codesize, bytecodeSize)\n  dup1\n  bytecodeSize\n  dup4\n  codecopy\n  dup2\n  dup2\n  add\n  0x40\n  mstore\n  dup2\n  add\n  swap1\n  tag_2\n  swap2\n  swap1\n  tag_3\n  jump\t// in\ntag_2:\n    /* \"contracts/TOKEN1.sol\":406:411  _name */\n  dup2\n    /* \"contracts/TOKEN1.sol\":399:403  name */\n  0x01\n    /* \"contracts/TOKEN1.sol\":399:411  name = _name */\n  swap1\n  dup1\n  mload\n  swap1\n  0x20\n  add\n  swap1\n  tag_6\n  swap3\n  swap2\n  swap1\n  tag_7\n  jump\t// in\ntag_6:\n  pop\n    /* \"contracts/TOKEN1.sol\":431:438  _symbol */\n  dup1\n    /* \"contracts/TOKEN1.sol\":422:428  symbol */\n  0x02\n    /* \"contracts/TOKEN1.sol\":422:438  symbol = _symbol */\n  swap1\n  dup1\n  mload\n  swap1\n  0x20\n  add\n  swap1\n  tag_8\n  swap3\n  swap2\n  swap1\n  tag_7\n  jump\t// in\ntag_8:\n  pop\n    /* \"contracts/TOKEN1.sol\":460:462  18 */\n  0x12\n    /* \"contracts/TOKEN1.sol\":449:457  decimals */\n  0x03\n    /* \"contracts/TOKEN1.sol\":449:462  decimals = 18 */\n  dup2\n  swap1\n  sstore\n  pop\n    /* \"contracts/TOKEN1.sol\":496:507  totalSupply */\n  sload(0x00)\n    /* \"contracts/TOKEN1.sol\":473:481  balances */\n  0x04\n    /* \"contracts/TOKEN1.sol\":473:493  balances[msg.sender] */\n  0x00\n    /* \"contracts/TOKEN1.sol\":482:492  msg.sender */\n  caller\n    /* \"contracts/TOKEN1.sol\":473:493  balances[msg.sender] */\n  0xffffffffffffffffffffffffffffffffffffffff\n  and\n  0xffffffffffffffffffffffffffffffffffffffff\n  and\n  dup2\n  mstore\n  0x20\n  add\n  swap1\n  dup2\n  mstore\n  0x20\n  add\n  0x00\n  keccak256\n    /* \"contracts/TOKEN1.sol\":473:507  balances[msg.sender] = totalSupply */\n  dup2\n  swap1\n  sstore\n  pop\n    /* \"contracts/TOKEN1.sol\":544:554  msg.sender */\n  caller\n    /* \"contracts/TOKEN1.sol\":523:568  Transfer(address(0), msg.sender, totalSupply) */\n  0xffffffffffffffffffffffffffffffffffffffff\n  and\n    /* \"contracts/TOKEN1.sol\":540:541  0 */\n  0x00\n    /* \"contracts/TOKEN1.sol\":523:568  Transfer(address(0), msg.sender, totalSupply) */\n  0xffffffffffffffffffffffffffffffffffffffff\n  and\n  0xddf252ad1be2c89b69c2b068fc378daa952ba7f163c4a11628f55a4df523b3ef\n    /* \"contracts/TOKEN1.sol\":556:567  totalSupply */\n  sload(0x00)\n    /* \"contracts/TOKEN1.sol\":523:568  Transfer(address(0), msg.sender, totalSupply) */\n  mload(0x40)\n  tag_9\n  swap2\n  swap1\n  tag_10\n  jump\t// in\ntag_9:\n  mload(0x40)\n  dup1\n  swap2\n  sub\n  swap1\n  log3\n    /* \"contracts/TOKEN1.sol\":333:576  constructor(string memory _name, string memory _symbol){\r... */\n  pop\n  pop\n    /* \"contracts/TOKEN1.sol\":64:1349  contract TOKEN1{\r... */\n  jump(tag_11)\ntag_7:\n  dup3\n  dup1\n  sload\n  tag_12\n  swap1\n  tag_13\n  jump\t// in\ntag_12:\n  swap1\n  0x00\n  mstore\n  keccak256(0x00, 0x20)\n  swap1\n  0x1f\n  add\n  0x20\n  swap1\n  div\n  dup2\n  add\n  swap3\n  dup3\n  tag_15\n  jumpi\n  0x00\n  dup6\n  sstore\n  jump(tag_14)\ntag_15:\n  dup3\n  0x1f\n  lt\n  tag_16\n  jumpi\n  dup1\n  mload\n  not(0xff)\n  and\n  dup4\n  dup1\n  add\n  or\n  dup6\n  sstore\n  jump(tag_14)\ntag_16:\n  dup3\n  dup1\n  add\n  0x01\n  add\n  dup6\n  sstore\n  dup3\n  iszero\n  tag_14\n  jumpi\n  swap2\n  dup3\n  add\ntag_17:\n  dup3\n  dup2\n  gt\n  iszero\n  tag_18\n  jumpi\n  dup3\n  mload\n  dup3\n  sstore\n  swap2\n  0x20\n  add\n  swap2\n  swap1\n  0x01\n  add\n  swap1\n  jump(tag_17)\ntag_18:\ntag_14:\n  pop\n  swap1\n  pop\n  tag_19\n  swap2\n  swap1\n  tag_20\n  jump\t// in\ntag_19:\n  pop\n  swap1\n  jump\t// out\ntag_20:\ntag_21:\n  dup1\n  dup3\n  gt\n  iszero\n  tag_22\n  jumpi\n  0x00\n  dup2\n  0x00\n  swap1\n  sstore\n  pop\n  0x01\n  add\n  jump(tag_21)\ntag_22:\n  pop\n  swap1\n  jump\t// out\n    /* \"#utility.yul\":7:428   */\ntag_24:\n    /* \"#utility.yul\":96:101   */\n  0x00\n    /* \"#utility.yul\":121:187   */\n  tag_26\n    /* \"#utility.yul\":137:186   */\n  tag_27\n    /* \"#utility.yul\":179:185   */\n  dup5\n    /* \"#utility.yul\":137:186   */\n  tag_28\n  jump\t// in\ntag_27:\n    /* \"#utility.yul\":121:187   */\n  tag_29\n  jump\t// in\ntag_26:\n    /* \"#utility.yul\":112:187   */\n  swap1\n  pop\n    /* \"#utility.yul\":210:216   */\n  dup3\n    /* \"#utility.yul\":203:208   */\n  dup2\n    /* \"#utility.yul\":196:217   */\n  mstore\n    /* \"#utility.yul\":248:252   */\n  0x20\n    /* \"#utility.yul\":241:246   */\n  dup2\n    /* \"#utility.yul\":237:253   */\n  add\n    /* \"#utility.yul\":286:289   */\n  dup5\n    /* \"#utility.yul\":277:283   */\n  dup5\n    /* \"#utility.yul\":272:275   */\n  dup5\n    /* \"#utility.yul\":268:284   */\n  add\n    /* \"#utility.yul\":265:290   */\n  gt\n    /* \"#utility.yul\":262:374   */\n  iszero\n  tag_30\n  jumpi\n    /* \"#utility.yul\":293:372   */\n  tag_31\n  tag_32\n  jump\t// in\ntag_31:\n    /* \"#utility.yul\":262:374   */\ntag_30:\n    /* \"#utility.yul\":383:422   */\n  tag_33\n    /* \"#utility.yul\":415:421   */\n  dup5\n    /* \"#utility.yul\":410:413   */\n  dup3\n    /* \"#utility.yul\":405:408   */\n  dup6\n    /* \"#utility.yul\":383:422   */\n  tag_34\n  jump\t// in\ntag_33:\n    /* \"#utility.yul\":102:428   */\n  pop\n    /* \"#utility.yul\":7:428   */\n  swap4\n  swap3\n  pop\n  pop\n  pop\n  jump\t// out\n    /* \"#utility.yul\":448:803   */\ntag_35:\n    /* \"#utility.yul\":515:520   */\n  0x00\n    /* \"#utility.yul\":564:567   */\n  dup3\n    /* \"#utility.yul\":557:561   */\n  0x1f\n    /* \"#utility.yul\":549:555   */\n  dup4\n    /* \"#utility.yul\":545:562   */\n  add\n    /* \"#utility.yul\":541:568   */\n  slt\n    /* \"#utility.yul\":531:653   */\n  tag_37\n  jumpi\n    /* \"#utility.yul\":572:651   */\n  tag_38\n  tag_39\n  jump\t// in\ntag_38:\n    /* \"#utility.yul\":531:653   */\ntag_37:\n    /* \"#utility.yul\":682:688   */\n  dup2\n    /* \"#utility.yul\":676:689   */\n  mload\n    /* \"#utility.yul\":707:797   */\n  tag_40\n    /* \"#utility.yul\":793:796   */\n  dup5\n    /* \"#utility.yul\":785:791   */\n  dup3\n    /* \"#utility.yul\":778:782   */\n  0x20\n    /* \"#utility.yul\":770:776   */\n  dup7\n    /* \"#utility.yul\":766:783   */\n  add\n    /* \"#utility.yul\":707:797   */\n  tag_24\n  jump\t// in\ntag_40:\n    /* \"#utility.yul\":698:797   */\n  swap2\n  pop\n    /* \"#utility.yul\":521:803   */\n  pop\n    /* \"#utility.yul\":448:803   */\n  swap3\n  swap2\n  pop\n  pop\n  jump\t// out\n    /* \"#utility.yul\":809:1662   */\ntag_3:\n    /* \"#utility.yul\":908:914   */\n  0x00\n    /* \"#utility.yul\":916:922   */\n  dup1\n    /* \"#utility.yul\":965:967   */\n  0x40\n    /* \"#utility.yul\":953:962   */\n  dup4\n    /* \"#utility.yul\":944:951   */\n  dup6\n    /* \"#utility.yul\":940:963   */\n  sub\n    /* \"#utility.yul\":936:968   */\n  slt\n    /* \"#utility.yul\":933:1052   */\n  iszero\n  tag_42\n  jumpi\n    /* \"#utility.yul\":971:1050   */\n  tag_43\n  tag_44\n  jump\t// in\ntag_43:\n    /* \"#utility.yul\":933:1052   */\ntag_42:\n    /* \"#utility.yul\":1112:1113   */\n  0x00\n    /* \"#utility.yul\":1101:1110   */\n  dup4\n    /* \"#utility.yul\":1097:1114   */\n  add\n    /* \"#utility.yul\":1091:1115   */\n  mload\n    /* \"#utility.yul\":1142:1160   */\n  0xffffffffffffffff\n    /* \"#utility.yul\":1134:1140   */\n  dup2\n    /* \"#utility.yul\":1131:1161   */\n  gt\n    /* \"#utility.yul\":1128:1245   */\n  iszero\n  tag_45\n  jumpi\n    /* \"#utility.yul\":1164:1243   */\n  tag_46\n  tag_47\n  jump\t// in\ntag_46:\n    /* \"#utility.yul\":1128:1245   */\ntag_45:\n    /* \"#utility.yul\":1269:1343   */\n  tag_48\n    /* \"#utility.yul\":1335:1342   */\n  dup6\n    /* \"#utility.yul\":1326:1332   */\n  dup3\n    /* \"#utility.yul\":1315:1324   */\n  dup7\n    /* \"#utility.yul\":1311:1333   */\n  add\n    /* \"#utility.yul\":1269:1343   */\n  tag_35\n  jump\t// in\ntag_48:\n    /* \"#utility.yul\":1259:1343   */\n  swap3\n  pop\n    /* \"#utility.yul\":1062:1353   */\n  pop\n    /* \"#utility.yul\":1413:1415   */\n  0x20\n    /* \"#utility.yul\":1402:1411   */\n  dup4\n    /* \"#utility.yul\":1398:1416   */\n  add\n    /* \"#utility.yul\":1392:1417   */\n  mload\n    /* \"#utility.yul\":1444:1462   */\n  0xffffffffffffffff\n    /* \"#utility.yul\":1436:1442   */\n  dup2\n    /* \"#utility.yul\":1433:1463   */\n  gt\n    /* \"#utility.yul\":1430:1547   */\n  iszero\n  tag_49\n  jumpi\n    /* \"#utility.yul\":1466:1545   */\n  tag_50\n  tag_47\n  jump\t// in\ntag_50:\n    /* \"#utility.yul\":1430:1547   */\ntag_49:\n    /* \"#utility.yul\":1571:1645   */\n  tag_51\n    /* \"#utility.yul\":1637:1644   */\n  dup6\n    /* \"#utility.yul\":1628:1634   */\n  dup3\n    /* \"#utility.yul\":1617:1626   */\n  dup7\n    /* \"#utility.yul\":1613:1635   */\n  add\n    /* \"#utility.yul\":1571:1645   */\n  tag_35\n  jump\t// in\ntag_51:\n    /* \"#utility.yul\":1561:1645   */\n  swap2\n  pop\n    /* \"#utility.yul\":1363:1655   */\n  pop\n    /* \"#utility.yul\":809:1662   */\n  swap3\n  pop\n  swap3\n  swap1\n  pop\n  jump\t// out\n    /* \"#utility.yul\":1668:1786   */\ntag_52:\n    /* \"#utility.yul\":1755:1779   */\n  tag_54\n    /* \"#utility.yul\":1773:1778   */\n  dup2\n    /* \"#utility.yul\":1755:1779   */\n  tag_55\n  jump\t// in\ntag_54:\n    /* \"#utility.yul\":1750:1753   */\n  dup3\n    /* \"#utility.yul\":1743:1780   */\n  mstore\n    /* \"#utility.yul\":1668:1786   */\n  pop\n  pop\n  jump\t// out\n    /* \"#utility.yul\":1792:2014   */\ntag_10:\n    /* \"#utility.yul\":1885:1889   */\n  0x00\n    /* \"#utility.yul\":1923:1925   */\n  0x20\n    /* \"#utility.yul\":1912:1921   */\n  dup3\n    /* \"#utility.yul\":1908:1926   */\n  add\n    /* \"#utility.yul\":1900:1926   */\n  swap1\n  pop\n    /* \"#utility.yul\":1936:2007   */\n  tag_57\n    /* \"#utility.yul\":2004:2005   */\n  0x00\n    /* \"#utility.yul\":1993:2002   */\n  dup4\n    /* \"#utility.yul\":1989:2006   */\n  add\n    /* \"#utility.yul\":1980:1986   */\n  dup5\n    /* \"#utility.yul\":1936:2007   */\n  tag_52\n  jump\t// in\ntag_57:\n    /* \"#utility.yul\":1792:2014   */\n  swap3\n  swap2\n  pop\n  pop\n  jump\t// out\n    /* \"#utility.yul\":2020:2149   */\ntag_29:\n    /* \"#utility.yul\":2054:2060   */\n  0x00\n    /* \"#utility.yul\":2081:2101   */\n  tag_59\n  tag_60\n  jump\t// in\ntag_59:\n    /* \"#utility.yul\":2071:2101   */\n  swap1\n  pop\n    /* \"#utility.yul\":2110:2143   */\n  tag_61\n    /* \"#utility.yul\":2138:2142   */\n  dup3\n    /* \"#utility.yul\":2130:2136   */\n  dup3\n    /* \"#utility.yul\":2110:2143   */\n  tag_62\n  jump\t// in\ntag_61:\n    /* \"#utility.yul\":2020:2149   */\n  swap2\n  swap1\n  pop\n  jump\t// out\n    /* \"#utility.yul\":2155:2230   */\ntag_60:\n    /* \"#utility.yul\":2188:2194   */\n  0x00\n    /* \"#utility.yul\":2221:2223   */\n  0x40\n    /* \"#utility.yul\":2215:2224   */\n  mload\n    /* \"#utility.yul\":2205:2224   */\n  swap1\n  pop\n    /* \"#utility.yul\":2155:2230   */\n  swap1\n  jump\t// out\n    /* \"#utility.yul\":2236:2544   */\ntag_28:\n    /* \"#utility.yul\":2298:2302   */\n  0x00\n    /* \"#utility.yul\":2388:2406   */\n  0xffffffffffffffff\n    /* \"#utility.yul\":2380:2386   */\n  dup3\n    /* \"#utility.yul\":2377:2407   */\n  gt\n    /* \"#utility.yul\":2374:2430   */\n  iszero\n  tag_65\n  jumpi\n    /* \"#utility.yul\":2410:2428   */\n  tag_66\n  tag_67\n  jump\t// in\ntag_66:\n    /* \"#utility.yul\":2374:2430   */\ntag_65:\n    /* \"#utility.yul\":2448:2477   */\n  tag_68\n    /* \"#utility.yul\":2470:2476   */\n  dup3\n    /* \"#utility.yul\":2448:2477   */\n  tag_69\n  jump\t// in\ntag_68:\n    /* \"#utility.yul\":2440:2477   */\n  swap1\n  pop\n    /* \"#utility.yul\":2532:2536   */\n  0x20\n    /* \"#utility.yul\":2526:2530   */\n  dup2\n    /* \"#utility.yul\":2522:2537   */\n  add\n    /* \"#utility.yul\":2514:2537   */\n  swap1\n  pop\n    /* \"#utility.yul\":2236:2544   */\n  swap2\n  swap1\n  pop\n  jump\t// out\n    /* \"#utility.yul\":2550:2627   */\ntag_55:\n    /* \"#utility.yul\":2587:2594   */\n  0x00\n    /* \"#utility.yul\":2616:2621   */\n  dup2\n    /* \"#utility.yul\":2605:2621   */\n  swap1\n  pop\n    /* \"#utility.yul\":2550:2627   */\n  swap2\n  swap1\n  pop\n  jump\t// out\n    /* \"#utility.yul\":2633:2940   */\ntag_34:\n    /* \"#utility.yul\":2701:2702   */\n  0x00\n    /* \"#utility.yul\":2711:2824   */\ntag_72:\n    /* \"#utility.yul\":2725:2731   */\n  dup4\n    /* \"#utility.yul\":2722:2723   */\n  dup2\n    /* \"#utility.yul\":2719:2732   */\n  lt\n    /* \"#utility.yul\":2711:2824   */\n  iszero\n  tag_74\n  jumpi\n    /* \"#utility.yul\":2810:2811   */\n  dup1\n    /* \"#utility.yul\":2805:2808   */\n  dup3\n    /* \"#utility.yul\":2801:2812   */\n  add\n    /* \"#utility.yul\":2795:2813   */\n  mload\n    /* \"#utility.yul\":2791:2792   */\n  dup2\n    /* \"#utility.yul\":2786:2789   */\n  dup5\n    /* \"#utility.yul\":2782:2793   */\n  add\n    /* \"#utility.yul\":2775:2814   */\n  mstore\n    /* \"#utility.yul\":2747:2749   */\n  0x20\n    /* \"#utility.yul\":2744:2745   */\n  dup2\n    /* \"#utility.yul\":2740:2750   */\n  add\n    /* \"#utility.yul\":2735:2750   */\n  swap1\n  pop\n    /* \"#utility.yul\":2711:2824   */\n  jump(tag_72)\ntag_74:\n    /* \"#utility.yul\":2842:2848   */\n  dup4\n    /* \"#utility.yul\":2839:2840   */\n  dup2\n    /* \"#utility.yul\":2836:2849   */\n  gt\n    /* \"#utility.yul\":2833:2934   */\n  iszero\n  tag_75\n  jumpi\n    /* \"#utility.yul\":2922:2923   */\n  0x00\n    /* \"#utility.yul\":2913:2919   */\n  dup5\n    /* \"#utility.yul\":2908:2911   */\n  dup5\n    /* \"#utility.yul\":2904:2920   */\n  add\n    /* \"#utility.yul\":2897:2924   */\n  mstore\n    /* \"#utility.yul\":2833:2934   */\ntag_75:\n    /* \"#utility.yul\":2682:2940   */\n  pop\n    /* \"#utility.yul\":2633:2940   */\n  pop\n  pop\n  pop\n  jump\t// out\n    /* \"#utility.yul\":2946:3266   */\ntag_13:\n    /* \"#utility.yul\":2990:2996   */\n  0x00\n    /* \"#utility.yul\":3027:3028   */\n  0x02\n    /* \"#utility.yul\":3021:3025   */\n  dup3\n    /* \"#utility.yul\":3017:3029   */\n  div\n    /* \"#utility.yul\":3007:3029   */\n  swap1\n  pop\n    /* \"#utility.yul\":3074:3075   */\n  0x01\n    /* \"#utility.yul\":3068:3072   */\n  dup3\n    /* \"#utility.yul\":3064:3076   */\n  and\n    /* \"#utility.yul\":3095:3113   */\n  dup1\n    /* \"#utility.yul\":3085:3166   */\n  tag_77\n  jumpi\n    /* \"#utility.yul\":3151:3155   */\n  0x7f\n    /* \"#utility.yul\":3143:3149   */\n  dup3\n    /* \"#utility.yul\":3139:3156   */\n  and\n    /* \"#utility.yul\":3129:3156   */\n  swap2\n  pop\n    /* \"#utility.yul\":3085:3166   */\ntag_77:\n    /* \"#utility.yul\":3213:3215   */\n  0x20\n    /* \"#utility.yul\":3205:3211   */\n  dup3\n    /* \"#utility.yul\":3202:3216   */\n  lt\n    /* \"#utility.yul\":3182:3200   */\n  dup2\n    /* \"#utility.yul\":3179:3217   */\n  eq\n    /* \"#utility.yul\":3176:3260   */\n  iszero\n  tag_78\n  jumpi\n    /* \"#utility.yul\":3232:3250   */\n  tag_79\n  tag_80\n  jump\t// in\ntag_79:\n    /* \"#utility.yul\":3176:3260   */\ntag_78:\n    /* \"#utility.yul\":2997:3266   */\n  pop\n    /* \"#utility.yul\":2946:3266   */\n  swap2\n  swap1\n  pop\n  jump\t// out\n    /* \"#utility.yul\":3272:3553   */\ntag_62:\n    /* \"#utility.yul\":3355:3382   */\n  tag_82\n    /* \"#utility.yul\":3377:3381   */\n  dup3\n    /* \"#utility.yul\":3355:3382   */\n  tag_69\n  jump\t// in\ntag_82:\n    /* \"#utility.yul\":3347:3353   */\n  dup2\n    /* \"#utility.yul\":3343:3383   */\n  add\n    /* \"#utility.yul\":3485:3491   */\n  dup2\n    /* \"#utility.yul\":3473:3483   */\n  dup2\n    /* \"#utility.yul\":3470:3492   */\n  lt\n    /* \"#utility.yul\":3449:3467   */\n  0xffffffffffffffff\n    /* \"#utility.yul\":3437:3447   */\n  dup3\n    /* \"#utility.yul\":3434:3468   */\n  gt\n    /* \"#utility.yul\":3431:3493   */\n  or\n    /* \"#utility.yul\":3428:3516   */\n  iszero\n  tag_83\n  jumpi\n    /* \"#utility.yul\":3496:3514   */\n  tag_84\n  tag_67\n  jump\t// in\ntag_84:\n    /* \"#utility.yul\":3428:3516   */\ntag_83:\n    /* \"#utility.yul\":3536:3546   */\n  dup1\n    /* \"#utility.yul\":3532:3534   */\n  0x40\n    /* \"#utility.yul\":3525:3547   */\n  mstore\n    /* \"#utility.yul\":3315:3553   */\n  pop\n    /* \"#utility.yul\":3272:3553   */\n  pop\n  pop\n  jump\t// out\n    /* \"#utility.yul\":3559:3739   */\ntag_80:\n    /* \"#utility.yul\":3607:3684   */\n  0x4e487b7100000000000000000000000000000000000000000000000000000000\n    /* \"#utility.yul\":3604:3605   */\n  0x00\n    /* \"#utility.yul\":3597:3685   */\n  mstore\n    /* \"#utility.yul\":3704:3708   */\n  0x22\n    /* \"#utility.yul\":3701:3702   */\n  0x04\n    /* \"#utility.yul\":3694:3709   */\n  mstore\n    /* \"#utility.yul\":3728:3732   */\n  0x24\n    /* \"#utility.yul\":3725:3726   */\n  0x00\n    /* \"#utility.yul\":3718:3733   */\n  revert\n    /* \"#utility.yul\":3745:3925   */\ntag_67:\n    /* \"#utility.yul\":3793:3870   */\n  0x4e487b7100000000000000000000000000000000000000000000000000000000\n    /* \"#utility.yul\":3790:3791   */\n  0x00\n    /* \"#utility.yul\":3783:3871   */\n  mstore\n    /* \"#utility.yul\":3890:3894   */\n  0x41\n    /* \"#utility.yul\":3887:3888   */\n  0x04\n    /* \"#utility.yul\":3880:3895   */\n  mstore\n    /* \"#utility.yul\":3914:3918   */\n  0x24\n    /* \"#utility.yul\":3911:3912   */\n  0x00\n    /* \"#utility.yul\":3904:3919   */\n  revert\n    /* \"#utility.yul\":3931:4048   */\ntag_39:\n    /* \"#utility.yul\":4040:4041   */\n  0x00\n    /* \"#utility.yul\":4037:4038   */\n  dup1\n    /* \"#utility.yul\":4030:4042   */\n  revert\n    /* \"#utility.yul\":4054:4171   */\ntag_32:\n    /* \"#utility.yul\":4163:4164   */\n  0x00\n    /* \"#utility.yul\":4160:4161   */\n  dup1\n    /* \"#utility.yul\":4153:4165   */\n  revert\n    /* \"#utility.yul\":4177:4294   */\ntag_47:\n    /* \"#utility.yul\":4286:4287   */\n  0x00\n    /* \"#utility.yul\":4283:4284   */\n  dup1\n    /* \"#utility.yul\":4276:4288   */\n  revert\n    /* \"#utility.yul\":4300:4417   */\ntag_44:\n    /* \"#utility.yul\":4409:4410   */\n  0x00\n    /* \"#utility.yul\":4406:4407   */\n  dup1\n    /* \"#utility.yul\":4399:4411   */\n  revert\n    /* \"#utility.yul\":4423:4525   */\ntag_69:\n    /* \"#utility.yul\":4464:4470   */\n  0x00\n    /* \"#utility.yul\":4515:4517   */\n  0x1f\n    /* \"#utility.yul\":4511:4518   */\n  not\n    /* \"#utility.yul\":4506:4508   */\n  0x1f\n    /* \"#utility.yul\":4499:4504   */\n  dup4\n    /* \"#utility.yul\":4495:4509   */\n  add\n    /* \"#utility.yul\":4491:4519   */\n  and\n    /* \"#utility.yul\":4481:4519   */\n  swap1\n  pop\n    /* \"#utility.yul\":4423:4525   */\n  swap2\n  swap1\n  pop\n  jump\t// out\n    /* \"contracts/TOKEN1.sol\":64:1349  contract TOKEN1{\r... */\ntag_11:\n  dataSize(sub_0)\n  dup1\n  dataOffset(sub_0)\n  0x00\n  codecopy\n  0x00\n  return\nstop\n\nsub_0: assembly {\n        /* \"contracts/TOKEN1.sol\":64:1349  contract TOKEN1{\r... */\n      mstore(0x40, 0x80)\n      callvalue\n      dup1\n      iszero\n      tag_1\n      jumpi\n      0x00\n      dup1\n      revert\n    tag_1:\n      pop\n      jumpi(tag_2, lt(calldatasize, 0x04))\n      shr(0xe0, calldataload(0x00))\n      dup1\n      0x313ce567\n      gt\n      tag_10\n      jumpi\n      dup1\n      0x313ce567\n      eq\n      tag_6\n      jumpi\n      dup1\n      0x70a08231\n      eq\n      tag_7\n      jumpi\n      dup1\n      0x95d89b41\n      eq\n      tag_8\n      jumpi\n      dup1\n      0xa9059cbb\n      eq\n      tag_9\n      jumpi\n      jump(tag_2)\n    tag_10:\n      dup1\n      0x06fdde03\n      eq\n      tag_3\n      jumpi\n      dup1\n      0x18160ddd\n      eq\n      tag_4\n      jumpi\n      dup1\n      0x23b872dd\n      eq\n      tag_5\n      jumpi\n    tag_2:\n      0x00\n      dup1\n      revert\n        /* \"contracts/TOKEN1.sol\":129:147  string public name */\n    tag_3:\n      tag_11\n      tag_12\n      jump\t// in\n    tag_11:\n      mload(0x40)\n      tag_13\n      swap2\n      swap1\n      tag_14\n      jump\t// in\n    tag_13:\n      mload(0x40)\n      dup1\n      swap2\n      sub\n      swap1\n      return\n        /* \"contracts/TOKEN1.sol\":86:122  uint public totalSupply = 1000000000 */\n    tag_4:\n      tag_15\n      tag_16\n      jump\t// in\n    tag_15:\n      mload(0x40)\n      tag_17\n      swap2\n      swap1\n      tag_18\n      jump\t// in\n    tag_17:\n      mload(0x40)\n      dup1\n      swap2\n      sub\n      swap1\n      return\n        /* \"contracts/TOKEN1.sol\":1028:1346  function transferFrom(address _from, address _to, uint256 _value) public returns (bool success){\r... */\n    tag_5:\n      tag_19\n      0x04\n      dup1\n      calldatasize\n      sub\n      dup2\n      add\n      swap1\n      tag_20\n      swap2\n      swap1\n      tag_21\n      jump\t// in\n    tag_20:\n      tag_22\n      jump\t// in\n    tag_19:\n      mload(0x40)\n      tag_23\n      swap2\n      swap1\n      tag_24\n      jump\t// in\n    tag_23:\n      mload(0x40)\n      dup1\n      swap2\n      sub\n      swap1\n      return\n        /* \"contracts/TOKEN1.sol\":181:201  uint public decimals */\n    tag_6:\n      tag_25\n      tag_26\n      jump\t// in\n    tag_25:\n      mload(0x40)\n      tag_27\n      swap2\n      swap1\n      tag_18\n      jump\t// in\n    tag_27:\n      mload(0x40)\n      dup1\n      swap2\n      sub\n      swap1\n      return\n        /* \"contracts/TOKEN1.sol\":584:698  function balanceOf(address _owner) public view returns (uint256 balance){\r... */\n    tag_7:\n      tag_28\n      0x04\n      dup1\n      calldatasize\n      sub\n      dup2\n      add\n      swap1\n      tag_29\n      swap2\n      swap1\n      tag_30\n      jump\t// in\n    tag_29:\n      tag_31\n      jump\t// in\n    tag_28:\n      mload(0x40)\n      tag_32\n      swap2\n      swap1\n      tag_18\n      jump\t// in\n    tag_32:\n      mload(0x40)\n      dup1\n      swap2\n      sub\n      swap1\n      return\n        /* \"contracts/TOKEN1.sol\":154:174  string public symbol */\n    tag_8:\n      tag_33\n      tag_34\n      jump\t// in\n    tag_33:\n      mload(0x40)\n      tag_35\n      swap2\n      swap1\n      tag_14\n      jump\t// in\n    tag_35:\n      mload(0x40)\n      dup1\n      swap2\n      sub\n      swap1\n      return\n        /* \"contracts/TOKEN1.sol\":706:1020  function transfer(address _to, uint256 _value) public returns (bool success){\r... */\n    tag_9:\n      tag_36\n      0x04\n      dup1\n      calldatasize\n      sub\n      dup2\n      add\n      swap1\n      tag_37\n      swap2\n      swap1\n      tag_38\n      jump\t// in\n    tag_37:\n      tag_39\n      jump\t// in\n    tag_36:\n      mload(0x40)\n      tag_40\n      swap2\n      swap1\n      tag_24\n      jump\t// in\n    tag_40:\n      mload(0x40)\n      dup1\n      swap2\n      sub\n      swap1\n      return\n        /* \"contracts/TOKEN1.sol\":129:147  string public name */\n    tag_12:\n      0x01\n      dup1\n      sload\n      tag_41\n      swap1\n      tag_42\n      jump\t// in\n    tag_41:\n      dup1\n      0x1f\n      add\n      0x20\n      dup1\n      swap2\n      div\n      mul\n      0x20\n      add\n      mload(0x40)\n      swap1\n      dup2\n      add\n      0x40\n      mstore\n      dup1\n      swap3\n      swap2\n      swap1\n      dup2\n      dup2\n      mstore\n      0x20\n      add\n      dup3\n      dup1\n      sload\n      tag_43\n      swap1\n      tag_42\n      jump\t// in\n    tag_43:\n      dup1\n      iszero\n      tag_44\n      jumpi\n      dup1\n      0x1f\n      lt\n      tag_45\n      jumpi\n      0x0100\n      dup1\n      dup4\n      sload\n      div\n      mul\n      dup4\n      mstore\n      swap2\n      0x20\n      add\n      swap2\n      jump(tag_44)\n    tag_45:\n      dup3\n      add\n      swap2\n      swap1\n      0x00\n      mstore\n      keccak256(0x00, 0x20)\n      swap1\n    tag_46:\n      dup2\n      sload\n      dup2\n      mstore\n      swap1\n      0x01\n      add\n      swap1\n      0x20\n      add\n      dup1\n      dup4\n      gt\n      tag_46\n      jumpi\n      dup3\n      swap1\n      sub\n      0x1f\n      and\n      dup3\n      add\n      swap2\n    tag_44:\n      pop\n      pop\n      pop\n      pop\n      pop\n      dup2\n      jump\t// out\n        /* \"contracts/TOKEN1.sol\":86:122  uint public totalSupply = 1000000000 */\n    tag_16:\n      sload(0x00)\n      dup2\n      jump\t// out\n        /* \"contracts/TOKEN1.sol\":1028:1346  function transferFrom(address _from, address _to, uint256 _value) public returns (bool success){\r... */\n    tag_22:\n        /* \"contracts/TOKEN1.sol\":1110:1122  bool success */\n      0x00\n        /* \"contracts/TOKEN1.sol\":1161:1167  _value */\n      dup2\n        /* \"contracts/TOKEN1.sol\":1142:1150  balances */\n      0x04\n        /* \"contracts/TOKEN1.sol\":1142:1157  balances[_from] */\n      0x00\n        /* \"contracts/TOKEN1.sol\":1151:1156  _from */\n      dup7\n        /* \"contracts/TOKEN1.sol\":1142:1157  balances[_from] */\n      0xffffffffffffffffffffffffffffffffffffffff\n      and\n      0xffffffffffffffffffffffffffffffffffffffff\n      and\n      dup2\n      mstore\n      0x20\n      add\n      swap1\n      dup2\n      mstore\n      0x20\n      add\n      0x00\n      keccak256\n      sload\n        /* \"contracts/TOKEN1.sol\":1142:1167  balances[_from] >= _value */\n      lt\n      iszero\n        /* \"contracts/TOKEN1.sol\":1134:1201  require(balances[_from] >= _value, \"Not enough token to transfer.\") */\n      tag_48\n      jumpi\n      mload(0x40)\n      0x08c379a000000000000000000000000000000000000000000000000000000000\n      dup2\n      mstore\n      0x04\n      add\n      tag_49\n      swap1\n      tag_50\n      jump\t// in\n    tag_49:\n      mload(0x40)\n      dup1\n      swap2\n      sub\n      swap1\n      revert\n    tag_48:\n        /* \"contracts/TOKEN1.sol\":1231:1237  _value */\n      dup2\n        /* \"contracts/TOKEN1.sol\":1212:1220  balances */\n      0x04\n        /* \"contracts/TOKEN1.sol\":1212:1227  balances[_from] */\n      0x00\n        /* \"contracts/TOKEN1.sol\":1221:1226  _from */\n      dup7\n        /* \"contracts/TOKEN1.sol\":1212:1227  balances[_from] */\n      0xffffffffffffffffffffffffffffffffffffffff\n      and\n      0xffffffffffffffffffffffffffffffffffffffff\n      and\n      dup2\n      mstore\n      0x20\n      add\n      swap1\n      dup2\n      mstore\n      0x20\n      add\n      0x00\n      keccak256\n      0x00\n        /* \"contracts/TOKEN1.sol\":1212:1237  balances[_from] -= _value */\n      dup3\n      dup3\n      sload\n      tag_51\n      swap2\n      swap1\n      tag_52\n      jump\t// in\n    tag_51:\n      swap3\n      pop\n      pop\n      dup2\n      swap1\n      sstore\n      pop\n        /* \"contracts/TOKEN1.sol\":1265:1271  _value */\n      dup2\n        /* \"contracts/TOKEN1.sol\":1248:1256  balances */\n      0x04\n        /* \"contracts/TOKEN1.sol\":1248:1261  balances[_to] */\n      0x00\n        /* \"contracts/TOKEN1.sol\":1257:1260  _to */\n      dup6\n        /* \"contracts/TOKEN1.sol\":1248:1261  balances[_to] */\n      0xffffffffffffffffffffffffffffffffffffffff\n      and\n      0xffffffffffffffffffffffffffffffffffffffff\n      and\n      dup2\n      mstore\n      0x20\n      add\n      swap1\n      dup2\n      mstore\n      0x20\n      add\n      0x00\n      keccak256\n      0x00\n        /* \"contracts/TOKEN1.sol\":1248:1271  balances[_to] += _value */\n      dup3\n      dup3\n      sload\n      tag_53\n      swap2\n      swap1\n      tag_54\n      jump\t// in\n    tag_53:\n      swap3\n      pop\n      pop\n      dup2\n      swap1\n      sstore\n      pop\n        /* \"contracts/TOKEN1.sol\":1303:1306  _to */\n      dup3\n        /* \"contracts/TOKEN1.sol\":1287:1315  Transfer(_from, _to, _value) */\n      0xffffffffffffffffffffffffffffffffffffffff\n      and\n        /* \"contracts/TOKEN1.sol\":1296:1301  _from */\n      dup5\n        /* \"contracts/TOKEN1.sol\":1287:1315  Transfer(_from, _to, _value) */\n      0xffffffffffffffffffffffffffffffffffffffff\n      and\n      0xddf252ad1be2c89b69c2b068fc378daa952ba7f163c4a11628f55a4df523b3ef\n        /* \"contracts/TOKEN1.sol\":1308:1314  _value */\n      dup5\n        /* \"contracts/TOKEN1.sol\":1287:1315  Transfer(_from, _to, _value) */\n      mload(0x40)\n      tag_55\n      swap2\n      swap1\n      tag_18\n      jump\t// in\n    tag_55:\n      mload(0x40)\n      dup1\n      swap2\n      sub\n      swap1\n      log3\n        /* \"contracts/TOKEN1.sol\":1333:1337  true */\n      0x01\n        /* \"contracts/TOKEN1.sol\":1326:1337  return true */\n      swap1\n      pop\n        /* \"contracts/TOKEN1.sol\":1028:1346  function transferFrom(address _from, address _to, uint256 _value) public returns (bool success){\r... */\n      swap4\n      swap3\n      pop\n      pop\n      pop\n      jump\t// out\n        /* \"contracts/TOKEN1.sol\":181:201  uint public decimals */\n    tag_26:\n      sload(0x03)\n      dup2\n      jump\t// out\n        /* \"contracts/TOKEN1.sol\":584:698  function balanceOf(address _owner) public view returns (uint256 balance){\r... */\n    tag_31:\n        /* \"contracts/TOKEN1.sol\":640:655  uint256 balance */\n      0x00\n        /* \"contracts/TOKEN1.sol\":674:682  balances */\n      0x04\n        /* \"contracts/TOKEN1.sol\":674:690  balances[_owner] */\n      0x00\n        /* \"contracts/TOKEN1.sol\":683:689  _owner */\n      dup4\n        /* \"contracts/TOKEN1.sol\":674:690  balances[_owner] */\n      0xffffffffffffffffffffffffffffffffffffffff\n      and\n      0xffffffffffffffffffffffffffffffffffffffff\n      and\n      dup2\n      mstore\n      0x20\n      add\n      swap1\n      dup2\n      mstore\n      0x20\n      add\n      0x00\n      keccak256\n      sload\n        /* \"contracts/TOKEN1.sol\":667:690  return balances[_owner] */\n      swap1\n      pop\n        /* \"contracts/TOKEN1.sol\":584:698  function balanceOf(address _owner) public view returns (uint256 balance){\r... */\n      swap2\n      swap1\n      pop\n      jump\t// out\n        /* \"contracts/TOKEN1.sol\":154:174  string public symbol */\n    tag_34:\n      0x02\n      dup1\n      sload\n      tag_57\n      swap1\n      tag_42\n      jump\t// in\n    tag_57:\n      dup1\n      0x1f\n      add\n      0x20\n      dup1\n      swap2\n      div\n      mul\n      0x20\n      add\n      mload(0x40)\n      swap1\n      dup2\n      add\n      0x40\n      mstore\n      dup1\n      swap3\n      swap2\n      swap1\n      dup2\n      dup2\n      mstore\n      0x20\n      add\n      dup3\n      dup1\n      sload\n      tag_58\n      swap1\n      tag_42\n      jump\t// in\n    tag_58:\n      dup1\n      iszero\n      tag_59\n      jumpi\n      dup1\n      0x1f\n      lt\n      tag_60\n      jumpi\n      0x0100\n      dup1\n      dup4\n      sload\n      div\n      mul\n      dup4\n      mstore\n      swap2\n      0x20\n      add\n      swap2\n      jump(tag_59)\n    tag_60:\n      dup3\n      add\n      swap2\n      swap1\n      0x00\n      mstore\n      keccak256(0x00, 0x20)\n      swap1\n    tag_61:\n      dup2\n      sload\n      dup2\n      mstore\n      swap1\n      0x01\n      add\n      swap1\n      0x20\n      add\n      dup1\n      dup4\n      gt\n      tag_61\n      jumpi\n      dup3\n      swap1\n      sub\n      0x1f\n      and\n      dup3\n      add\n      swap2\n    tag_59:\n      pop\n      pop\n      pop\n      pop\n      pop\n      dup2\n      jump\t// out\n        /* \"contracts/TOKEN1.sol\":706:1020  function transfer(address _to, uint256 _value) public returns (bool success){\r... */\n    tag_39:\n        /* \"contracts/TOKEN1.sol\":769:781  bool success */\n      0x00\n        /* \"contracts/TOKEN1.sol\":825:831  _value */\n      dup2\n        /* \"contracts/TOKEN1.sol\":801:809  balances */\n      0x04\n        /* \"contracts/TOKEN1.sol\":801:821  balances[msg.sender] */\n      0x00\n        /* \"contracts/TOKEN1.sol\":810:820  msg.sender */\n      caller\n        /* \"contracts/TOKEN1.sol\":801:821  balances[msg.sender] */\n      0xffffffffffffffffffffffffffffffffffffffff\n      and\n      0xffffffffffffffffffffffffffffffffffffffff\n      and\n      dup2\n      mstore\n      0x20\n      add\n      swap1\n      dup2\n      mstore\n      0x20\n      add\n      0x00\n      keccak256\n      sload\n        /* \"contracts/TOKEN1.sol\":801:831  balances[msg.sender] >= _value */\n      lt\n      iszero\n        /* \"contracts/TOKEN1.sol\":793:865  require(balances[msg.sender] >= _value, \"Not enough token to transfer.\") */\n      tag_63\n      jumpi\n      mload(0x40)\n      0x08c379a000000000000000000000000000000000000000000000000000000000\n      dup2\n      mstore\n      0x04\n      add\n      tag_64\n      swap1\n      tag_50\n      jump\t// in\n    tag_64:\n      mload(0x40)\n      dup1\n      swap2\n      sub\n      swap1\n      revert\n    tag_63:\n        /* \"contracts/TOKEN1.sol\":900:906  _value */\n      dup2\n        /* \"contracts/TOKEN1.sol\":876:884  balances */\n      0x04\n        /* \"contracts/TOKEN1.sol\":876:896  balances[msg.sender] */\n      0x00\n        /* \"contracts/TOKEN1.sol\":885:895  msg.sender */\n      caller\n        /* \"contracts/TOKEN1.sol\":876:896  balances[msg.sender] */\n      0xffffffffffffffffffffffffffffffffffffffff\n      and\n      0xffffffffffffffffffffffffffffffffffffffff\n      and\n      dup2\n      mstore\n      0x20\n      add\n      swap1\n      dup2\n      mstore\n      0x20\n      add\n      0x00\n      keccak256\n      0x00\n        /* \"contracts/TOKEN1.sol\":876:906  balances[msg.sender] -= _value */\n      dup3\n      dup3\n      sload\n      tag_65\n      swap2\n      swap1\n      tag_52\n      jump\t// in\n    tag_65:\n      swap3\n      pop\n      pop\n      dup2\n      swap1\n      sstore\n      pop\n        /* \"contracts/TOKEN1.sol\":934:940  _value */\n      dup2\n        /* \"contracts/TOKEN1.sol\":917:925  balances */\n      0x04\n        /* \"contracts/TOKEN1.sol\":917:930  balances[_to] */\n      0x00\n        /* \"contracts/TOKEN1.sol\":926:929  _to */\n      dup6\n        /* \"contracts/TOKEN1.sol\":917:930  balances[_to] */\n      0xffffffffffffffffffffffffffffffffffffffff\n      and\n      0xffffffffffffffffffffffffffffffffffffffff\n      and\n      dup2\n      mstore\n      0x20\n      add\n      swap1\n      dup2\n      mstore\n      0x20\n      add\n      0x00\n      keccak256\n      0x00\n        /* \"contracts/TOKEN1.sol\":917:940  balances[_to] += _value */\n      dup3\n      dup3\n      sload\n      tag_66\n      swap2\n      swap1\n      tag_54\n      jump\t// in\n    tag_66:\n      swap3\n      pop\n      pop\n      dup2\n      swap1\n      sstore\n      pop\n        /* \"contracts/TOKEN1.sol\":977:980  _to */\n      dup3\n        /* \"contracts/TOKEN1.sol\":956:989  Transfer(msg.sender, _to, _value) */\n      0xffffffffffffffffffffffffffffffffffffffff\n      and\n        /* \"contracts/TOKEN1.sol\":965:975  msg.sender */\n      caller\n        /* \"contracts/TOKEN1.sol\":956:989  Transfer(msg.sender, _to, _value) */\n      0xffffffffffffffffffffffffffffffffffffffff\n      and\n      0xddf252ad1be2c89b69c2b068fc378daa952ba7f163c4a11628f55a4df523b3ef\n        /* \"contracts/TOKEN1.sol\":982:988  _value */\n      dup5\n        /* \"contracts/TOKEN1.sol\":956:989  Transfer(msg.sender, _to, _value) */\n      mload(0x40)\n      tag_67\n      swap2\n      swap1\n      tag_18\n      jump\t// in\n    tag_67:\n      mload(0x40)\n      dup1\n      swap2\n      sub\n      swap1\n      log3\n        /* \"contracts/TOKEN1.sol\":1007:1011  true */\n      0x01\n        /* \"contracts/TOKEN1.sol\":1000:1011  return true */\n      swap1\n      pop\n        /* \"contracts/TOKEN1.sol\":706:1020  function transfer(address _to, uint256 _value) public returns (bool success){\r... */\n      swap3\n      swap2\n      pop\n      pop\n      jump\t// out\n        /* \"#utility.yul\":7:146   */\n    tag_69:\n        /* \"#utility.yul\":53:58   */\n      0x00\n        /* \"#utility.yul\":91:97   */\n      dup2\n        /* \"#utility.yul\":78:98   */\n      calldataload\n        /* \"#utility.yul\":69:98   */\n      swap1\n      pop\n        /* \"#utility.yul\":107:140   */\n      tag_71\n        /* \"#utility.yul\":134:139   */\n      dup2\n        /* \"#utility.yul\":107:140   */\n      tag_72\n      jump\t// in\n    tag_71:\n        /* \"#utility.yul\":7:146   */\n      swap3\n      swap2\n      pop\n      pop\n      jump\t// out\n        /* \"#utility.yul\":152:291   */\n    tag_73:\n        /* \"#utility.yul\":198:203   */\n      0x00\n        /* \"#utility.yul\":236:242   */\n      dup2\n        /* \"#utility.yul\":223:243   */\n      calldataload\n        /* \"#utility.yul\":214:243   */\n      swap1\n      pop\n        /* \"#utility.yul\":252:285   */\n      tag_75\n        /* \"#utility.yul\":279:284   */\n      dup2\n        /* \"#utility.yul\":252:285   */\n      tag_76\n      jump\t// in\n    tag_75:\n        /* \"#utility.yul\":152:291   */\n      swap3\n      swap2\n      pop\n      pop\n      jump\t// out\n        /* \"#utility.yul\":297:626   */\n    tag_30:\n        /* \"#utility.yul\":356:362   */\n      0x00\n        /* \"#utility.yul\":405:407   */\n      0x20\n        /* \"#utility.yul\":393:402   */\n      dup3\n        /* \"#utility.yul\":384:391   */\n      dup5\n        /* \"#utility.yul\":380:403   */\n      sub\n        /* \"#utility.yul\":376:408   */\n      slt\n        /* \"#utility.yul\":373:492   */\n      iszero\n      tag_78\n      jumpi\n        /* \"#utility.yul\":411:490   */\n      tag_79\n      tag_80\n      jump\t// in\n    tag_79:\n        /* \"#utility.yul\":373:492   */\n    tag_78:\n        /* \"#utility.yul\":531:532   */\n      0x00\n        /* \"#utility.yul\":556:609   */\n      tag_81\n        /* \"#utility.yul\":601:608   */\n      dup5\n        /* \"#utility.yul\":592:598   */\n      dup3\n        /* \"#utility.yul\":581:590   */\n      dup6\n        /* \"#utility.yul\":577:599   */\n      add\n        /* \"#utility.yul\":556:609   */\n      tag_69\n      jump\t// in\n    tag_81:\n        /* \"#utility.yul\":546:609   */\n      swap2\n      pop\n        /* \"#utility.yul\":502:619   */\n      pop\n        /* \"#utility.yul\":297:626   */\n      swap3\n      swap2\n      pop\n      pop\n      jump\t// out\n        /* \"#utility.yul\":632:1251   */\n    tag_21:\n        /* \"#utility.yul\":709:715   */\n      0x00\n        /* \"#utility.yul\":717:723   */\n      dup1\n        /* \"#utility.yul\":725:731   */\n      0x00\n        /* \"#utility.yul\":774:776   */\n      0x60\n        /* \"#utility.yul\":762:771   */\n      dup5\n        /* \"#utility.yul\":753:760   */\n      dup7\n        /* \"#utility.yul\":749:772   */\n      sub\n        /* \"#utility.yul\":745:777   */\n      slt\n        /* \"#utility.yul\":742:861   */\n      iszero\n      tag_83\n      jumpi\n        /* \"#utility.yul\":780:859   */\n      tag_84\n      tag_80\n      jump\t// in\n    tag_84:\n        /* \"#utility.yul\":742:861   */\n    tag_83:\n        /* \"#utility.yul\":900:901   */\n      0x00\n        /* \"#utility.yul\":925:978   */\n      tag_85\n        /* \"#utility.yul\":970:977   */\n      dup7\n        /* \"#utility.yul\":961:967   */\n      dup3\n        /* \"#utility.yul\":950:959   */\n      dup8\n        /* \"#utility.yul\":946:968   */\n      add\n        /* \"#utility.yul\":925:978   */\n      tag_69\n      jump\t// in\n    tag_85:\n        /* \"#utility.yul\":915:978   */\n      swap4\n      pop\n        /* \"#utility.yul\":871:988   */\n      pop\n        /* \"#utility.yul\":1027:1029   */\n      0x20\n        /* \"#utility.yul\":1053:1106   */\n      tag_86\n        /* \"#utility.yul\":1098:1105   */\n      dup7\n        /* \"#utility.yul\":1089:1095   */\n      dup3\n        /* \"#utility.yul\":1078:1087   */\n      dup8\n        /* \"#utility.yul\":1074:1096   */\n      add\n        /* \"#utility.yul\":1053:1106   */\n      tag_69\n      jump\t// in\n    tag_86:\n        /* \"#utility.yul\":1043:1106   */\n      swap3\n      pop\n        /* \"#utility.yul\":998:1116   */\n      pop\n        /* \"#utility.yul\":1155:1157   */\n      0x40\n        /* \"#utility.yul\":1181:1234   */\n      tag_87\n        /* \"#utility.yul\":1226:1233   */\n      dup7\n        /* \"#utility.yul\":1217:1223   */\n      dup3\n        /* \"#utility.yul\":1206:1215   */\n      dup8\n        /* \"#utility.yul\":1202:1224   */\n      add\n        /* \"#utility.yul\":1181:1234   */\n      tag_73\n      jump\t// in\n    tag_87:\n        /* \"#utility.yul\":1171:1234   */\n      swap2\n      pop\n        /* \"#utility.yul\":1126:1244   */\n      pop\n        /* \"#utility.yul\":632:1251   */\n      swap3\n      pop\n      swap3\n      pop\n      swap3\n      jump\t// out\n        /* \"#utility.yul\":1257:1731   */\n    tag_38:\n        /* \"#utility.yul\":1325:1331   */\n      0x00\n        /* \"#utility.yul\":1333:1339   */\n      dup1\n        /* \"#utility.yul\":1382:1384   */\n      0x40\n        /* \"#utility.yul\":1370:1379   */\n      dup4\n        /* \"#utility.yul\":1361:1368   */\n      dup6\n        /* \"#utility.yul\":1357:1380   */\n      sub\n        /* \"#utility.yul\":1353:1385   */\n      slt\n        /* \"#utility.yul\":1350:1469   */\n      iszero\n      tag_89\n      jumpi\n        /* \"#utility.yul\":1388:1467   */\n      tag_90\n      tag_80\n      jump\t// in\n    tag_90:\n        /* \"#utility.yul\":1350:1469   */\n    tag_89:\n        /* \"#utility.yul\":1508:1509   */\n      0x00\n        /* \"#utility.yul\":1533:1586   */\n      tag_91\n        /* \"#utility.yul\":1578:1585   */\n      dup6\n        /* \"#utility.yul\":1569:1575   */\n      dup3\n        /* \"#utility.yul\":1558:1567   */\n      dup7\n        /* \"#utility.yul\":1554:1576   */\n      add\n        /* \"#utility.yul\":1533:1586   */\n      tag_69\n      jump\t// in\n    tag_91:\n        /* \"#utility.yul\":1523:1586   */\n      swap3\n      pop\n        /* \"#utility.yul\":1479:1596   */\n      pop\n        /* \"#utility.yul\":1635:1637   */\n      0x20\n        /* \"#utility.yul\":1661:1714   */\n      tag_92\n        /* \"#utility.yul\":1706:1713   */\n      dup6\n        /* \"#utility.yul\":1697:1703   */\n      dup3\n        /* \"#utility.yul\":1686:1695   */\n      dup7\n        /* \"#utility.yul\":1682:1704   */\n      add\n        /* \"#utility.yul\":1661:1714   */\n      tag_73\n      jump\t// in\n    tag_92:\n        /* \"#utility.yul\":1651:1714   */\n      swap2\n      pop\n        /* \"#utility.yul\":1606:1724   */\n      pop\n        /* \"#utility.yul\":1257:1731   */\n      swap3\n      pop\n      swap3\n      swap1\n      pop\n      jump\t// out\n        /* \"#utility.yul\":1737:1846   */\n    tag_93:\n        /* \"#utility.yul\":1818:1839   */\n      tag_95\n        /* \"#utility.yul\":1833:1838   */\n      dup2\n        /* \"#utility.yul\":1818:1839   */\n      tag_96\n      jump\t// in\n    tag_95:\n        /* \"#utility.yul\":1813:1816   */\n      dup3\n        /* \"#utility.yul\":1806:1840   */\n      mstore\n        /* \"#utility.yul\":1737:1846   */\n      pop\n      pop\n      jump\t// out\n        /* \"#utility.yul\":1852:2216   */\n    tag_97:\n        /* \"#utility.yul\":1940:1943   */\n      0x00\n        /* \"#utility.yul\":1968:2007   */\n      tag_99\n        /* \"#utility.yul\":2001:2006   */\n      dup3\n        /* \"#utility.yul\":1968:2007   */\n      tag_100\n      jump\t// in\n    tag_99:\n        /* \"#utility.yul\":2023:2094   */\n      tag_101\n        /* \"#utility.yul\":2087:2093   */\n      dup2\n        /* \"#utility.yul\":2082:2085   */\n      dup6\n        /* \"#utility.yul\":2023:2094   */\n      tag_102\n      jump\t// in\n    tag_101:\n        /* \"#utility.yul\":2016:2094   */\n      swap4\n      pop\n        /* \"#utility.yul\":2103:2155   */\n      tag_103\n        /* \"#utility.yul\":2148:2154   */\n      dup2\n        /* \"#utility.yul\":2143:2146   */\n      dup6\n        /* \"#utility.yul\":2136:2140   */\n      0x20\n        /* \"#utility.yul\":2129:2134   */\n      dup7\n        /* \"#utility.yul\":2125:2141   */\n      add\n        /* \"#utility.yul\":2103:2155   */\n      tag_104\n      jump\t// in\n    tag_103:\n        /* \"#utility.yul\":2180:2209   */\n      tag_105\n        /* \"#utility.yul\":2202:2208   */\n      dup2\n        /* \"#utility.yul\":2180:2209   */\n      tag_106\n      jump\t// in\n    tag_105:\n        /* \"#utility.yul\":2175:2178   */\n      dup5\n        /* \"#utility.yul\":2171:2210   */\n      add\n        /* \"#utility.yul\":2164:2210   */\n      swap2\n      pop\n        /* \"#utility.yul\":1944:2216   */\n      pop\n        /* \"#utility.yul\":1852:2216   */\n      swap3\n      swap2\n      pop\n      pop\n      jump\t// out\n        /* \"#utility.yul\":2222:2588   */\n    tag_107:\n        /* \"#utility.yul\":2364:2367   */\n      0x00\n        /* \"#utility.yul\":2385:2452   */\n      tag_109\n        /* \"#utility.yul\":2449:2451   */\n      0x1d\n        /* \"#utility.yul\":2444:2447   */\n      dup4\n        /* \"#utility.yul\":2385:2452   */\n      tag_102\n      jump\t// in\n    tag_109:\n        /* \"#utility.yul\":2378:2452   */\n      swap2\n      pop\n        /* \"#utility.yul\":2461:2554   */\n      tag_110\n        /* \"#utility.yul\":2550:2553   */\n      dup3\n        /* \"#utility.yul\":2461:2554   */\n      tag_111\n      jump\t// in\n    tag_110:\n        /* \"#utility.yul\":2579:2581   */\n      0x20\n        /* \"#utility.yul\":2574:2577   */\n      dup3\n        /* \"#utility.yul\":2570:2582   */\n      add\n        /* \"#utility.yul\":2563:2582   */\n      swap1\n      pop\n        /* \"#utility.yul\":2222:2588   */\n      swap2\n      swap1\n      pop\n      jump\t// out\n        /* \"#utility.yul\":2594:2712   */\n    tag_112:\n        /* \"#utility.yul\":2681:2705   */\n      tag_114\n        /* \"#utility.yul\":2699:2704   */\n      dup2\n        /* \"#utility.yul\":2681:2705   */\n      tag_115\n      jump\t// in\n    tag_114:\n        /* \"#utility.yul\":2676:2679   */\n      dup3\n        /* \"#utility.yul\":2669:2706   */\n      mstore\n        /* \"#utility.yul\":2594:2712   */\n      pop\n      pop\n      jump\t// out\n        /* \"#utility.yul\":2718:2928   */\n    tag_24:\n        /* \"#utility.yul\":2805:2809   */\n      0x00\n        /* \"#utility.yul\":2843:2845   */\n      0x20\n        /* \"#utility.yul\":2832:2841   */\n      dup3\n        /* \"#utility.yul\":2828:2846   */\n      add\n        /* \"#utility.yul\":2820:2846   */\n      swap1\n      pop\n        /* \"#utility.yul\":2856:2921   */\n      tag_117\n        /* \"#utility.yul\":2918:2919   */\n      0x00\n        /* \"#utility.yul\":2907:2916   */\n      dup4\n        /* \"#utility.yul\":2903:2920   */\n      add\n        /* \"#utility.yul\":2894:2900   */\n      dup5\n        /* \"#utility.yul\":2856:2921   */\n      tag_93\n      jump\t// in\n    tag_117:\n        /* \"#utility.yul\":2718:2928   */\n      swap3\n      swap2\n      pop\n      pop\n      jump\t// out\n        /* \"#utility.yul\":2934:3247   */\n    tag_14:\n        /* \"#utility.yul\":3047:3051   */\n      0x00\n        /* \"#utility.yul\":3085:3087   */\n      0x20\n        /* \"#utility.yul\":3074:3083   */\n      dup3\n        /* \"#utility.yul\":3070:3088   */\n      add\n        /* \"#utility.yul\":3062:3088   */\n      swap1\n      pop\n        /* \"#utility.yul\":3134:3143   */\n      dup2\n        /* \"#utility.yul\":3128:3132   */\n      dup2\n        /* \"#utility.yul\":3124:3144   */\n      sub\n        /* \"#utility.yul\":3120:3121   */\n      0x00\n        /* \"#utility.yul\":3109:3118   */\n      dup4\n        /* \"#utility.yul\":3105:3122   */\n      add\n        /* \"#utility.yul\":3098:3145   */\n      mstore\n        /* \"#utility.yul\":3162:3240   */\n      tag_119\n        /* \"#utility.yul\":3235:3239   */\n      dup2\n        /* \"#utility.yul\":3226:3232   */\n      dup5\n        /* \"#utility.yul\":3162:3240   */\n      tag_97\n      jump\t// in\n    tag_119:\n        /* \"#utility.yul\":3154:3240   */\n      swap1\n      pop\n        /* \"#utility.yul\":2934:3247   */\n      swap3\n      swap2\n      pop\n      pop\n      jump\t// out\n        /* \"#utility.yul\":3253:3672   */\n    tag_50:\n        /* \"#utility.yul\":3419:3423   */\n      0x00\n        /* \"#utility.yul\":3457:3459   */\n      0x20\n        /* \"#utility.yul\":3446:3455   */\n      dup3\n        /* \"#utility.yul\":3442:3460   */\n      add\n        /* \"#utility.yul\":3434:3460   */\n      swap1\n      pop\n        /* \"#utility.yul\":3506:3515   */\n      dup2\n        /* \"#utility.yul\":3500:3504   */\n      dup2\n        /* \"#utility.yul\":3496:3516   */\n      sub\n        /* \"#utility.yul\":3492:3493   */\n      0x00\n        /* \"#utility.yul\":3481:3490   */\n      dup4\n        /* \"#utility.yul\":3477:3494   */\n      add\n        /* \"#utility.yul\":3470:3517   */\n      mstore\n        /* \"#utility.yul\":3534:3665   */\n      tag_121\n        /* \"#utility.yul\":3660:3664   */\n      dup2\n        /* \"#utility.yul\":3534:3665   */\n      tag_107\n      jump\t// in\n    tag_121:\n        /* \"#utility.yul\":3526:3665   */\n      swap1\n      pop\n        /* \"#utility.yul\":3253:3672   */\n      swap2\n      swap1\n      pop\n      jump\t// out\n        /* \"#utility.yul\":3678:3900   */\n    tag_18:\n        /* \"#utility.yul\":3771:3775   */\n      0x00\n        /* \"#utility.yul\":3809:3811   */\n      0x20\n        /* \"#utility.yul\":3798:3807   */\n      dup3\n        /* \"#utility.yul\":3794:3812   */\n      add\n        /* \"#utility.yul\":3786:3812   */\n      swap1\n      pop\n        /* \"#utility.yul\":3822:3893   */\n      tag_123\n        /* \"#utility.yul\":3890:3891   */\n      0x00\n        /* \"#utility.yul\":3879:3888   */\n      dup4\n        /* \"#utility.yul\":3875:3892   */\n      add\n        /* \"#utility.yul\":3866:3872   */\n      dup5\n        /* \"#utility.yul\":3822:3893   */\n      tag_112\n      jump\t// in\n    tag_123:\n        /* \"#utility.yul\":3678:3900   */\n      swap3\n      swap2\n      pop\n      pop\n      jump\t// out\n        /* \"#utility.yul\":3987:4086   */\n    tag_100:\n        /* \"#utility.yul\":4039:4045   */\n      0x00\n        /* \"#utility.yul\":4073:4078   */\n      dup2\n        /* \"#utility.yul\":4067:4079   */\n      mload\n        /* \"#utility.yul\":4057:4079   */\n      swap1\n      pop\n        /* \"#utility.yul\":3987:4086   */\n      swap2\n      swap1\n      pop\n      jump\t// out\n        /* \"#utility.yul\":4092:4261   */\n    tag_102:\n        /* \"#utility.yul\":4176:4187   */\n      0x00\n        /* \"#utility.yul\":4210:4216   */\n      dup3\n        /* \"#utility.yul\":4205:4208   */\n      dup3\n        /* \"#utility.yul\":4198:4217   */\n      mstore\n        /* \"#utility.yul\":4250:4254   */\n      0x20\n        /* \"#utility.yul\":4245:4248   */\n      dup3\n        /* \"#utility.yul\":4241:4255   */\n      add\n        /* \"#utility.yul\":4226:4255   */\n      swap1\n      pop\n        /* \"#utility.yul\":4092:4261   */\n      swap3\n      swap2\n      pop\n      pop\n      jump\t// out\n        /* \"#utility.yul\":4267:4572   */\n    tag_54:\n        /* \"#utility.yul\":4307:4310   */\n      0x00\n        /* \"#utility.yul\":4326:4346   */\n      tag_129\n        /* \"#utility.yul\":4344:4345   */\n      dup3\n        /* \"#utility.yul\":4326:4346   */\n      tag_115\n      jump\t// in\n    tag_129:\n        /* \"#utility.yul\":4321:4346   */\n      swap2\n      pop\n        /* \"#utility.yul\":4360:4380   */\n      tag_130\n        /* \"#utility.yul\":4378:4379   */\n      dup4\n        /* \"#utility.yul\":4360:4380   */\n      tag_115\n      jump\t// in\n    tag_130:\n        /* \"#utility.yul\":4355:4380   */\n      swap3\n      pop\n        /* \"#utility.yul\":4514:4515   */\n      dup3\n        /* \"#utility.yul\":4446:4512   */\n      0xffffffffffffffffffffffffffffffffffffffffffffffffffffffffffffffff\n        /* \"#utility.yul\":4442:4516   */\n      sub\n        /* \"#utility.yul\":4439:4440   */\n      dup3\n        /* \"#utility.yul\":4436:4517   */\n      gt\n        /* \"#utility.yul\":4433:4540   */\n      iszero\n      tag_131\n      jumpi\n        /* \"#utility.yul\":4520:4538   */\n      tag_132\n      tag_133\n      jump\t// in\n    tag_132:\n        /* \"#utility.yul\":4433:4540   */\n    tag_131:\n        /* \"#utility.yul\":4564:4565   */\n      dup3\n        /* \"#utility.yul\":4561:4562   */\n      dup3\n        /* \"#utility.yul\":4557:4566   */\n      add\n        /* \"#utility.yul\":4550:4566   */\n      swap1\n      pop\n        /* \"#utility.yul\":4267:4572   */\n      swap3\n      swap2\n      pop\n      pop\n      jump\t// out\n        /* \"#utility.yul\":4578:4769   */\n    tag_52:\n        /* \"#utility.yul\":4618:4622   */\n      0x00\n        /* \"#utility.yul\":4638:4658   */\n      tag_135\n        /* \"#utility.yul\":4656:4657   */\n      dup3\n        /* \"#utility.yul\":4638:4658   */\n      tag_115\n      jump\t// in\n    tag_135:\n        /* \"#utility.yul\":4633:4658   */\n      swap2\n      pop\n        /* \"#utility.yul\":4672:4692   */\n      tag_136\n        /* \"#utility.yul\":4690:4691   */\n      dup4\n        /* \"#utility.yul\":4672:4692   */\n      tag_115\n      jump\t// in\n    tag_136:\n        /* \"#utility.yul\":4667:4692   */\n      swap3\n      pop\n        /* \"#utility.yul\":4711:4712   */\n      dup3\n        /* \"#utility.yul\":4708:4709   */\n      dup3\n        /* \"#utility.yul\":4705:4713   */\n      lt\n        /* \"#utility.yul\":4702:4736   */\n      iszero\n      tag_137\n      jumpi\n        /* \"#utility.yul\":4716:4734   */\n      tag_138\n      tag_133\n      jump\t// in\n    tag_138:\n        /* \"#utility.yul\":4702:4736   */\n    tag_137:\n        /* \"#utility.yul\":4761:4762   */\n      dup3\n        /* \"#utility.yul\":4758:4759   */\n      dup3\n        /* \"#utility.yul\":4754:4763   */\n      sub\n        /* \"#utility.yul\":4746:4763   */\n      swap1\n      pop\n        /* \"#utility.yul\":4578:4769   */\n      swap3\n      swap2\n      pop\n      pop\n      jump\t// out\n        /* \"#utility.yul\":4775:4871   */\n    tag_139:\n        /* \"#utility.yul\":4812:4819   */\n      0x00\n        /* \"#utility.yul\":4841:4865   */\n      tag_141\n        /* \"#utility.yul\":4859:4864   */\n      dup3\n        /* \"#utility.yul\":4841:4865   */\n      tag_142\n      jump\t// in\n    tag_141:\n        /* \"#utility.yul\":4830:4865   */\n      swap1\n      pop\n        /* \"#utility.yul\":4775:4871   */\n      swap2\n      swap1\n      pop\n      jump\t// out\n        /* \"#utility.yul\":4877:4967   */\n    tag_96:\n        /* \"#utility.yul\":4911:4918   */\n      0x00\n        /* \"#utility.yul\":4954:4959   */\n      dup2\n        /* \"#utility.yul\":4947:4960   */\n      iszero\n        /* \"#utility.yul\":4940:4961   */\n      iszero\n        /* \"#utility.yul\":4929:4961   */\n      swap1\n      pop\n        /* \"#utility.yul\":4877:4967   */\n      swap2\n      swap1\n      pop\n      jump\t// out\n        /* \"#utility.yul\":4973:5099   */\n    tag_142:\n        /* \"#utility.yul\":5010:5017   */\n      0x00\n        /* \"#utility.yul\":5050:5092   */\n      0xffffffffffffffffffffffffffffffffffffffff\n        /* \"#utility.yul\":5043:5048   */\n      dup3\n        /* \"#utility.yul\":5039:5093   */\n      and\n        /* \"#utility.yul\":5028:5093   */\n      swap1\n      pop\n        /* \"#utility.yul\":4973:5099   */\n      swap2\n      swap1\n      pop\n      jump\t// out\n        /* \"#utility.yul\":5105:5182   */\n    tag_115:\n        /* \"#utility.yul\":5142:5149   */\n      0x00\n        /* \"#utility.yul\":5171:5176   */\n      dup2\n        /* \"#utility.yul\":5160:5176   */\n      swap1\n      pop\n        /* \"#utility.yul\":5105:5182   */\n      swap2\n      swap1\n      pop\n      jump\t// out\n        /* \"#utility.yul\":5188:5495   */\n    tag_104:\n        /* \"#utility.yul\":5256:5257   */\n      0x00\n        /* \"#utility.yul\":5266:5379   */\n    tag_147:\n        /* \"#utility.yul\":5280:5286   */\n      dup4\n        /* \"#utility.yul\":5277:5278   */\n      dup2\n        /* \"#utility.yul\":5274:5287   */\n      lt\n        /* \"#utility.yul\":5266:5379   */\n      iszero\n      tag_149\n      jumpi\n        /* \"#utility.yul\":5365:5366   */\n      dup1\n        /* \"#utility.yul\":5360:5363   */\n      dup3\n        /* \"#utility.yul\":5356:5367   */\n      add\n        /* \"#utility.yul\":5350:5368   */\n      mload\n        /* \"#utility.yul\":5346:5347   */\n      dup2\n        /* \"#utility.yul\":5341:5344   */\n      dup5\n        /* \"#utility.yul\":5337:5348   */\n      add\n        /* \"#utility.yul\":5330:5369   */\n      mstore\n        /* \"#utility.yul\":5302:5304   */\n      0x20\n        /* \"#utility.yul\":5299:5300   */\n      dup2\n        /* \"#utility.yul\":5295:5305   */\n      add\n        /* \"#utility.yul\":5290:5305   */\n      swap1\n      pop\n        /* \"#utility.yul\":5266:5379   */\n      jump(tag_147)\n    tag_149:\n        /* \"#utility.yul\":5397:5403   */\n      dup4\n        /* \"#utility.yul\":5394:5395   */\n      dup2\n        /* \"#utility.yul\":5391:5404   */\n      gt\n        /* \"#utility.yul\":5388:5489   */\n      iszero\n      tag_150\n      jumpi\n        /* \"#utility.yul\":5477:5478   */\n      0x00\n        /* \"#utility.yul\":5468:5474   */\n      dup5\n        /* \"#utility.yul\":5463:5466   */\n      dup5\n        /* \"#utility.yul\":5459:5475   */\n      add\n        /* \"#utility.yul\":5452:5479   */\n      mstore\n        /* \"#utility.yul\":5388:5489   */\n    tag_150:\n        /* \"#utility.yul\":5237:5495   */\n      pop\n        /* \"#utility.yul\":5188:5495   */\n      pop\n      pop\n      pop\n      jump\t// out\n        /* \"#utility.yul\":5501:5821   */\n    tag_42:\n        /* \"#utility.yul\":5545:5551   */\n      0x00\n        /* \"#utility.yul\":5582:5583   */\n      0x02\n        /* \"#utility.yul\":5576:5580   */\n      dup3\n        /* \"#utility.yul\":5572:5584   */\n      div\n        /* \"#utility.yul\":5562:5584   */\n      swap1\n      pop\n        /* \"#utility.yul\":5629:5630   */\n      0x01\n        /* \"#utility.yul\":5623:5627   */\n      dup3\n        /* \"#utility.yul\":5619:5631   */\n      and\n        /* \"#utility.yul\":5650:5668   */\n      dup1\n        /* \"#utility.yul\":5640:5721   */\n      tag_152\n      jumpi\n        /* \"#utility.yul\":5706:5710   */\n      0x7f\n        /* \"#utility.yul\":5698:5704   */\n      dup3\n        /* \"#utility.yul\":5694:5711   */\n      and\n        /* \"#utility.yul\":5684:5711   */\n      swap2\n      pop\n        /* \"#utility.yul\":5640:5721   */\n    tag_152:\n        /* \"#utility.yul\":5768:5770   */\n      0x20\n        /* \"#utility.yul\":5760:5766   */\n      dup3\n        /* \"#utility.yul\":5757:5771   */\n      lt\n        /* \"#utility.yul\":5737:5755   */\n      dup2\n        /* \"#utility.yul\":5734:5772   */\n      eq\n        /* \"#utility.yul\":5731:5815   */\n      iszero\n      tag_153\n      jumpi\n        /* \"#utility.yul\":5787:5805   */\n      tag_154\n      tag_155\n      jump\t// in\n    tag_154:\n        /* \"#utility.yul\":5731:5815   */\n    tag_153:\n        /* \"#utility.yul\":5552:5821   */\n      pop\n        /* \"#utility.yul\":5501:5821   */\n      swap2\n      swap1\n      pop\n      jump\t// out\n        /* \"#utility.yul\":5827:6007   */\n    tag_133:\n        /* \"#utility.yul\":5875:5952   */\n      0x4e487b7100000000000000000000000000000000000000000000000000000000\n        /* \"#utility.yul\":5872:5873   */\n      0x00\n        /* \"#utility.yul\":5865:5953   */\n      mstore\n        /* \"#utility.yul\":5972:5976   */\n      0x11\n        /* \"#utility.yul\":5969:5970   */\n      0x04\n        /* \"#utility.yul\":5962:5977   */\n      mstore\n        /* \"#utility.yul\":5996:6000   */\n      0x24\n        /* \"#utility.yul\":5993:5994   */\n      0x00\n        /* \"#utility.yul\":5986:6001   */\n      revert\n        /* \"#utility.yul\":6013:6193   */\n    tag_155:\n        /* \"#utility.yul\":6061:6138   */\n      0x4e487b7100000000000000000000000000000000000000000000000000000000\n        /* \"#utility.yul\":6058:6059   */\n      0x00\n        /* \"#utility.yul\":6051:6139   */\n      mstore\n        /* \"#utility.yul\":6158:6162   */\n      0x22\n        /* \"#utility.yul\":6155:6156   */\n      0x04\n        /* \"#utility.yul\":6148:6163   */\n      mstore\n        /* \"#utility.yul\":6182:6186   */\n      0x24\n        /* \"#utility.yul\":6179:6180   */\n      0x00\n        /* \"#utility.yul\":6172:6187   */\n      revert\n        /* \"#utility.yul\":6322:6439   */\n    tag_80:\n        /* \"#utility.yul\":6431:6432   */\n      0x00\n        /* \"#utility.yul\":6428:6429   */\n      dup1\n        /* \"#utility.yul\":6421:6433   */\n      revert\n        /* \"#utility.yul\":6445:6547   */\n    tag_106:\n        /* \"#utility.yul\":6486:6492   */\n      0x00\n        /* \"#utility.yul\":6537:6539   */\n      0x1f\n        /* \"#utility.yul\":6533:6540   */\n      not\n        /* \"#utility.yul\":6528:6530   */\n      0x1f\n        /* \"#utility.yul\":6521:6526   */\n      dup4\n        /* \"#utility.yul\":6517:6531   */\n      add\n        /* \"#utility.yul\":6513:6541   */\n      and\n        /* \"#utility.yul\":6503:6541   */\n      swap1\n      pop\n        /* \"#utility.yul\":6445:6547   */\n      swap2\n      swap1\n      pop\n      jump\t// out\n        /* \"#utility.yul\":6553:6732   */\n    tag_111:\n        /* \"#utility.yul\":6693:6724   */\n      0x4e6f7420656e6f75676820746f6b656e20746f207472616e736665722e000000\n        /* \"#utility.yul\":6689:6690   */\n      0x00\n        /* \"#utility.yul\":6681:6687   */\n      dup3\n        /* \"#utility.yul\":6677:6691   */\n      add\n        /* \"#utility.yul\":6670:6725   */\n      mstore\n        /* \"#utility.yul\":6553:6732   */\n      pop\n      jump\t// out\n        /* \"#utility.yul\":6738:6860   */\n    tag_72:\n        /* \"#utility.yul\":6811:6835   */\n      tag_164\n        /* \"#utility.yul\":6829:6834   */\n      dup2\n        /* \"#utility.yul\":6811:6835   */\n      tag_139\n      jump\t// in\n    tag_164:\n        /* \"#utility.yul\":6804:6809   */\n      dup2\n        /* \"#utility.yul\":6801:6836   */\n      eq\n        /* \"#utility.yul\":6791:6854   */\n      tag_165\n      jumpi\n        /* \"#utility.yul\":6850:6851   */\n      0x00\n        /* \"#utility.yul\":6847:6848   */\n      dup1\n        /* \"#utility.yul\":6840:6852   */\n      revert\n        /* \"#utility.yul\":6791:6854   */\n    tag_165:\n        /* \"#utility.yul\":6738:6860   */\n      pop\n      jump\t// out\n        /* \"#utility.yul\":6866:6988   */\n    tag_76:\n        /* \"#utility.yul\":6939:6963   */\n      tag_167\n        /* \"#utility.yul\":6957:6962   */\n      dup2\n        /* \"#utility.yul\":6939:6963   */\n      tag_115\n      jump\t// in\n    tag_167:\n        /* \"#utility.yul\":6932:6937   */\n      dup2\n        /* \"#utility.yul\":6929:6964   */\n      eq\n        /* \"#utility.yul\":6919:6982   */\n      tag_168\n      jumpi\n        /* \"#utility.yul\":6978:6979   */\n      0x00\n        /* \"#utility.yul\":6975:6976   */\n      dup1\n        /* \"#utility.yul\":6968:6980   */\n      revert\n        /* \"#utility.yul\":6919:6982   */\n    tag_168:\n        /* \"#utility.yul\":6866:6988   */\n      pop\n      jump\t// out\n\n    auxdata: 0xa264697066735822122086a819f27efd29e7384d61cad17d714ecaeace5f176d5408abbb45871a6dde7564736f6c63430008070033\n}\n",
				"bytecode": {
					"linkReferences": {},
					"object": "6080604052633b9aca006000553480156200001957600080fd5b5060405162000f1a38038062000f1a83398181016040528101906200003f91906200025f565b81600190805190602001906200005792919062000131565b5080600290805190602001906200007092919062000131565b506012600381905550600054600460003373ffffffffffffffffffffffffffffffffffffffff1673ffffffffffffffffffffffffffffffffffffffff168152602001908152602001600020819055503373ffffffffffffffffffffffffffffffffffffffff16600073ffffffffffffffffffffffffffffffffffffffff167fddf252ad1be2c89b69c2b068fc378daa952ba7f163c4a11628f55a4df523b3ef600054604051620001219190620002f5565b60405180910390a35050620004a0565b8280546200013f90620003b1565b90600052602060002090601f016020900481019282620001635760008555620001af565b82601f106200017e57805160ff1916838001178555620001af565b82800160010185558215620001af579182015b82811115620001ae57825182559160200191906001019062000191565b5b509050620001be9190620001c2565b5090565b5b80821115620001dd576000816000905550600101620001c3565b5090565b6000620001f8620001f2846200033b565b62000312565b90508281526020810184848401111562000217576200021662000480565b5b620002248482856200037b565b509392505050565b600082601f8301126200024457620002436200047b565b5b815162000256848260208601620001e1565b91505092915050565b600080604083850312156200027957620002786200048a565b5b600083015167ffffffffffffffff8111156200029a576200029962000485565b5b620002a8858286016200022c565b925050602083015167ffffffffffffffff811115620002cc57620002cb62000485565b5b620002da858286016200022c565b9150509250929050565b620002ef8162000371565b82525050565b60006020820190506200030c6000830184620002e4565b92915050565b60006200031e62000331565b90506200032c8282620003e7565b919050565b6000604051905090565b600067ffffffffffffffff8211156200035957620003586200044c565b5b62000364826200048f565b9050602081019050919050565b6000819050919050565b60005b838110156200039b5780820151818401526020810190506200037e565b83811115620003ab576000848401525b50505050565b60006002820490506001821680620003ca57607f821691505b60208210811415620003e157620003e06200041d565b5b50919050565b620003f2826200048f565b810181811067ffffffffffffffff821117156200041457620004136200044c565b5b80604052505050565b7f4e487b7100000000000000000000000000000000000000000000000000000000600052602260045260246000fd5b7f4e487b7100000000000000000000000000000000000000000000000000000000600052604160045260246000fd5b600080fd5b600080fd5b600080fd5b600080fd5b6000601f19601f8301169050919050565b610a6a80620004b06000396000f3fe608060405234801561001057600080fd5b506004361061007d5760003560e01c8063313ce5671161005b578063313ce567146100ee57806370a082311461010c57806395d89b411461013c578063a9059cbb1461015a5761007d565b806306fdde031461008257806318160ddd146100a057806323b872dd146100be575b600080fd5b61008a61018a565b60405161009791906107b9565b60405180910390f35b6100a8610218565b6040516100b591906107fb565b60405180910390f35b6100d860048036038101906100d39190610691565b61021e565b6040516100e5919061079e565b60405180910390f35b6100f66103be565b60405161010391906107fb565b60405180910390f35b61012660048036038101906101219190610664565b6103c4565b60405161013391906107fb565b60405180910390f35b61014461040d565b60405161015191906107b9565b60405180910390f35b610174600480360381019061016f91906106e4565b61049b565b604051610181919061079e565b60405180910390f35b6001805461019790610937565b80601f01602080910402602001604051908101604052809291908181526020018280546101c390610937565b80156102105780601f106101e557610100808354040283529160200191610210565b820191906000526020600020905b8154815290600101906020018083116101f357829003601f168201915b505050505081565b60005481565b600081600460008673ffffffffffffffffffffffffffffffffffffffff1673ffffffffffffffffffffffffffffffffffffffff1681526020019081526020016000205410156102a2576040517f08c379a0000000000000000000000000000000000000000000000000000000008152600401610299906107db565b60405180910390fd5b81600460008673ffffffffffffffffffffffffffffffffffffffff1673ffffffffffffffffffffffffffffffffffffffff16815260200190815260200160002060008282546102f19190610888565b9250508190555081600460008573ffffffffffffffffffffffffffffffffffffffff1673ffffffffffffffffffffffffffffffffffffffff16815260200190815260200160002060008282546103479190610832565b925050819055508273ffffffffffffffffffffffffffffffffffffffff168473ffffffffffffffffffffffffffffffffffffffff167fddf252ad1be2c89b69c2b068fc378daa952ba7f163c4a11628f55a4df523b3ef846040516103ab91906107fb565b60405180910390a3600190509392505050565b60035481565b6000600460008373ffffffffffffffffffffffffffffffffffffffff1673ffffffffffffffffffffffffffffffffffffffff168152602001908152602001600020549050919050565b6002805461041a90610937565b80601f016020809104026020016040519081016040528092919081815260200182805461044690610937565b80156104935780601f1061046857610100808354040283529160200191610493565b820191906000526020600020905b81548152906001019060200180831161047657829003601f168201915b505050505081565b600081600460003373ffffffffffffffffffffffffffffffffffffffff1673ffffffffffffffffffffffffffffffffffffffff16815260200190815260200160002054101561051f576040517f08c379a0000000000000000000000000000000000000000000000000000000008152600401610516906107db565b60405180910390fd5b81600460003373ffffffffffffffffffffffffffffffffffffffff1673ffffffffffffffffffffffffffffffffffffffff168152602001908152602001600020600082825461056e9190610888565b9250508190555081600460008573ffffffffffffffffffffffffffffffffffffffff1673ffffffffffffffffffffffffffffffffffffffff16815260200190815260200160002060008282546105c49190610832565b925050819055508273ffffffffffffffffffffffffffffffffffffffff163373ffffffffffffffffffffffffffffffffffffffff167fddf252ad1be2c89b69c2b068fc378daa952ba7f163c4a11628f55a4df523b3ef8460405161062891906107fb565b60405180910390a36001905092915050565b60008135905061064981610a06565b92915050565b60008135905061065e81610a1d565b92915050565b60006020828403121561067a576106796109c7565b5b60006106888482850161063a565b91505092915050565b6000806000606084860312156106aa576106a96109c7565b5b60006106b88682870161063a565b93505060206106c98682870161063a565b92505060406106da8682870161064f565b9150509250925092565b600080604083850312156106fb576106fa6109c7565b5b60006107098582860161063a565b925050602061071a8582860161064f565b9150509250929050565b61072d816108ce565b82525050565b600061073e82610816565b6107488185610821565b9350610758818560208601610904565b610761816109cc565b840191505092915050565b6000610779601d83610821565b9150610784826109dd565b602082019050919050565b610798816108fa565b82525050565b60006020820190506107b36000830184610724565b92915050565b600060208201905081810360008301526107d38184610733565b905092915050565b600060208201905081810360008301526107f48161076c565b9050919050565b6000602082019050610810600083018461078f565b92915050565b600081519050919050565b600082825260208201905092915050565b600061083d826108fa565b9150610848836108fa565b9250827fffffffffffffffffffffffffffffffffffffffffffffffffffffffffffffffff0382111561087d5761087c610969565b5b828201905092915050565b6000610893826108fa565b915061089e836108fa565b9250828210156108b1576108b0610969565b5b828203905092915050565b60006108c7826108da565b9050919050565b60008115159050919050565b600073ffffffffffffffffffffffffffffffffffffffff82169050919050565b6000819050919050565b60005b83811015610922578082015181840152602081019050610907565b83811115610931576000848401525b50505050565b6000600282049050600182168061094f57607f821691505b6020821081141561096357610962610998565b5b50919050565b7f4e487b7100000000000000000000000000000000000000000000000000000000600052601160045260246000fd5b7f4e487b7100000000000000000000000000000000000000000000000000000000600052602260045260246000fd5b600080fd5b6000601f19601f8301169050919050565b7f4e6f7420656e6f75676820746f6b656e20746f207472616e736665722e000000600082015250565b610a0f816108bc565b8114610a1a57600080fd5b50565b610a26816108fa565b8114610a3157600080fd5b5056fea264697066735822122086a819f27efd29e7384d61cad17d714ecaeace5f176d5408abbb45871a6dde7564736f6c63430008070033",
					"opcodes": "PUSH1 0x80 PUSH1 0x40 MSTORE PUSH4 0x3B9ACA00 PUSH1 0x0 SSTORE CALLVALUE DUP1 ISZERO PUSH3 0x19 JUMPI PUSH1 0x0 DUP1 REVERT JUMPDEST POP PUSH1 0x40 MLOAD PUSH3 0xF1A CODESIZE SUB DUP1 PUSH3 0xF1A DUP4 CODECOPY DUP2 DUP2 ADD PUSH1 0x40 MSTORE DUP2 ADD SWAP1 PUSH3 0x3F SWAP2 SWAP1 PUSH3 0x25F JUMP JUMPDEST DUP2 PUSH1 0x1 SWAP1 DUP1 MLOAD SWAP1 PUSH1 0x20 ADD SWAP1 PUSH3 0x57 SWAP3 SWAP2 SWAP1 PUSH3 0x131 JUMP JUMPDEST POP DUP1 PUSH1 0x2 SWAP1 DUP1 MLOAD SWAP1 PUSH1 0x20 ADD SWAP1 PUSH3 0x70 SWAP3 SWAP2 SWAP1 PUSH3 0x131 JUMP JUMPDEST POP PUSH1 0x12 PUSH1 0x3 DUP2 SWAP1 SSTORE POP PUSH1 0x0 SLOAD PUSH1 0x4 PUSH1 0x0 CALLER PUSH20 0xFFFFFFFFFFFFFFFFFFFFFFFFFFFFFFFFFFFFFFFF AND PUSH20 0xFFFFFFFFFFFFFFFFFFFFFFFFFFFFFFFFFFFFFFFF AND DUP2 MSTORE PUSH1 0x20 ADD SWAP1 DUP2 MSTORE PUSH1 0x20 ADD PUSH1 0x0 KECCAK256 DUP2 SWAP1 SSTORE POP CALLER PUSH20 0xFFFFFFFFFFFFFFFFFFFFFFFFFFFFFFFFFFFFFFFF AND PUSH1 0x0 PUSH20 0xFFFFFFFFFFFFFFFFFFFFFFFFFFFFFFFFFFFFFFFF AND PUSH32 0xDDF252AD1BE2C89B69C2B068FC378DAA952BA7F163C4A11628F55A4DF523B3EF PUSH1 0x0 SLOAD PUSH1 0x40 MLOAD PUSH3 0x121 SWAP2 SWAP1 PUSH3 0x2F5 JUMP JUMPDEST PUSH1 0x40 MLOAD DUP1 SWAP2 SUB SWAP1 LOG3 POP POP PUSH3 0x4A0 JUMP JUMPDEST DUP3 DUP1 SLOAD PUSH3 0x13F SWAP1 PUSH3 0x3B1 JUMP JUMPDEST SWAP1 PUSH1 0x0 MSTORE PUSH1 0x20 PUSH1 0x0 KECCAK256 SWAP1 PUSH1 0x1F ADD PUSH1 0x20 SWAP1 DIV DUP2 ADD SWAP3 DUP3 PUSH3 0x163 JUMPI PUSH1 0x0 DUP6 SSTORE PUSH3 0x1AF JUMP JUMPDEST DUP3 PUSH1 0x1F LT PUSH3 0x17E JUMPI DUP1 MLOAD PUSH1 0xFF NOT AND DUP4 DUP1 ADD OR DUP6 SSTORE PUSH3 0x1AF JUMP JUMPDEST DUP3 DUP1 ADD PUSH1 0x1 ADD DUP6 SSTORE DUP3 ISZERO PUSH3 0x1AF JUMPI SWAP2 DUP3 ADD JUMPDEST DUP3 DUP2 GT ISZERO PUSH3 0x1AE JUMPI DUP3 MLOAD DUP3 SSTORE SWAP2 PUSH1 0x20 ADD SWAP2 SWAP1 PUSH1 0x1 ADD SWAP1 PUSH3 0x191 JUMP JUMPDEST JUMPDEST POP SWAP1 POP PUSH3 0x1BE SWAP2 SWAP1 PUSH3 0x1C2 JUMP JUMPDEST POP SWAP1 JUMP JUMPDEST JUMPDEST DUP1 DUP3 GT ISZERO PUSH3 0x1DD JUMPI PUSH1 0x0 DUP2 PUSH1 0x0 SWAP1 SSTORE POP PUSH1 0x1 ADD PUSH3 0x1C3 JUMP JUMPDEST POP SWAP1 JUMP JUMPDEST PUSH1 0x0 PUSH3 0x1F8 PUSH3 0x1F2 DUP5 PUSH3 0x33B JUMP JUMPDEST PUSH3 0x312 JUMP JUMPDEST SWAP1 POP DUP3 DUP2 MSTORE PUSH1 0x20 DUP2 ADD DUP5 DUP5 DUP5 ADD GT ISZERO PUSH3 0x217 JUMPI PUSH3 0x216 PUSH3 0x480 JUMP JUMPDEST JUMPDEST PUSH3 0x224 DUP5 DUP3 DUP6 PUSH3 0x37B JUMP JUMPDEST POP SWAP4 SWAP3 POP POP POP JUMP JUMPDEST PUSH1 0x0 DUP3 PUSH1 0x1F DUP4 ADD SLT PUSH3 0x244 JUMPI PUSH3 0x243 PUSH3 0x47B JUMP JUMPDEST JUMPDEST DUP2 MLOAD PUSH3 0x256 DUP5 DUP3 PUSH1 0x20 DUP7 ADD PUSH3 0x1E1 JUMP JUMPDEST SWAP2 POP POP SWAP3 SWAP2 POP POP JUMP JUMPDEST PUSH1 0x0 DUP1 PUSH1 0x40 DUP4 DUP6 SUB SLT ISZERO PUSH3 0x279 JUMPI PUSH3 0x278 PUSH3 0x48A JUMP JUMPDEST JUMPDEST PUSH1 0x0 DUP4 ADD MLOAD PUSH8 0xFFFFFFFFFFFFFFFF DUP2 GT ISZERO PUSH3 0x29A JUMPI PUSH3 0x299 PUSH3 0x485 JUMP JUMPDEST JUMPDEST PUSH3 0x2A8 DUP6 DUP3 DUP7 ADD PUSH3 0x22C JUMP JUMPDEST SWAP3 POP POP PUSH1 0x20 DUP4 ADD MLOAD PUSH8 0xFFFFFFFFFFFFFFFF DUP2 GT ISZERO PUSH3 0x2CC JUMPI PUSH3 0x2CB PUSH3 0x485 JUMP JUMPDEST JUMPDEST PUSH3 0x2DA DUP6 DUP3 DUP7 ADD PUSH3 0x22C JUMP JUMPDEST SWAP2 POP POP SWAP3 POP SWAP3 SWAP1 POP JUMP JUMPDEST PUSH3 0x2EF DUP2 PUSH3 0x371 JUMP JUMPDEST DUP3 MSTORE POP POP JUMP JUMPDEST PUSH1 0x0 PUSH1 0x20 DUP3 ADD SWAP1 POP PUSH3 0x30C PUSH1 0x0 DUP4 ADD DUP5 PUSH3 0x2E4 JUMP JUMPDEST SWAP3 SWAP2 POP POP JUMP JUMPDEST PUSH1 0x0 PUSH3 0x31E PUSH3 0x331 JUMP JUMPDEST SWAP1 POP PUSH3 0x32C DUP3 DUP3 PUSH3 0x3E7 JUMP JUMPDEST SWAP2 SWAP1 POP JUMP JUMPDEST PUSH1 0x0 PUSH1 0x40 MLOAD SWAP1 POP SWAP1 JUMP JUMPDEST PUSH1 0x0 PUSH8 0xFFFFFFFFFFFFFFFF DUP3 GT ISZERO PUSH3 0x359 JUMPI PUSH3 0x358 PUSH3 0x44C JUMP JUMPDEST JUMPDEST PUSH3 0x364 DUP3 PUSH3 0x48F JUMP JUMPDEST SWAP1 POP PUSH1 0x20 DUP2 ADD SWAP1 POP SWAP2 SWAP1 POP JUMP JUMPDEST PUSH1 0x0 DUP2 SWAP1 POP SWAP2 SWAP1 POP JUMP JUMPDEST PUSH1 0x0 JUMPDEST DUP4 DUP2 LT ISZERO PUSH3 0x39B JUMPI DUP1 DUP3 ADD MLOAD DUP2 DUP5 ADD MSTORE PUSH1 0x20 DUP2 ADD SWAP1 POP PUSH3 0x37E JUMP JUMPDEST DUP4 DUP2 GT ISZERO PUSH3 0x3AB JUMPI PUSH1 0x0 DUP5 DUP5 ADD MSTORE JUMPDEST POP POP POP POP JUMP JUMPDEST PUSH1 0x0 PUSH1 0x2 DUP3 DIV SWAP1 POP PUSH1 0x1 DUP3 AND DUP1 PUSH3 0x3CA JUMPI PUSH1 0x7F DUP3 AND SWAP2 POP JUMPDEST PUSH1 0x20 DUP3 LT DUP2 EQ ISZERO PUSH3 0x3E1 JUMPI PUSH3 0x3E0 PUSH3 0x41D JUMP JUMPDEST JUMPDEST POP SWAP2 SWAP1 POP JUMP JUMPDEST PUSH3 0x3F2 DUP3 PUSH3 0x48F JUMP JUMPDEST DUP2 ADD DUP2 DUP2 LT PUSH8 0xFFFFFFFFFFFFFFFF DUP3 GT OR ISZERO PUSH3 0x414 JUMPI PUSH3 0x413 PUSH3 0x44C JUMP JUMPDEST JUMPDEST DUP1 PUSH1 0x40 MSTORE POP POP POP JUMP JUMPDEST PUSH32 0x4E487B7100000000000000000000000000000000000000000000000000000000 PUSH1 0x0 MSTORE PUSH1 0x22 PUSH1 0x4 MSTORE PUSH1 0x24 PUSH1 0x0 REVERT JUMPDEST PUSH32 0x4E487B7100000000000000000000000000000000000000000000000000000000 PUSH1 0x0 MSTORE PUSH1 0x41 PUSH1 0x4 MSTORE PUSH1 0x24 PUSH1 0x0 REVERT JUMPDEST PUSH1 0x0 DUP1 REVERT JUMPDEST PUSH1 0x0 DUP1 REVERT JUMPDEST PUSH1 0x0 DUP1 REVERT JUMPDEST PUSH1 0x0 DUP1 REVERT JUMPDEST PUSH1 0x0 PUSH1 0x1F NOT PUSH1 0x1F DUP4 ADD AND SWAP1 POP SWAP2 SWAP1 POP JUMP JUMPDEST PUSH2 0xA6A DUP1 PUSH3 0x4B0 PUSH1 0x0 CODECOPY PUSH1 0x0 RETURN INVALID PUSH1 0x80 PUSH1 0x40 MSTORE CALLVALUE DUP1 ISZERO PUSH2 0x10 JUMPI PUSH1 0x0 DUP1 REVERT JUMPDEST POP PUSH1 0x4 CALLDATASIZE LT PUSH2 0x7D JUMPI PUSH1 0x0 CALLDATALOAD PUSH1 0xE0 SHR DUP1 PUSH4 0x313CE567 GT PUSH2 0x5B JUMPI DUP1 PUSH4 0x313CE567 EQ PUSH2 0xEE JUMPI DUP1 PUSH4 0x70A08231 EQ PUSH2 0x10C JUMPI DUP1 PUSH4 0x95D89B41 EQ PUSH2 0x13C JUMPI DUP1 PUSH4 0xA9059CBB EQ PUSH2 0x15A JUMPI PUSH2 0x7D JUMP JUMPDEST DUP1 PUSH4 0x6FDDE03 EQ PUSH2 0x82 JUMPI DUP1 PUSH4 0x18160DDD EQ PUSH2 0xA0 JUMPI DUP1 PUSH4 0x23B872DD EQ PUSH2 0xBE JUMPI JUMPDEST PUSH1 0x0 DUP1 REVERT JUMPDEST PUSH2 0x8A PUSH2 0x18A JUMP JUMPDEST PUSH1 0x40 MLOAD PUSH2 0x97 SWAP2 SWAP1 PUSH2 0x7B9 JUMP JUMPDEST PUSH1 0x40 MLOAD DUP1 SWAP2 SUB SWAP1 RETURN JUMPDEST PUSH2 0xA8 PUSH2 0x218 JUMP JUMPDEST PUSH1 0x40 MLOAD PUSH2 0xB5 SWAP2 SWAP1 PUSH2 0x7FB JUMP JUMPDEST PUSH1 0x40 MLOAD DUP1 SWAP2 SUB SWAP1 RETURN JUMPDEST PUSH2 0xD8 PUSH1 0x4 DUP1 CALLDATASIZE SUB DUP2 ADD SWAP1 PUSH2 0xD3 SWAP2 SWAP1 PUSH2 0x691 JUMP JUMPDEST PUSH2 0x21E JUMP JUMPDEST PUSH1 0x40 MLOAD PUSH2 0xE5 SWAP2 SWAP1 PUSH2 0x79E JUMP JUMPDEST PUSH1 0x40 MLOAD DUP1 SWAP2 SUB SWAP1 RETURN JUMPDEST PUSH2 0xF6 PUSH2 0x3BE JUMP JUMPDEST PUSH1 0x40 MLOAD PUSH2 0x103 SWAP2 SWAP1 PUSH2 0x7FB JUMP JUMPDEST PUSH1 0x40 MLOAD DUP1 SWAP2 SUB SWAP1 RETURN JUMPDEST PUSH2 0x126 PUSH1 0x4 DUP1 CALLDATASIZE SUB DUP2 ADD SWAP1 PUSH2 0x121 SWAP2 SWAP1 PUSH2 0x664 JUMP JUMPDEST PUSH2 0x3C4 JUMP JUMPDEST PUSH1 0x40 MLOAD PUSH2 0x133 SWAP2 SWAP1 PUSH2 0x7FB JUMP JUMPDEST PUSH1 0x40 MLOAD DUP1 SWAP2 SUB SWAP1 RETURN JUMPDEST PUSH2 0x144 PUSH2 0x40D JUMP JUMPDEST PUSH1 0x40 MLOAD PUSH2 0x151 SWAP2 SWAP1 PUSH2 0x7B9 JUMP JUMPDEST PUSH1 0x40 MLOAD DUP1 SWAP2 SUB SWAP1 RETURN JUMPDEST PUSH2 0x174 PUSH1 0x4 DUP1 CALLDATASIZE SUB DUP2 ADD SWAP1 PUSH2 0x16F SWAP2 SWAP1 PUSH2 0x6E4 JUMP JUMPDEST PUSH2 0x49B JUMP JUMPDEST PUSH1 0x40 MLOAD PUSH2 0x181 SWAP2 SWAP1 PUSH2 0x79E JUMP JUMPDEST PUSH1 0x40 MLOAD DUP1 SWAP2 SUB SWAP1 RETURN JUMPDEST PUSH1 0x1 DUP1 SLOAD PUSH2 0x197 SWAP1 PUSH2 0x937 JUMP JUMPDEST DUP1 PUSH1 0x1F ADD PUSH1 0x20 DUP1 SWAP2 DIV MUL PUSH1 0x20 ADD PUSH1 0x40 MLOAD SWAP1 DUP2 ADD PUSH1 0x40 MSTORE DUP1 SWAP3 SWAP2 SWAP1 DUP2 DUP2 MSTORE PUSH1 0x20 ADD DUP3 DUP1 SLOAD PUSH2 0x1C3 SWAP1 PUSH2 0x937 JUMP JUMPDEST DUP1 ISZERO PUSH2 0x210 JUMPI DUP1 PUSH1 0x1F LT PUSH2 0x1E5 JUMPI PUSH2 0x100 DUP1 DUP4 SLOAD DIV MUL DUP4 MSTORE SWAP2 PUSH1 0x20 ADD SWAP2 PUSH2 0x210 JUMP JUMPDEST DUP3 ADD SWAP2 SWAP1 PUSH1 0x0 MSTORE PUSH1 0x20 PUSH1 0x0 KECCAK256 SWAP1 JUMPDEST DUP2 SLOAD DUP2 MSTORE SWAP1 PUSH1 0x1 ADD SWAP1 PUSH1 0x20 ADD DUP1 DUP4 GT PUSH2 0x1F3 JUMPI DUP3 SWAP1 SUB PUSH1 0x1F AND DUP3 ADD SWAP2 JUMPDEST POP POP POP POP POP DUP2 JUMP JUMPDEST PUSH1 0x0 SLOAD DUP2 JUMP JUMPDEST PUSH1 0x0 DUP2 PUSH1 0x4 PUSH1 0x0 DUP7 PUSH20 0xFFFFFFFFFFFFFFFFFFFFFFFFFFFFFFFFFFFFFFFF AND PUSH20 0xFFFFFFFFFFFFFFFFFFFFFFFFFFFFFFFFFFFFFFFF AND DUP2 MSTORE PUSH1 0x20 ADD SWAP1 DUP2 MSTORE PUSH1 0x20 ADD PUSH1 0x0 KECCAK256 SLOAD LT ISZERO PUSH2 0x2A2 JUMPI PUSH1 0x40 MLOAD PUSH32 0x8C379A000000000000000000000000000000000000000000000000000000000 DUP2 MSTORE PUSH1 0x4 ADD PUSH2 0x299 SWAP1 PUSH2 0x7DB JUMP JUMPDEST PUSH1 0x40 MLOAD DUP1 SWAP2 SUB SWAP1 REVERT JUMPDEST DUP2 PUSH1 0x4 PUSH1 0x0 DUP7 PUSH20 0xFFFFFFFFFFFFFFFFFFFFFFFFFFFFFFFFFFFFFFFF AND PUSH20 0xFFFFFFFFFFFFFFFFFFFFFFFFFFFFFFFFFFFFFFFF AND DUP2 MSTORE PUSH1 0x20 ADD SWAP1 DUP2 MSTORE PUSH1 0x20 ADD PUSH1 0x0 KECCAK256 PUSH1 0x0 DUP3 DUP3 SLOAD PUSH2 0x2F1 SWAP2 SWAP1 PUSH2 0x888 JUMP JUMPDEST SWAP3 POP POP DUP2 SWAP1 SSTORE POP DUP2 PUSH1 0x4 PUSH1 0x0 DUP6 PUSH20 0xFFFFFFFFFFFFFFFFFFFFFFFFFFFFFFFFFFFFFFFF AND PUSH20 0xFFFFFFFFFFFFFFFFFFFFFFFFFFFFFFFFFFFFFFFF AND DUP2 MSTORE PUSH1 0x20 ADD SWAP1 DUP2 MSTORE PUSH1 0x20 ADD PUSH1 0x0 KECCAK256 PUSH1 0x0 DUP3 DUP3 SLOAD PUSH2 0x347 SWAP2 SWAP1 PUSH2 0x832 JUMP JUMPDEST SWAP3 POP POP DUP2 SWAP1 SSTORE POP DUP3 PUSH20 0xFFFFFFFFFFFFFFFFFFFFFFFFFFFFFFFFFFFFFFFF AND DUP5 PUSH20 0xFFFFFFFFFFFFFFFFFFFFFFFFFFFFFFFFFFFFFFFF AND PUSH32 0xDDF252AD1BE2C89B69C2B068FC378DAA952BA7F163C4A11628F55A4DF523B3EF DUP5 PUSH1 0x40 MLOAD PUSH2 0x3AB SWAP2 SWAP1 PUSH2 0x7FB JUMP JUMPDEST PUSH1 0x40 MLOAD DUP1 SWAP2 SUB SWAP1 LOG3 PUSH1 0x1 SWAP1 POP SWAP4 SWAP3 POP POP POP JUMP JUMPDEST PUSH1 0x3 SLOAD DUP2 JUMP JUMPDEST PUSH1 0x0 PUSH1 0x4 PUSH1 0x0 DUP4 PUSH20 0xFFFFFFFFFFFFFFFFFFFFFFFFFFFFFFFFFFFFFFFF AND PUSH20 0xFFFFFFFFFFFFFFFFFFFFFFFFFFFFFFFFFFFFFFFF AND DUP2 MSTORE PUSH1 0x20 ADD SWAP1 DUP2 MSTORE PUSH1 0x20 ADD PUSH1 0x0 KECCAK256 SLOAD SWAP1 POP SWAP2 SWAP1 POP JUMP JUMPDEST PUSH1 0x2 DUP1 SLOAD PUSH2 0x41A SWAP1 PUSH2 0x937 JUMP JUMPDEST DUP1 PUSH1 0x1F ADD PUSH1 0x20 DUP1 SWAP2 DIV MUL PUSH1 0x20 ADD PUSH1 0x40 MLOAD SWAP1 DUP2 ADD PUSH1 0x40 MSTORE DUP1 SWAP3 SWAP2 SWAP1 DUP2 DUP2 MSTORE PUSH1 0x20 ADD DUP3 DUP1 SLOAD PUSH2 0x446 SWAP1 PUSH2 0x937 JUMP JUMPDEST DUP1 ISZERO PUSH2 0x493 JUMPI DUP1 PUSH1 0x1F LT PUSH2 0x468 JUMPI PUSH2 0x100 DUP1 DUP4 SLOAD DIV MUL DUP4 MSTORE SWAP2 PUSH1 0x20 ADD SWAP2 PUSH2 0x493 JUMP JUMPDEST DUP3 ADD SWAP2 SWAP1 PUSH1 0x0 MSTORE PUSH1 0x20 PUSH1 0x0 KECCAK256 SWAP1 JUMPDEST DUP2 SLOAD DUP2 MSTORE SWAP1 PUSH1 0x1 ADD SWAP1 PUSH1 0x20 ADD DUP1 DUP4 GT PUSH2 0x476 JUMPI DUP3 SWAP1 SUB PUSH1 0x1F AND DUP3 ADD SWAP2 JUMPDEST POP POP POP POP POP DUP2 JUMP JUMPDEST PUSH1 0x0 DUP2 PUSH1 0x4 PUSH1 0x0 CALLER PUSH20 0xFFFFFFFFFFFFFFFFFFFFFFFFFFFFFFFFFFFFFFFF AND PUSH20 0xFFFFFFFFFFFFFFFFFFFFFFFFFFFFFFFFFFFFFFFF AND DUP2 MSTORE PUSH1 0x20 ADD SWAP1 DUP2 MSTORE PUSH1 0x20 ADD PUSH1 0x0 KECCAK256 SLOAD LT ISZERO PUSH2 0x51F JUMPI PUSH1 0x40 MLOAD PUSH32 0x8C379A000000000000000000000000000000000000000000000000000000000 DUP2 MSTORE PUSH1 0x4 ADD PUSH2 0x516 SWAP1 PUSH2 0x7DB JUMP JUMPDEST PUSH1 0x40 MLOAD DUP1 SWAP2 SUB SWAP1 REVERT JUMPDEST DUP2 PUSH1 0x4 PUSH1 0x0 CALLER PUSH20 0xFFFFFFFFFFFFFFFFFFFFFFFFFFFFFFFFFFFFFFFF AND PUSH20 0xFFFFFFFFFFFFFFFFFFFFFFFFFFFFFFFFFFFFFFFF AND DUP2 MSTORE PUSH1 0x20 ADD SWAP1 DUP2 MSTORE PUSH1 0x20 ADD PUSH1 0x0 KECCAK256 PUSH1 0x0 DUP3 DUP3 SLOAD PUSH2 0x56E SWAP2 SWAP1 PUSH2 0x888 JUMP JUMPDEST SWAP3 POP POP DUP2 SWAP1 SSTORE POP DUP2 PUSH1 0x4 PUSH1 0x0 DUP6 PUSH20 0xFFFFFFFFFFFFFFFFFFFFFFFFFFFFFFFFFFFFFFFF AND PUSH20 0xFFFFFFFFFFFFFFFFFFFFFFFFFFFFFFFFFFFFFFFF AND DUP2 MSTORE PUSH1 0x20 ADD SWAP1 DUP2 MSTORE PUSH1 0x20 ADD PUSH1 0x0 KECCAK256 PUSH1 0x0 DUP3 DUP3 SLOAD PUSH2 0x5C4 SWAP2 SWAP1 PUSH2 0x832 JUMP JUMPDEST SWAP3 POP POP DUP2 SWAP1 SSTORE POP DUP3 PUSH20 0xFFFFFFFFFFFFFFFFFFFFFFFFFFFFFFFFFFFFFFFF AND CALLER PUSH20 0xFFFFFFFFFFFFFFFFFFFFFFFFFFFFFFFFFFFFFFFF AND PUSH32 0xDDF252AD1BE2C89B69C2B068FC378DAA952BA7F163C4A11628F55A4DF523B3EF DUP5 PUSH1 0x40 MLOAD PUSH2 0x628 SWAP2 SWAP1 PUSH2 0x7FB JUMP JUMPDEST PUSH1 0x40 MLOAD DUP1 SWAP2 SUB SWAP1 LOG3 PUSH1 0x1 SWAP1 POP SWAP3 SWAP2 POP POP JUMP JUMPDEST PUSH1 0x0 DUP2 CALLDATALOAD SWAP1 POP PUSH2 0x649 DUP2 PUSH2 0xA06 JUMP JUMPDEST SWAP3 SWAP2 POP POP JUMP JUMPDEST PUSH1 0x0 DUP2 CALLDATALOAD SWAP1 POP PUSH2 0x65E DUP2 PUSH2 0xA1D JUMP JUMPDEST SWAP3 SWAP2 POP POP JUMP JUMPDEST PUSH1 0x0 PUSH1 0x20 DUP3 DUP5 SUB SLT ISZERO PUSH2 0x67A JUMPI PUSH2 0x679 PUSH2 0x9C7 JUMP JUMPDEST JUMPDEST PUSH1 0x0 PUSH2 0x688 DUP5 DUP3 DUP6 ADD PUSH2 0x63A JUMP JUMPDEST SWAP2 POP POP SWAP3 SWAP2 POP POP JUMP JUMPDEST PUSH1 0x0 DUP1 PUSH1 0x0 PUSH1 0x60 DUP5 DUP7 SUB SLT ISZERO PUSH2 0x6AA JUMPI PUSH2 0x6A9 PUSH2 0x9C7 JUMP JUMPDEST JUMPDEST PUSH1 0x0 PUSH2 0x6B8 DUP7 DUP3 DUP8 ADD PUSH2 0x63A JUMP JUMPDEST SWAP4 POP POP PUSH1 0x20 PUSH2 0x6C9 DUP7 DUP3 DUP8 ADD PUSH2 0x63A JUMP JUMPDEST SWAP3 POP POP PUSH1 0x40 PUSH2 0x6DA DUP7 DUP3 DUP8 ADD PUSH2 0x64F JUMP JUMPDEST SWAP2 POP POP SWAP3 POP SWAP3 POP SWAP3 JUMP JUMPDEST PUSH1 0x0 DUP1 PUSH1 0x40 DUP4 DUP6 SUB SLT ISZERO PUSH2 0x6FB JUMPI PUSH2 0x6FA PUSH2 0x9C7 JUMP JUMPDEST JUMPDEST PUSH1 0x0 PUSH2 0x709 DUP6 DUP3 DUP7 ADD PUSH2 0x63A JUMP JUMPDEST SWAP3 POP POP PUSH1 0x20 PUSH2 0x71A DUP6 DUP3 DUP7 ADD PUSH2 0x64F JUMP JUMPDEST SWAP2 POP POP SWAP3 POP SWAP3 SWAP1 POP JUMP JUMPDEST PUSH2 0x72D DUP2 PUSH2 0x8CE JUMP JUMPDEST DUP3 MSTORE POP POP JUMP JUMPDEST PUSH1 0x0 PUSH2 0x73E DUP3 PUSH2 0x816 JUMP JUMPDEST PUSH2 0x748 DUP2 DUP6 PUSH2 0x821 JUMP JUMPDEST SWAP4 POP PUSH2 0x758 DUP2 DUP6 PUSH1 0x20 DUP7 ADD PUSH2 0x904 JUMP JUMPDEST PUSH2 0x761 DUP2 PUSH2 0x9CC JUMP JUMPDEST DUP5 ADD SWAP2 POP POP SWAP3 SWAP2 POP POP JUMP JUMPDEST PUSH1 0x0 PUSH2 0x779 PUSH1 0x1D DUP4 PUSH2 0x821 JUMP JUMPDEST SWAP2 POP PUSH2 0x784 DUP3 PUSH2 0x9DD JUMP JUMPDEST PUSH1 0x20 DUP3 ADD SWAP1 POP SWAP2 SWAP1 POP JUMP JUMPDEST PUSH2 0x798 DUP2 PUSH2 0x8FA JUMP JUMPDEST DUP3 MSTORE POP POP JUMP JUMPDEST PUSH1 0x0 PUSH1 0x20 DUP3 ADD SWAP1 POP PUSH2 0x7B3 PUSH1 0x0 DUP4 ADD DUP5 PUSH2 0x724 JUMP JUMPDEST SWAP3 SWAP2 POP POP JUMP JUMPDEST PUSH1 0x0 PUSH1 0x20 DUP3 ADD SWAP1 POP DUP2 DUP2 SUB PUSH1 0x0 DUP4 ADD MSTORE PUSH2 0x7D3 DUP2 DUP5 PUSH2 0x733 JUMP JUMPDEST SWAP1 POP SWAP3 SWAP2 POP POP JUMP JUMPDEST PUSH1 0x0 PUSH1 0x20 DUP3 ADD SWAP1 POP DUP2 DUP2 SUB PUSH1 0x0 DUP4 ADD MSTORE PUSH2 0x7F4 DUP2 PUSH2 0x76C JUMP JUMPDEST SWAP1 POP SWAP2 SWAP1 POP JUMP JUMPDEST PUSH1 0x0 PUSH1 0x20 DUP3 ADD SWAP1 POP PUSH2 0x810 PUSH1 0x0 DUP4 ADD DUP5 PUSH2 0x78F JUMP JUMPDEST SWAP3 SWAP2 POP POP JUMP JUMPDEST PUSH1 0x0 DUP2 MLOAD SWAP1 POP SWAP2 SWAP1 POP JUMP JUMPDEST PUSH1 0x0 DUP3 DUP3 MSTORE PUSH1 0x20 DUP3 ADD SWAP1 POP SWAP3 SWAP2 POP POP JUMP JUMPDEST PUSH1 0x0 PUSH2 0x83D DUP3 PUSH2 0x8FA JUMP JUMPDEST SWAP2 POP PUSH2 0x848 DUP4 PUSH2 0x8FA JUMP JUMPDEST SWAP3 POP DUP3 PUSH32 0xFFFFFFFFFFFFFFFFFFFFFFFFFFFFFFFFFFFFFFFFFFFFFFFFFFFFFFFFFFFFFFFF SUB DUP3 GT ISZERO PUSH2 0x87D JUMPI PUSH2 0x87C PUSH2 0x969 JUMP JUMPDEST JUMPDEST DUP3 DUP3 ADD SWAP1 POP SWAP3 SWAP2 POP POP JUMP JUMPDEST PUSH1 0x0 PUSH2 0x893 DUP3 PUSH2 0x8FA JUMP JUMPDEST SWAP2 POP PUSH2 0x89E DUP4 PUSH2 0x8FA JUMP JUMPDEST SWAP3 POP DUP3 DUP3 LT ISZERO PUSH2 0x8B1 JUMPI PUSH2 0x8B0 PUSH2 0x969 JUMP JUMPDEST JUMPDEST DUP3 DUP3 SUB SWAP1 POP SWAP3 SWAP2 POP POP JUMP JUMPDEST PUSH1 0x0 PUSH2 0x8C7 DUP3 PUSH2 0x8DA JUMP JUMPDEST SWAP1 POP SWAP2 SWAP1 POP JUMP JUMPDEST PUSH1 0x0 DUP2 ISZERO ISZERO SWAP1 POP SWAP2 SWAP1 POP JUMP JUMPDEST PUSH1 0x0 PUSH20 0xFFFFFFFFFFFFFFFFFFFFFFFFFFFFFFFFFFFFFFFF DUP3 AND SWAP1 POP SWAP2 SWAP1 POP JUMP JUMPDEST PUSH1 0x0 DUP2 SWAP1 POP SWAP2 SWAP1 POP JUMP JUMPDEST PUSH1 0x0 JUMPDEST DUP4 DUP2 LT ISZERO PUSH2 0x922 JUMPI DUP1 DUP3 ADD MLOAD DUP2 DUP5 ADD MSTORE PUSH1 0x20 DUP2 ADD SWAP1 POP PUSH2 0x907 JUMP JUMPDEST DUP4 DUP2 GT ISZERO PUSH2 0x931 JUMPI PUSH1 0x0 DUP5 DUP5 ADD MSTORE JUMPDEST POP POP POP POP JUMP JUMPDEST PUSH1 0x0 PUSH1 0x2 DUP3 DIV SWAP1 POP PUSH1 0x1 DUP3 AND DUP1 PUSH2 0x94F JUMPI PUSH1 0x7F DUP3 AND SWAP2 POP JUMPDEST PUSH1 0x20 DUP3 LT DUP2 EQ ISZERO PUSH2 0x963 JUMPI PUSH2 0x962 PUSH2 0x998 JUMP JUMPDEST JUMPDEST POP SWAP2 SWAP1 POP JUMP JUMPDEST PUSH32 0x4E487B7100000000000000000000000000000000000000000000000000000000 PUSH1 0x0 MSTORE PUSH1 0x11 PUSH1 0x4 MSTORE PUSH1 0x24 PUSH1 0x0 REVERT JUMPDEST PUSH32 0x4E487B7100000000000000000000000000000000000000000000000000000000 PUSH1 0x0 MSTORE PUSH1 0x22 PUSH1 0x4 MSTORE PUSH1 0x24 PUSH1 0x0 REVERT JUMPDEST PUSH1 0x0 DUP1 REVERT JUMPDEST PUSH1 0x0 PUSH1 0x1F NOT PUSH1 0x1F DUP4 ADD AND SWAP1 POP SWAP2 SWAP1 POP JUMP JUMPDEST PUSH32 0x4E6F7420656E6F75676820746F6B656E20746F207472616E736665722E000000 PUSH1 0x0 DUP3 ADD MSTORE POP JUMP JUMPDEST PUSH2 0xA0F DUP2 PUSH2 0x8BC JUMP JUMPDEST DUP2 EQ PUSH2 0xA1A JUMPI PUSH1 0x0 DUP1 REVERT JUMPDEST POP JUMP JUMPDEST PUSH2 0xA26 DUP2 PUSH2 0x8FA JUMP JUMPDEST DUP2 EQ PUSH2 0xA31 JUMPI PUSH1 0x0 DUP1 REVERT JUMPDEST POP JUMP INVALID LOG2 PUSH5 0x6970667358 0x22 SLT KECCAK256 DUP7 0xA8 NOT CALLCODE PUSH31 0xFD29E7384D61CAD17D714ECAEACE5F176D5408ABBB45871A6DDE7564736F6C PUSH4 0x43000807 STOP CALLER "
				},
				"gasEstimates": {
					"creation": {
						"codeDepositCost": "533200",
						"executionCost": "infinite",
						"totalCost": "infinite"
					},
					"external": {
						"balanceOf(address)": "2863",
						"decimals()": "2429",
						"name()": "infinite",
						"symbol()": "infinite",
						"totalSupply()": "2452",
						"transfer(address,uint256)": "infinite",
						"transferFrom(address,address,uint256)": "infinite"
					}
				},
				"methodIdentifiers": {
					"balanceOf(address)": "70a08231",
					"decimals()": "313ce567",
					"name()": "06fdde03",
					"symbol()": "95d89b41",
					"totalSupply()": "18160ddd",
					"transfer(address,uint256)": "a9059cbb",
					"transferFrom(address,address,uint256)": "23b872dd"
				}
			},
			"storageLayout": {
				"storage": [
					{
						"astId": 4,
						"contract": "contracts/TOKEN1.sol:TOKEN1",
						"label": "totalSupply",
						"offset": 0,
						"slot": "0",
						"type": "t_uint256"
					},
					{
						"astId": 6,
						"contract": "contracts/TOKEN1.sol:TOKEN1",
						"label": "name",
						"offset": 0,
						"slot": "1",
						"type": "t_string_storage"
					},
					{
						"astId": 8,
						"contract": "contracts/TOKEN1.sol:TOKEN1",
						"label": "symbol",
						"offset": 0,
						"slot": "2",
						"type": "t_string_storage"
					},
					{
						"astId": 10,
						"contract": "contracts/TOKEN1.sol:TOKEN1",
						"label": "decimals",
						"offset": 0,
						"slot": "3",
						"type": "t_uint256"
					},
					{
						"astId": 14,
						"contract": "contracts/TOKEN1.sol:TOKEN1",
						"label": "balances",
						"offset": 0,
						"slot": "4",
						"type": "t_mapping(t_address,t_uint256)"
					}
				],
				"types": {
					"t_address": {
						"encoding": "inplace",
						"label": "address",
						"numberOfBytes": "20"
					},
					"t_mapping(t_address,t_uint256)": {
						"encoding": "mapping",
						"key": "t_address",
						"label": "mapping(address => uint256)",
						"numberOfBytes": "32",
						"value": "t_uint256"
					},
					"t_string_storage": {
						"encoding": "bytes",
						"label": "string",
						"numberOfBytes": "32"
					},
					"t_uint256": {
						"encoding": "inplace",
						"label": "uint256",
						"numberOfBytes": "32"
					}
				}
			},
			"userdoc": {
				"kind": "user",
				"methods": {},
				"version": 1
			}
		}
	}
}